{
	"contracts/TetherToken.sol": {
		"TetherToken": {
			"abi": [
				{
					"constant": true,
					"inputs": [],
					"name": "name",
					"outputs": [
						{
							"name": "",
							"type": "string"
						}
					],
					"payable": false,
					"stateMutability": "view",
					"type": "function"
				},
				{
					"constant": false,
					"inputs": [
						{
							"name": "_upgradedAddress",
							"type": "address"
						}
					],
					"name": "deprecate",
					"outputs": [],
					"payable": false,
					"stateMutability": "nonpayable",
					"type": "function"
				},
				{
					"constant": false,
					"inputs": [
						{
							"name": "_spender",
							"type": "address"
						},
						{
							"name": "_value",
							"type": "uint256"
						}
					],
					"name": "approve",
					"outputs": [],
					"payable": false,
					"stateMutability": "nonpayable",
					"type": "function"
				},
				{
					"constant": true,
					"inputs": [],
					"name": "deprecated",
					"outputs": [
						{
							"name": "",
							"type": "bool"
						}
					],
					"payable": false,
					"stateMutability": "view",
					"type": "function"
				},
				{
					"constant": false,
					"inputs": [
						{
							"name": "_evilUser",
							"type": "address"
						}
					],
					"name": "addBlackList",
					"outputs": [],
					"payable": false,
					"stateMutability": "nonpayable",
					"type": "function"
				},
				{
					"constant": true,
					"inputs": [],
					"name": "totalSupply",
					"outputs": [
						{
							"name": "",
							"type": "uint256"
						}
					],
					"payable": false,
					"stateMutability": "view",
					"type": "function"
				},
				{
					"constant": false,
					"inputs": [
						{
							"name": "_from",
							"type": "address"
						},
						{
							"name": "_to",
							"type": "address"
						},
						{
							"name": "_value",
							"type": "uint256"
						}
					],
					"name": "transferFrom",
					"outputs": [],
					"payable": false,
					"stateMutability": "nonpayable",
					"type": "function"
				},
				{
					"constant": true,
					"inputs": [],
					"name": "upgradedAddress",
					"outputs": [
						{
							"name": "",
							"type": "address"
						}
					],
					"payable": false,
					"stateMutability": "view",
					"type": "function"
				},
				{
					"constant": true,
					"inputs": [
						{
							"name": "",
							"type": "address"
						}
					],
					"name": "balances",
					"outputs": [
						{
							"name": "",
							"type": "uint256"
						}
					],
					"payable": false,
					"stateMutability": "view",
					"type": "function"
				},
				{
					"constant": true,
					"inputs": [],
					"name": "decimals",
					"outputs": [
						{
							"name": "",
							"type": "uint256"
						}
					],
					"payable": false,
					"stateMutability": "view",
					"type": "function"
				},
				{
					"constant": true,
					"inputs": [],
					"name": "maximumFee",
					"outputs": [
						{
							"name": "",
							"type": "uint256"
						}
					],
					"payable": false,
					"stateMutability": "view",
					"type": "function"
				},
				{
					"constant": true,
					"inputs": [],
					"name": "_totalSupply",
					"outputs": [
						{
							"name": "",
							"type": "uint256"
						}
					],
					"payable": false,
					"stateMutability": "view",
					"type": "function"
				},
				{
					"constant": false,
					"inputs": [],
					"name": "unpause",
					"outputs": [],
					"payable": false,
					"stateMutability": "nonpayable",
					"type": "function"
				},
				{
					"constant": true,
					"inputs": [
						{
							"name": "_maker",
							"type": "address"
						}
					],
					"name": "getBlackListStatus",
					"outputs": [
						{
							"name": "",
							"type": "bool"
						}
					],
					"payable": false,
					"stateMutability": "view",
					"type": "function"
				},
				{
					"constant": true,
					"inputs": [
						{
							"name": "",
							"type": "address"
						},
						{
							"name": "",
							"type": "address"
						}
					],
					"name": "allowed",
					"outputs": [
						{
							"name": "",
							"type": "uint256"
						}
					],
					"payable": false,
					"stateMutability": "view",
					"type": "function"
				},
				{
					"constant": true,
					"inputs": [],
					"name": "paused",
					"outputs": [
						{
							"name": "",
							"type": "bool"
						}
					],
					"payable": false,
					"stateMutability": "view",
					"type": "function"
				},
				{
					"constant": true,
					"inputs": [
						{
							"name": "who",
							"type": "address"
						}
					],
					"name": "balanceOf",
					"outputs": [
						{
							"name": "",
							"type": "uint256"
						}
					],
					"payable": false,
					"stateMutability": "view",
					"type": "function"
				},
				{
					"constant": false,
					"inputs": [],
					"name": "pause",
					"outputs": [],
					"payable": false,
					"stateMutability": "nonpayable",
					"type": "function"
				},
				{
					"constant": true,
					"inputs": [],
					"name": "getOwner",
					"outputs": [
						{
							"name": "",
							"type": "address"
						}
					],
					"payable": false,
					"stateMutability": "view",
					"type": "function"
				},
				{
					"constant": true,
					"inputs": [],
					"name": "owner",
					"outputs": [
						{
							"name": "",
							"type": "address"
						}
					],
					"payable": false,
					"stateMutability": "view",
					"type": "function"
				},
				{
					"constant": true,
					"inputs": [],
					"name": "symbol",
					"outputs": [
						{
							"name": "",
							"type": "string"
						}
					],
					"payable": false,
					"stateMutability": "view",
					"type": "function"
				},
				{
					"constant": false,
					"inputs": [
						{
							"name": "_to",
							"type": "address"
						},
						{
							"name": "_value",
							"type": "uint256"
						}
					],
					"name": "transfer",
					"outputs": [],
					"payable": false,
					"stateMutability": "nonpayable",
					"type": "function"
				},
				{
					"constant": false,
					"inputs": [
						{
							"name": "newBasisPoints",
							"type": "uint256"
						},
						{
							"name": "newMaxFee",
							"type": "uint256"
						}
					],
					"name": "setParams",
					"outputs": [],
					"payable": false,
					"stateMutability": "nonpayable",
					"type": "function"
				},
				{
					"constant": false,
					"inputs": [
						{
							"name": "amount",
							"type": "uint256"
						}
					],
					"name": "issue",
					"outputs": [],
					"payable": false,
					"stateMutability": "nonpayable",
					"type": "function"
				},
				{
					"constant": false,
					"inputs": [
						{
							"name": "amount",
							"type": "uint256"
						}
					],
					"name": "redeem",
					"outputs": [],
					"payable": false,
					"stateMutability": "nonpayable",
					"type": "function"
				},
				{
					"constant": true,
					"inputs": [
						{
							"name": "_owner",
							"type": "address"
						},
						{
							"name": "_spender",
							"type": "address"
						}
					],
					"name": "allowance",
					"outputs": [
						{
							"name": "remaining",
							"type": "uint256"
						}
					],
					"payable": false,
					"stateMutability": "view",
					"type": "function"
				},
				{
					"constant": true,
					"inputs": [],
					"name": "basisPointsRate",
					"outputs": [
						{
							"name": "",
							"type": "uint256"
						}
					],
					"payable": false,
					"stateMutability": "view",
					"type": "function"
				},
				{
					"constant": true,
					"inputs": [
						{
							"name": "",
							"type": "address"
						}
					],
					"name": "isBlackListed",
					"outputs": [
						{
							"name": "",
							"type": "bool"
						}
					],
					"payable": false,
					"stateMutability": "view",
					"type": "function"
				},
				{
					"constant": false,
					"inputs": [
						{
							"name": "_clearedUser",
							"type": "address"
						}
					],
					"name": "removeBlackList",
					"outputs": [],
					"payable": false,
					"stateMutability": "nonpayable",
					"type": "function"
				},
				{
					"constant": true,
					"inputs": [],
					"name": "MAX_UINT",
					"outputs": [
						{
							"name": "",
							"type": "uint256"
						}
					],
					"payable": false,
					"stateMutability": "view",
					"type": "function"
				},
				{
					"constant": false,
					"inputs": [
						{
							"name": "newOwner",
							"type": "address"
						}
					],
					"name": "transferOwnership",
					"outputs": [],
					"payable": false,
					"stateMutability": "nonpayable",
					"type": "function"
				},
				{
					"constant": false,
					"inputs": [
						{
							"name": "_blackListedUser",
							"type": "address"
						}
					],
					"name": "destroyBlackFunds",
					"outputs": [],
					"payable": false,
					"stateMutability": "nonpayable",
					"type": "function"
				},
				{
					"inputs": [
						{
							"name": "_initialSupply",
							"type": "uint256"
						},
						{
							"name": "_name",
							"type": "string"
						},
						{
							"name": "_symbol",
							"type": "string"
						},
						{
							"name": "_decimals",
							"type": "uint256"
						}
					],
					"payable": false,
					"stateMutability": "nonpayable",
					"type": "constructor"
				},
				{
					"anonymous": false,
					"inputs": [
						{
							"indexed": false,
							"name": "amount",
							"type": "uint256"
						}
					],
					"name": "Issue",
					"type": "event"
				},
				{
					"anonymous": false,
					"inputs": [
						{
							"indexed": false,
							"name": "amount",
							"type": "uint256"
						}
					],
					"name": "Redeem",
					"type": "event"
				},
				{
					"anonymous": false,
					"inputs": [
						{
							"indexed": false,
							"name": "newAddress",
							"type": "address"
						}
					],
					"name": "Deprecate",
					"type": "event"
				},
				{
					"anonymous": false,
					"inputs": [
						{
							"indexed": false,
							"name": "feeBasisPoints",
							"type": "uint256"
						},
						{
							"indexed": false,
							"name": "maxFee",
							"type": "uint256"
						}
					],
					"name": "Params",
					"type": "event"
				},
				{
					"anonymous": false,
					"inputs": [
						{
							"indexed": false,
							"name": "_blackListedUser",
							"type": "address"
						},
						{
							"indexed": false,
							"name": "_balance",
							"type": "uint256"
						}
					],
					"name": "DestroyedBlackFunds",
					"type": "event"
				},
				{
					"anonymous": false,
					"inputs": [
						{
							"indexed": false,
							"name": "_user",
							"type": "address"
						}
					],
					"name": "AddedBlackList",
					"type": "event"
				},
				{
					"anonymous": false,
					"inputs": [
						{
							"indexed": false,
							"name": "_user",
							"type": "address"
						}
					],
					"name": "RemovedBlackList",
					"type": "event"
				},
				{
					"anonymous": false,
					"inputs": [
						{
							"indexed": true,
							"name": "owner",
							"type": "address"
						},
						{
							"indexed": true,
							"name": "spender",
							"type": "address"
						},
						{
							"indexed": false,
							"name": "value",
							"type": "uint256"
						}
					],
					"name": "Approval",
					"type": "event"
				},
				{
					"anonymous": false,
					"inputs": [
						{
							"indexed": true,
							"name": "from",
							"type": "address"
						},
						{
							"indexed": true,
							"name": "to",
							"type": "address"
						},
						{
							"indexed": false,
							"name": "value",
							"type": "uint256"
						}
					],
					"name": "Transfer",
					"type": "event"
				},
				{
					"anonymous": false,
					"inputs": [],
					"name": "Pause",
					"type": "event"
				},
				{
					"anonymous": false,
					"inputs": [],
					"name": "Unpause",
					"type": "event"
				}
			],
			"devdoc": {
				"methods": {
					"pause()": {
						"details": "called by the owner to pause, triggers stopped state\r"
					},
					"transferOwnership(address)": {
						"details": "Allows the current owner to transfer control of the contract to a newOwner.\r",
						"params": {
							"newOwner": "The address to transfer ownership to.\r"
						}
					},
					"unpause()": {
						"details": "called by the owner to unpause, returns to normal state\r"
					}
				}
			},
			"evm": {
				"assembly": "    /* \"contracts/TetherToken.sol\":9971:14888  contract TetherToken is Pausable, StandardToken, BlackList {\r... */\n  mstore(0x40, 0x60)\n    /* \"contracts/TetherToken.sol\":7565:7570  false */\n  0x0\n    /* \"contracts/TetherToken.sol\":7544:7570  bool public paused = false */\n  dup1\n  exp(0x100, 0x14)\n  dup2\n  sload\n  dup2\n  0xff\n  mul\n  not\n  and\n  swap1\n  dup4\n  iszero\n  iszero\n  mul\n  or\n  swap1\n  sstore\n  pop\n    /* \"contracts/TetherToken.sol\":3109:3110  0 */\n  0x0\n    /* \"contracts/TetherToken.sol\":3079:3110  uint public basisPointsRate = 0 */\n  0x3\n  sstore\n    /* \"contracts/TetherToken.sol\":3142:3143  0 */\n  0x0\n    /* \"contracts/TetherToken.sol\":3117:3143  uint public maximumFee = 0 */\n  0x4\n  sstore\n    /* \"contracts/TetherToken.sol\":10481:10777  function TetherToken(uint _initialSupply, string _name, string _symbol, uint _decimals) public {\r... */\n  jumpi(tag_1, iszero(callvalue))\n  0x0\n  dup1\n  revert\ntag_1:\n  mload(0x40)\n  sub(codesize, bytecodeSize)\n  dup1\n  bytecodeSize\n  dup4\n  codecopy\n  dup2\n  add\n  0x40\n  mstore\n  dup1\n  dup1\n  mload\n  swap1\n  0x20\n  add\n  swap1\n  swap2\n  swap1\n  dup1\n  mload\n  dup3\n  add\n  swap2\n  swap1\n  0x20\n  add\n  dup1\n  mload\n  dup3\n  add\n  swap2\n  swap1\n  0x20\n  add\n  dup1\n  mload\n  swap1\n  0x20\n  add\n  swap1\n  swap2\n  swap1\n  pop\n  pop\n    /* \"contracts/TetherToken.sol\":1367:1377  msg.sender */\n  caller\n    /* \"contracts/TetherToken.sol\":1359:1364  owner */\n  0x0\n  dup1\n    /* \"contracts/TetherToken.sol\":1359:1377  owner = msg.sender */\n  0x100\n  exp\n  dup2\n  sload\n  dup2\n  0xffffffffffffffffffffffffffffffffffffffff\n  mul\n  not\n  and\n  swap1\n  dup4\n  0xffffffffffffffffffffffffffffffffffffffff\n  and\n  mul\n  or\n  swap1\n  sstore\n  pop\n    /* \"contracts/TetherToken.sol\":10602:10616  _initialSupply */\n  dup4\n    /* \"contracts/TetherToken.sol\":10587:10599  _totalSupply */\n  0x1\n    /* \"contracts/TetherToken.sol\":10587:10616  _totalSupply = _initialSupply */\n  dup2\n  swap1\n  sstore\n  pop\n    /* \"contracts/TetherToken.sol\":10634:10639  _name */\n  dup3\n    /* \"contracts/TetherToken.sol\":10627:10631  name */\n  0x7\n    /* \"contracts/TetherToken.sol\":10627:10639  name = _name */\n  swap1\n  dup1\n  mload\n  swap1\n  0x20\n  add\n  swap1\n  tag_6\n  swap3\n  swap2\n  swap1\n  jump\t// in(tag_7)\ntag_6:\n  pop\n    /* \"contracts/TetherToken.sol\":10659:10666  _symbol */\n  dup2\n    /* \"contracts/TetherToken.sol\":10650:10656  symbol */\n  0x8\n    /* \"contracts/TetherToken.sol\":10650:10666  symbol = _symbol */\n  swap1\n  dup1\n  mload\n  swap1\n  0x20\n  add\n  swap1\n  tag_8\n  swap3\n  swap2\n  swap1\n  jump\t// in(tag_7)\ntag_8:\n  pop\n    /* \"contracts/TetherToken.sol\":10688:10697  _decimals */\n  dup1\n    /* \"contracts/TetherToken.sol\":10677:10685  decimals */\n  0x9\n    /* \"contracts/TetherToken.sol\":10677:10697  decimals = _decimals */\n  dup2\n  swap1\n  sstore\n  pop\n    /* \"contracts/TetherToken.sol\":10726:10740  _initialSupply */\n  dup4\n    /* \"contracts/TetherToken.sol\":10708:10716  balances */\n  0x2\n    /* \"contracts/TetherToken.sol\":10708:10723  balances[owner] */\n  0x0\n    /* \"contracts/TetherToken.sol\":10717:10722  owner */\n  dup1\n  0x0\n  swap1\n  sload\n  swap1\n  0x100\n  exp\n  swap1\n  div\n  0xffffffffffffffffffffffffffffffffffffffff\n  and\n    /* \"contracts/TetherToken.sol\":10708:10723  balances[owner] */\n  0xffffffffffffffffffffffffffffffffffffffff\n  and\n  0xffffffffffffffffffffffffffffffffffffffff\n  and\n  dup2\n  mstore\n  0x20\n  add\n  swap1\n  dup2\n  mstore\n  0x20\n  add\n  0x0\n  keccak256\n    /* \"contracts/TetherToken.sol\":10708:10740  balances[owner] = _initialSupply */\n  dup2\n  swap1\n  sstore\n  pop\n    /* \"contracts/TetherToken.sol\":10764:10769  false */\n  0x0\n    /* \"contracts/TetherToken.sol\":10751:10761  deprecated */\n  0xa\n  0x14\n    /* \"contracts/TetherToken.sol\":10751:10769  deprecated = false */\n  0x100\n  exp\n  dup2\n  sload\n  dup2\n  0xff\n  mul\n  not\n  and\n  swap1\n  dup4\n  iszero\n  iszero\n  mul\n  or\n  swap1\n  sstore\n  pop\n    /* \"contracts/TetherToken.sol\":10481:10777  function TetherToken(uint _initialSupply, string _name, string _symbol, uint _decimals) public {\r... */\n  pop\n  pop\n  pop\n  pop\n    /* \"contracts/TetherToken.sol\":9971:14888  contract TetherToken is Pausable, StandardToken, BlackList {\r... */\n  jump(tag_9)\ntag_7:\n  dup3\n  dup1\n  sload\n  0x1\n  dup2\n  0x1\n  and\n  iszero\n  0x100\n  mul\n  sub\n  and\n  0x2\n  swap1\n  div\n  swap1\n  0x0\n  mstore\n  keccak256(0x0, 0x20)\n  swap1\n  0x1f\n  add\n  0x20\n  swap1\n  div\n  dup2\n  add\n  swap3\n  dup3\n  0x1f\n  lt\n  tag_11\n  jumpi\n  dup1\n  mload\n  not(0xff)\n  and\n  dup4\n  dup1\n  add\n  or\n  dup6\n  sstore\n  jump(tag_10)\ntag_11:\n  dup3\n  dup1\n  add\n  0x1\n  add\n  dup6\n  sstore\n  dup3\n  iszero\n  tag_10\n  jumpi\n  swap2\n  dup3\n  add\ntag_12:\n  dup3\n  dup2\n  gt\n  iszero\n  tag_13\n  jumpi\n  dup3\n  mload\n  dup3\n  sstore\n  swap2\n  0x20\n  add\n  swap2\n  swap1\n  0x1\n  add\n  swap1\n  jump(tag_12)\ntag_13:\ntag_10:\n  pop\n  swap1\n  pop\n  tag_14\n  swap2\n  swap1\n  jump\t// in(tag_15)\ntag_14:\n  pop\n  swap1\n  jump\t// out\ntag_15:\n  tag_16\n  swap2\n  swap1\ntag_17:\n  dup1\n  dup3\n  gt\n  iszero\n  tag_18\n  jumpi\n  0x0\n  dup2\n  0x0\n  swap1\n  sstore\n  pop\n  0x1\n  add\n  jump(tag_17)\ntag_18:\n  pop\n  swap1\n  jump\ntag_16:\n  swap1\n  jump\t// out\ntag_9:\n  dataSize(sub_0)\n  dup1\n  dataOffset(sub_0)\n  0x0\n  codecopy\n  0x0\n  return\nstop\n\nsub_0: assembly {\n        /* \"contracts/TetherToken.sol\":9971:14888  contract TetherToken is Pausable, StandardToken, BlackList {\r... */\n      mstore(0x40, 0x60)\n      jumpi(tag_1, lt(calldatasize, 0x4))\n      calldataload(0x0)\n      0x100000000000000000000000000000000000000000000000000000000\n      swap1\n      div\n      0xffffffff\n      and\n      dup1\n      0x6fdde03\n      eq\n      tag_2\n      jumpi\n      dup1\n      0x753c30c\n      eq\n      tag_3\n      jumpi\n      dup1\n      0x95ea7b3\n      eq\n      tag_4\n      jumpi\n      dup1\n      0xe136b19\n      eq\n      tag_5\n      jumpi\n      dup1\n      0xecb93c0\n      eq\n      tag_6\n      jumpi\n      dup1\n      0x18160ddd\n      eq\n      tag_7\n      jumpi\n      dup1\n      0x23b872dd\n      eq\n      tag_8\n      jumpi\n      dup1\n      0x26976e3f\n      eq\n      tag_9\n      jumpi\n      dup1\n      0x27e235e3\n      eq\n      tag_10\n      jumpi\n      dup1\n      0x313ce567\n      eq\n      tag_11\n      jumpi\n      dup1\n      0x35390714\n      eq\n      tag_12\n      jumpi\n      dup1\n      0x3eaaf86b\n      eq\n      tag_13\n      jumpi\n      dup1\n      0x3f4ba83a\n      eq\n      tag_14\n      jumpi\n      dup1\n      0x59bf1abe\n      eq\n      tag_15\n      jumpi\n      dup1\n      0x5c658165\n      eq\n      tag_16\n      jumpi\n      dup1\n      0x5c975abb\n      eq\n      tag_17\n      jumpi\n      dup1\n      0x70a08231\n      eq\n      tag_18\n      jumpi\n      dup1\n      0x8456cb59\n      eq\n      tag_19\n      jumpi\n      dup1\n      0x893d20e8\n      eq\n      tag_20\n      jumpi\n      dup1\n      0x8da5cb5b\n      eq\n      tag_21\n      jumpi\n      dup1\n      0x95d89b41\n      eq\n      tag_22\n      jumpi\n      dup1\n      0xa9059cbb\n      eq\n      tag_23\n      jumpi\n      dup1\n      0xc0324c77\n      eq\n      tag_24\n      jumpi\n      dup1\n      0xcc872b66\n      eq\n      tag_25\n      jumpi\n      dup1\n      0xdb006a75\n      eq\n      tag_26\n      jumpi\n      dup1\n      0xdd62ed3e\n      eq\n      tag_27\n      jumpi\n      dup1\n      0xdd644f72\n      eq\n      tag_28\n      jumpi\n      dup1\n      0xe47d6060\n      eq\n      tag_29\n      jumpi\n      dup1\n      0xe4997dc5\n      eq\n      tag_30\n      jumpi\n      dup1\n      0xe5b5019a\n      eq\n      tag_31\n      jumpi\n      dup1\n      0xf2fde38b\n      eq\n      tag_32\n      jumpi\n      dup1\n      0xf3bdc228\n      eq\n      tag_33\n      jumpi\n    tag_1:\n      0x0\n      dup1\n      revert\n        /* \"contracts/TetherToken.sol\":10039:10057  string public name */\n    tag_2:\n      jumpi(tag_34, iszero(callvalue))\n      0x0\n      dup1\n      revert\n    tag_34:\n      tag_35\n      jump(tag_36)\n    tag_35:\n      mload(0x40)\n      dup1\n      dup1\n      0x20\n      add\n      dup3\n      dup2\n      sub\n      dup3\n      mstore\n      dup4\n      dup2\n      dup2\n      mload\n      dup2\n      mstore\n      0x20\n      add\n      swap2\n      pop\n      dup1\n      mload\n      swap1\n      0x20\n      add\n      swap1\n      dup1\n      dup4\n      dup4\n        /* \"--CODEGEN--\":23:24   */\n      0x0\n        /* \"--CODEGEN--\":8:108   */\n    tag_37:\n        /* \"--CODEGEN--\":33:36   */\n      dup4\n        /* \"--CODEGEN--\":30:31   */\n      dup2\n        /* \"--CODEGEN--\":27:29   */\n      lt\n        /* \"--CODEGEN--\":8:108   */\n      iszero\n      tag_38\n      jumpi\n        /* \"--CODEGEN--\":99:100   */\n      dup1\n        /* \"--CODEGEN--\":94:97   */\n      dup3\n        /* \"--CODEGEN--\":90:93   */\n      add\n        /* \"--CODEGEN--\":84:89   */\n      mload\n        /* \"--CODEGEN--\":80:81   */\n      dup2\n        /* \"--CODEGEN--\":75:78   */\n      dup5\n        /* \"--CODEGEN--\":71:74   */\n      add\n        /* \"--CODEGEN--\":64:70   */\n      mstore\n        /* \"--CODEGEN--\":52:54   */\n      0x20\n        /* \"--CODEGEN--\":49:50   */\n      dup2\n        /* \"--CODEGEN--\":45:48   */\n      add\n        /* \"--CODEGEN--\":40:55   */\n      swap1\n      pop\n        /* \"--CODEGEN--\":8:108   */\n      jump(tag_37)\n    tag_38:\n        /* \"--CODEGEN--\":12:26   */\n      pop\n        /* \"--CODEGEN--\":3:112   */\n      pop\n      pop\n      pop\n      swap1\n      pop\n      swap1\n      dup2\n      add\n      swap1\n      0x1f\n      and\n      dup1\n      iszero\n      tag_40\n      jumpi\n      dup1\n      dup3\n      sub\n      dup1\n      mload\n      0x1\n      dup4\n      0x20\n      sub\n      0x100\n      exp\n      sub\n      not\n      and\n      dup2\n      mstore\n      0x20\n      add\n      swap2\n      pop\n    tag_40:\n      pop\n      swap3\n      pop\n      pop\n      pop\n      mload(0x40)\n      dup1\n      swap2\n      sub\n      swap1\n      return\n        /* \"contracts/TetherToken.sol\":12795:12976  function deprecate(address _upgradedAddress) public onlyOwner {\r... */\n    tag_3:\n      jumpi(tag_41, iszero(callvalue))\n      0x0\n      dup1\n      revert\n    tag_41:\n      tag_42\n      0x4\n      dup1\n      dup1\n      calldataload\n      0xffffffffffffffffffffffffffffffffffffffff\n      and\n      swap1\n      0x20\n      add\n      swap1\n      swap2\n      swap1\n      pop\n      pop\n      jump(tag_43)\n    tag_42:\n      stop\n        /* \"contracts/TetherToken.sol\":12049:12351  function approve(address _spender, uint _value) public onlyPayloadSize(2 * 32) {\r... */\n    tag_4:\n      jumpi(tag_44, iszero(callvalue))\n      0x0\n      dup1\n      revert\n    tag_44:\n      tag_45\n      0x4\n      dup1\n      dup1\n      calldataload\n      0xffffffffffffffffffffffffffffffffffffffff\n      and\n      swap1\n      0x20\n      add\n      swap1\n      swap2\n      swap1\n      dup1\n      calldataload\n      swap1\n      0x20\n      add\n      swap1\n      swap2\n      swap1\n      pop\n      pop\n      jump(tag_46)\n    tag_45:\n      stop\n        /* \"contracts/TetherToken.sol\":10155:10177  bool public deprecated */\n    tag_5:\n      jumpi(tag_47, iszero(callvalue))\n      0x0\n      dup1\n      revert\n    tag_47:\n      tag_48\n      jump(tag_49)\n    tag_48:\n      mload(0x40)\n      dup1\n      dup3\n      iszero\n      iszero\n      iszero\n      iszero\n      dup2\n      mstore\n      0x20\n      add\n      swap2\n      pop\n      pop\n      mload(0x40)\n      dup1\n      swap2\n      sub\n      swap1\n      return\n        /* \"contracts/TetherToken.sol\":8714:8859  function addBlackList (address _evilUser) public onlyOwner {\r... */\n    tag_6:\n      jumpi(tag_50, iszero(callvalue))\n      0x0\n      dup1\n      revert\n    tag_50:\n      tag_51\n      0x4\n      dup1\n      dup1\n      calldataload\n      0xffffffffffffffffffffffffffffffffffffffff\n      and\n      swap1\n      0x20\n      add\n      swap1\n      swap2\n      swap1\n      pop\n      pop\n      jump(tag_52)\n    tag_51:\n      stop\n        /* \"contracts/TetherToken.sol\":13042:13260  function totalSupply() public constant returns (uint) {\r... */\n    tag_7:\n      jumpi(tag_53, iszero(callvalue))\n      0x0\n      dup1\n      revert\n    tag_53:\n      tag_54\n      jump(tag_55)\n    tag_54:\n      mload(0x40)\n      dup1\n      dup3\n      dup2\n      mstore\n      0x20\n      add\n      swap2\n      pop\n      pop\n      mload(0x40)\n      dup1\n      swap2\n      sub\n      swap1\n      return\n        /* \"contracts/TetherToken.sol\":11273:11635  function transferFrom(address _from, address _to, uint _value) public whenNotPaused {\r... */\n    tag_8:\n      jumpi(tag_56, iszero(callvalue))\n      0x0\n      dup1\n      revert\n    tag_56:\n      tag_57\n      0x4\n      dup1\n      dup1\n      calldataload\n      0xffffffffffffffffffffffffffffffffffffffff\n      and\n      swap1\n      0x20\n      add\n      swap1\n      swap2\n      swap1\n      dup1\n      calldataload\n      0xffffffffffffffffffffffffffffffffffffffff\n      and\n      swap1\n      0x20\n      add\n      swap1\n      swap2\n      swap1\n      dup1\n      calldataload\n      swap1\n      0x20\n      add\n      swap1\n      swap2\n      swap1\n      pop\n      pop\n      jump(tag_58)\n    tag_57:\n      stop\n        /* \"contracts/TetherToken.sol\":10118:10148  address public upgradedAddress */\n    tag_9:\n      jumpi(tag_59, iszero(callvalue))\n      0x0\n      dup1\n      revert\n    tag_59:\n      tag_60\n      jump(tag_61)\n    tag_60:\n      mload(0x40)\n      dup1\n      dup3\n      0xffffffffffffffffffffffffffffffffffffffff\n      and\n      0xffffffffffffffffffffffffffffffffffffffff\n      and\n      dup2\n      mstore\n      0x20\n      add\n      swap2\n      pop\n      pop\n      mload(0x40)\n      dup1\n      swap2\n      sub\n      swap1\n      return\n        /* \"contracts/TetherToken.sol\":2951:2991  mapping(address => uint) public balances */\n    tag_10:\n      jumpi(tag_62, iszero(callvalue))\n      0x0\n      dup1\n      revert\n    tag_62:\n      tag_63\n      0x4\n      dup1\n      dup1\n      calldataload\n      0xffffffffffffffffffffffffffffffffffffffff\n      and\n      swap1\n      0x20\n      add\n      swap1\n      swap2\n      swap1\n      pop\n      pop\n      jump(tag_64)\n    tag_63:\n      mload(0x40)\n      dup1\n      dup3\n      dup2\n      mstore\n      0x20\n      add\n      swap2\n      pop\n      pop\n      mload(0x40)\n      dup1\n      swap2\n      sub\n      swap1\n      return\n        /* \"contracts/TetherToken.sol\":10091:10111  uint public decimals */\n    tag_11:\n      jumpi(tag_65, iszero(callvalue))\n      0x0\n      dup1\n      revert\n    tag_65:\n      tag_66\n      jump(tag_67)\n    tag_66:\n      mload(0x40)\n      dup1\n      dup3\n      dup2\n      mstore\n      0x20\n      add\n      swap2\n      pop\n      pop\n      mload(0x40)\n      dup1\n      swap2\n      sub\n      swap1\n      return\n        /* \"contracts/TetherToken.sol\":3117:3143  uint public maximumFee = 0 */\n    tag_12:\n      jumpi(tag_68, iszero(callvalue))\n      0x0\n      dup1\n      revert\n    tag_68:\n      tag_69\n      jump(tag_70)\n    tag_69:\n      mload(0x40)\n      dup1\n      dup3\n      dup2\n      mstore\n      0x20\n      add\n      swap2\n      pop\n      pop\n      mload(0x40)\n      dup1\n      swap2\n      sub\n      swap1\n      return\n        /* \"contracts/TetherToken.sol\":2053:2077  uint public _totalSupply */\n    tag_13:\n      jumpi(tag_71, iszero(callvalue))\n      0x0\n      dup1\n      revert\n    tag_71:\n      tag_72\n      jump(tag_73)\n    tag_72:\n      mload(0x40)\n      dup1\n      dup3\n      dup2\n      mstore\n      0x20\n      add\n      swap2\n      pop\n      pop\n      mload(0x40)\n      dup1\n      swap2\n      sub\n      swap1\n      return\n        /* \"contracts/TetherToken.sol\":8160:8250  function unpause() onlyOwner whenPaused public {\r... */\n    tag_14:\n      jumpi(tag_74, iszero(callvalue))\n      0x0\n      dup1\n      revert\n    tag_74:\n      tag_75\n      jump(tag_76)\n    tag_75:\n      stop\n        /* \"contracts/TetherToken.sol\":8428:8552  function getBlackListStatus(address _maker) external constant returns (bool) {\r... */\n    tag_15:\n      jumpi(tag_77, iszero(callvalue))\n      0x0\n      dup1\n      revert\n    tag_77:\n      tag_78\n      0x4\n      dup1\n      dup1\n      calldataload\n      0xffffffffffffffffffffffffffffffffffffffff\n      and\n      swap1\n      0x20\n      add\n      swap1\n      swap2\n      swap1\n      pop\n      pop\n      jump(tag_79)\n    tag_78:\n      mload(0x40)\n      dup1\n      dup3\n      iszero\n      iszero\n      iszero\n      iszero\n      dup2\n      mstore\n      0x20\n      add\n      swap2\n      pop\n      pop\n      mload(0x40)\n      dup1\n      swap2\n      sub\n      swap1\n      return\n        /* \"contracts/TetherToken.sol\":4741:4802  mapping (address => mapping (address => uint)) public allowed */\n    tag_16:\n      jumpi(tag_80, iszero(callvalue))\n      0x0\n      dup1\n      revert\n    tag_80:\n      tag_81\n      0x4\n      dup1\n      dup1\n      calldataload\n      0xffffffffffffffffffffffffffffffffffffffff\n      and\n      swap1\n      0x20\n      add\n      swap1\n      swap2\n      swap1\n      dup1\n      calldataload\n      0xffffffffffffffffffffffffffffffffffffffff\n      and\n      swap1\n      0x20\n      add\n      swap1\n      swap2\n      swap1\n      pop\n      pop\n      jump(tag_82)\n    tag_81:\n      mload(0x40)\n      dup1\n      dup3\n      dup2\n      mstore\n      0x20\n      add\n      swap2\n      pop\n      pop\n      mload(0x40)\n      dup1\n      swap2\n      sub\n      swap1\n      return\n        /* \"contracts/TetherToken.sol\":7544:7570  bool public paused = false */\n    tag_17:\n      jumpi(tag_83, iszero(callvalue))\n      0x0\n      dup1\n      revert\n    tag_83:\n      tag_84\n      jump(tag_85)\n    tag_84:\n      mload(0x40)\n      dup1\n      dup3\n      iszero\n      iszero\n      iszero\n      iszero\n      dup2\n      mstore\n      0x20\n      add\n      swap2\n      pop\n      pop\n      mload(0x40)\n      dup1\n      swap2\n      sub\n      swap1\n      return\n        /* \"contracts/TetherToken.sol\":11720:11964  function balanceOf(address who) public constant returns (uint) {\r... */\n    tag_18:\n      jumpi(tag_86, iszero(callvalue))\n      0x0\n      dup1\n      revert\n    tag_86:\n      tag_87\n      0x4\n      dup1\n      dup1\n      calldataload\n      0xffffffffffffffffffffffffffffffffffffffff\n      and\n      swap1\n      0x20\n      add\n      swap1\n      swap2\n      swap1\n      pop\n      pop\n      jump(tag_88)\n    tag_87:\n      mload(0x40)\n      dup1\n      dup3\n      dup2\n      mstore\n      0x20\n      add\n      swap2\n      pop\n      pop\n      mload(0x40)\n      dup1\n      swap2\n      sub\n      swap1\n      return\n        /* \"contracts/TetherToken.sol\":7985:8073  function pause() onlyOwner whenNotPaused public {\r... */\n    tag_19:\n      jumpi(tag_89, iszero(callvalue))\n      0x0\n      dup1\n      revert\n    tag_89:\n      tag_90\n      jump(tag_91)\n    tag_90:\n      stop\n        /* \"contracts/TetherToken.sol\":8560:8647  function getOwner() external constant returns (address) {\r... */\n    tag_20:\n      jumpi(tag_92, iszero(callvalue))\n      0x0\n      dup1\n      revert\n    tag_92:\n      tag_93\n      jump(tag_94)\n    tag_93:\n      mload(0x40)\n      dup1\n      dup3\n      0xffffffffffffffffffffffffffffffffffffffff\n      and\n      0xffffffffffffffffffffffffffffffffffffffff\n      and\n      dup2\n      mstore\n      0x20\n      add\n      swap2\n      pop\n      pop\n      mload(0x40)\n      dup1\n      swap2\n      sub\n      swap1\n      return\n        /* \"contracts/TetherToken.sol\":1162:1182  address public owner */\n    tag_21:\n      jumpi(tag_95, iszero(callvalue))\n      0x0\n      dup1\n      revert\n    tag_95:\n      tag_96\n      jump(tag_97)\n    tag_96:\n      mload(0x40)\n      dup1\n      dup3\n      0xffffffffffffffffffffffffffffffffffffffff\n      and\n      0xffffffffffffffffffffffffffffffffffffffff\n      and\n      dup2\n      mstore\n      0x20\n      add\n      swap2\n      pop\n      pop\n      mload(0x40)\n      dup1\n      swap2\n      sub\n      swap1\n      return\n        /* \"contracts/TetherToken.sol\":10064:10084  string public symbol */\n    tag_22:\n      jumpi(tag_98, iszero(callvalue))\n      0x0\n      dup1\n      revert\n    tag_98:\n      tag_99\n      jump(tag_100)\n    tag_99:\n      mload(0x40)\n      dup1\n      dup1\n      0x20\n      add\n      dup3\n      dup2\n      sub\n      dup3\n      mstore\n      dup4\n      dup2\n      dup2\n      mload\n      dup2\n      mstore\n      0x20\n      add\n      swap2\n      pop\n      dup1\n      mload\n      swap1\n      0x20\n      add\n      swap1\n      dup1\n      dup4\n      dup4\n        /* \"--CODEGEN--\":23:24   */\n      0x0\n        /* \"--CODEGEN--\":8:108   */\n    tag_101:\n        /* \"--CODEGEN--\":33:36   */\n      dup4\n        /* \"--CODEGEN--\":30:31   */\n      dup2\n        /* \"--CODEGEN--\":27:29   */\n      lt\n        /* \"--CODEGEN--\":8:108   */\n      iszero\n      tag_102\n      jumpi\n        /* \"--CODEGEN--\":99:100   */\n      dup1\n        /* \"--CODEGEN--\":94:97   */\n      dup3\n        /* \"--CODEGEN--\":90:93   */\n      add\n        /* \"--CODEGEN--\":84:89   */\n      mload\n        /* \"--CODEGEN--\":80:81   */\n      dup2\n        /* \"--CODEGEN--\":75:78   */\n      dup5\n        /* \"--CODEGEN--\":71:74   */\n      add\n        /* \"--CODEGEN--\":64:70   */\n      mstore\n        /* \"--CODEGEN--\":52:54   */\n      0x20\n        /* \"--CODEGEN--\":49:50   */\n      dup2\n        /* \"--CODEGEN--\":45:48   */\n      add\n        /* \"--CODEGEN--\":40:55   */\n      swap1\n      pop\n        /* \"--CODEGEN--\":8:108   */\n      jump(tag_101)\n    tag_102:\n        /* \"--CODEGEN--\":12:26   */\n      pop\n        /* \"--CODEGEN--\":3:112   */\n      pop\n      pop\n      pop\n      swap1\n      pop\n      swap1\n      dup2\n      add\n      swap1\n      0x1f\n      and\n      dup1\n      iszero\n      tag_104\n      jumpi\n      dup1\n      dup3\n      sub\n      dup1\n      mload\n      0x1\n      dup4\n      0x20\n      sub\n      0x100\n      exp\n      sub\n      not\n      and\n      dup2\n      mstore\n      0x20\n      add\n      swap2\n      pop\n    tag_104:\n      pop\n      swap3\n      pop\n      pop\n      pop\n      mload(0x40)\n      dup1\n      swap2\n      sub\n      swap1\n      return\n        /* \"contracts/TetherToken.sol\":10862:11188  function transfer(address _to, uint _value) public whenNotPaused {\r... */\n    tag_23:\n      jumpi(tag_105, iszero(callvalue))\n      0x0\n      dup1\n      revert\n    tag_105:\n      tag_106\n      0x4\n      dup1\n      dup1\n      calldataload\n      0xffffffffffffffffffffffffffffffffffffffff\n      and\n      swap1\n      0x20\n      add\n      swap1\n      swap2\n      swap1\n      dup1\n      calldataload\n      swap1\n      0x20\n      add\n      swap1\n      swap2\n      swap1\n      pop\n      pop\n      jump(tag_107)\n    tag_106:\n      stop\n        /* \"contracts/TetherToken.sol\":14166:14553  function setParams(uint newBasisPoints, uint newMaxFee) public onlyOwner {\r... */\n    tag_24:\n      jumpi(tag_108, iszero(callvalue))\n      0x0\n      dup1\n      revert\n    tag_108:\n      tag_109\n      0x4\n      dup1\n      dup1\n      calldataload\n      swap1\n      0x20\n      add\n      swap1\n      swap2\n      swap1\n      dup1\n      calldataload\n      swap1\n      0x20\n      add\n      swap1\n      swap2\n      swap1\n      pop\n      pop\n      jump(tag_110)\n    tag_109:\n      stop\n        /* \"contracts/TetherToken.sol\":13424:13690  function issue(uint amount) public onlyOwner {\r... */\n    tag_25:\n      jumpi(tag_111, iszero(callvalue))\n      0x0\n      dup1\n      revert\n    tag_111:\n      tag_112\n      0x4\n      dup1\n      dup1\n      calldataload\n      swap1\n      0x20\n      add\n      swap1\n      swap2\n      swap1\n      pop\n      pop\n      jump(tag_113)\n    tag_112:\n      stop\n        /* \"contracts/TetherToken.sol\":13921:14158  function redeem(uint amount) public onlyOwner {\r... */\n    tag_26:\n      jumpi(tag_114, iszero(callvalue))\n      0x0\n      dup1\n      revert\n    tag_114:\n      tag_115\n      0x4\n      dup1\n      dup1\n      calldataload\n      swap1\n      0x20\n      add\n      swap1\n      swap2\n      swap1\n      pop\n      pop\n      jump(tag_116)\n    tag_115:\n      stop\n        /* \"contracts/TetherToken.sol\":12436:12729  function allowance(address _owner, address _spender) public constant returns (uint remaining) {\r... */\n    tag_27:\n      jumpi(tag_117, iszero(callvalue))\n      0x0\n      dup1\n      revert\n    tag_117:\n      tag_118\n      0x4\n      dup1\n      dup1\n      calldataload\n      0xffffffffffffffffffffffffffffffffffffffff\n      and\n      swap1\n      0x20\n      add\n      swap1\n      swap2\n      swap1\n      dup1\n      calldataload\n      0xffffffffffffffffffffffffffffffffffffffff\n      and\n      swap1\n      0x20\n      add\n      swap1\n      swap2\n      swap1\n      pop\n      pop\n      jump(tag_119)\n    tag_118:\n      mload(0x40)\n      dup1\n      dup3\n      dup2\n      mstore\n      0x20\n      add\n      swap2\n      pop\n      pop\n      mload(0x40)\n      dup1\n      swap2\n      sub\n      swap1\n      return\n        /* \"contracts/TetherToken.sol\":3079:3110  uint public basisPointsRate = 0 */\n    tag_28:\n      jumpi(tag_120, iszero(callvalue))\n      0x0\n      dup1\n      revert\n    tag_120:\n      tag_121\n      jump(tag_122)\n    tag_121:\n      mload(0x40)\n      dup1\n      dup3\n      dup2\n      mstore\n      0x20\n      add\n      swap2\n      pop\n      pop\n      mload(0x40)\n      dup1\n      swap2\n      sub\n      swap1\n      return\n        /* \"contracts/TetherToken.sol\":8655:8701  mapping (address => bool) public isBlackListed */\n    tag_29:\n      jumpi(tag_123, iszero(callvalue))\n      0x0\n      dup1\n      revert\n    tag_123:\n      tag_124\n      0x4\n      dup1\n      dup1\n      calldataload\n      0xffffffffffffffffffffffffffffffffffffffff\n      and\n      swap1\n      0x20\n      add\n      swap1\n      swap2\n      swap1\n      pop\n      pop\n      jump(tag_125)\n    tag_124:\n      mload(0x40)\n      dup1\n      dup3\n      iszero\n      iszero\n      iszero\n      iszero\n      dup2\n      mstore\n      0x20\n      add\n      swap2\n      pop\n      pop\n      mload(0x40)\n      dup1\n      swap2\n      sub\n      swap1\n      return\n        /* \"contracts/TetherToken.sol\":8867:9027  function removeBlackList (address _clearedUser) public onlyOwner {\r... */\n    tag_30:\n      jumpi(tag_126, iszero(callvalue))\n      0x0\n      dup1\n      revert\n    tag_126:\n      tag_127\n      0x4\n      dup1\n      dup1\n      calldataload\n      0xffffffffffffffffffffffffffffffffffffffff\n      and\n      swap1\n      0x20\n      add\n      swap1\n      swap2\n      swap1\n      pop\n      pop\n      jump(tag_128)\n    tag_127:\n      stop\n        /* \"contracts/TetherToken.sol\":4811:4853  uint public constant MAX_UINT = 2**256 - 1 */\n    tag_31:\n      jumpi(tag_129, iszero(callvalue))\n      0x0\n      dup1\n      revert\n    tag_129:\n      tag_130\n      jump(tag_131)\n    tag_130:\n      mload(0x40)\n      dup1\n      dup3\n      dup2\n      mstore\n      0x20\n      add\n      swap2\n      pop\n      pop\n      mload(0x40)\n      dup1\n      swap2\n      sub\n      swap1\n      return\n        /* \"contracts/TetherToken.sol\":1734:1885  function transferOwnership(address newOwner) public onlyOwner {\r... */\n    tag_32:\n      jumpi(tag_132, iszero(callvalue))\n      0x0\n      dup1\n      revert\n    tag_132:\n      tag_133\n      0x4\n      dup1\n      dup1\n      calldataload\n      0xffffffffffffffffffffffffffffffffffffffff\n      and\n      swap1\n      0x20\n      add\n      swap1\n      swap2\n      swap1\n      pop\n      pop\n      jump(tag_134)\n    tag_133:\n      stop\n        /* \"contracts/TetherToken.sol\":9035:9359  function destroyBlackFunds (address _blackListedUser) public onlyOwner {\r... */\n    tag_33:\n      jumpi(tag_135, iszero(callvalue))\n      0x0\n      dup1\n      revert\n    tag_135:\n      tag_136\n      0x4\n      dup1\n      dup1\n      calldataload\n      0xffffffffffffffffffffffffffffffffffffffff\n      and\n      swap1\n      0x20\n      add\n      swap1\n      swap2\n      swap1\n      pop\n      pop\n      jump(tag_137)\n    tag_136:\n      stop\n        /* \"contracts/TetherToken.sol\":10039:10057  string public name */\n    tag_36:\n      0x7\n      dup1\n      sload\n      0x1\n      dup2\n      0x1\n      and\n      iszero\n      0x100\n      mul\n      sub\n      and\n      0x2\n      swap1\n      div\n      dup1\n      0x1f\n      add\n      0x20\n      dup1\n      swap2\n      div\n      mul\n      0x20\n      add\n      mload(0x40)\n      swap1\n      dup2\n      add\n      0x40\n      mstore\n      dup1\n      swap3\n      swap2\n      swap1\n      dup2\n      dup2\n      mstore\n      0x20\n      add\n      dup3\n      dup1\n      sload\n      0x1\n      dup2\n      0x1\n      and\n      iszero\n      0x100\n      mul\n      sub\n      and\n      0x2\n      swap1\n      div\n      dup1\n      iszero\n      tag_138\n      jumpi\n      dup1\n      0x1f\n      lt\n      tag_139\n      jumpi\n      0x100\n      dup1\n      dup4\n      sload\n      div\n      mul\n      dup4\n      mstore\n      swap2\n      0x20\n      add\n      swap2\n      jump(tag_138)\n    tag_139:\n      dup3\n      add\n      swap2\n      swap1\n      0x0\n      mstore\n      keccak256(0x0, 0x20)\n      swap1\n    tag_140:\n      dup2\n      sload\n      dup2\n      mstore\n      swap1\n      0x1\n      add\n      swap1\n      0x20\n      add\n      dup1\n      dup4\n      gt\n      tag_140\n      jumpi\n      dup3\n      swap1\n      sub\n      0x1f\n      and\n      dup3\n      add\n      swap2\n    tag_138:\n      pop\n      pop\n      pop\n      pop\n      pop\n      dup2\n      jump\t// out\n        /* \"contracts/TetherToken.sol\":12795:12976  function deprecate(address _upgradedAddress) public onlyOwner {\r... */\n    tag_43:\n        /* \"contracts/TetherToken.sol\":1534:1539  owner */\n      0x0\n      dup1\n      swap1\n      sload\n      swap1\n      0x100\n      exp\n      swap1\n      div\n      0xffffffffffffffffffffffffffffffffffffffff\n      and\n        /* \"contracts/TetherToken.sol\":1520:1539  msg.sender == owner */\n      0xffffffffffffffffffffffffffffffffffffffff\n      and\n        /* \"contracts/TetherToken.sol\":1520:1530  msg.sender */\n      caller\n        /* \"contracts/TetherToken.sol\":1520:1539  msg.sender == owner */\n      0xffffffffffffffffffffffffffffffffffffffff\n      and\n      eq\n        /* \"contracts/TetherToken.sol\":1512:1540  require(msg.sender == owner) */\n      iszero\n      iszero\n      tag_142\n      jumpi\n      0x0\n      dup1\n      revert\n    tag_142:\n        /* \"contracts/TetherToken.sol\":12881:12885  true */\n      0x1\n        /* \"contracts/TetherToken.sol\":12868:12878  deprecated */\n      0xa\n      0x14\n        /* \"contracts/TetherToken.sol\":12868:12885  deprecated = true */\n      0x100\n      exp\n      dup2\n      sload\n      dup2\n      0xff\n      mul\n      not\n      and\n      swap1\n      dup4\n      iszero\n      iszero\n      mul\n      or\n      swap1\n      sstore\n      pop\n        /* \"contracts/TetherToken.sol\":12914:12930  _upgradedAddress */\n      dup1\n        /* \"contracts/TetherToken.sol\":12896:12911  upgradedAddress */\n      0xa\n      0x0\n        /* \"contracts/TetherToken.sol\":12896:12930  upgradedAddress = _upgradedAddress */\n      0x100\n      exp\n      dup2\n      sload\n      dup2\n      0xffffffffffffffffffffffffffffffffffffffff\n      mul\n      not\n      and\n      swap1\n      dup4\n      0xffffffffffffffffffffffffffffffffffffffff\n      and\n      mul\n      or\n      swap1\n      sstore\n      pop\n        /* \"contracts/TetherToken.sol\":12941:12968  Deprecate(_upgradedAddress) */\n      0xcc358699805e9a8b7f77b522628c7cb9abd07d9efb86b6fb616af1609036a99e\n        /* \"contracts/TetherToken.sol\":12951:12967  _upgradedAddress */\n      dup2\n        /* \"contracts/TetherToken.sol\":12941:12968  Deprecate(_upgradedAddress) */\n      mload(0x40)\n      dup1\n      dup3\n      0xffffffffffffffffffffffffffffffffffffffff\n      and\n      0xffffffffffffffffffffffffffffffffffffffff\n      and\n      dup2\n      mstore\n      0x20\n      add\n      swap2\n      pop\n      pop\n      mload(0x40)\n      dup1\n      swap2\n      sub\n      swap1\n      log1\n        /* \"contracts/TetherToken.sol\":12795:12976  function deprecate(address _upgradedAddress) public onlyOwner {\r... */\n      pop\n      jump\t// out\n        /* \"contracts/TetherToken.sol\":12049:12351  function approve(address _spender, uint _value) public onlyPayloadSize(2 * 32) {\r... */\n    tag_46:\n        /* \"contracts/TetherToken.sol\":12120:12126  2 * 32 */\n      0x40\n        /* \"contracts/TetherToken.sol\":3303:3304  4 */\n      0x4\n        /* \"contracts/TetherToken.sol\":3296:3300  size */\n      dup2\n        /* \"contracts/TetherToken.sol\":3296:3304  size + 4 */\n      add\n        /* \"contracts/TetherToken.sol\":3278:3286  msg.data */\n      0x0\n      calldatasize\n        /* \"contracts/TetherToken.sol\":3278:3293  msg.data.length */\n      swap1\n      pop\n        /* \"contracts/TetherToken.sol\":3278:3304  msg.data.length < size + 4 */\n      lt\n        /* \"contracts/TetherToken.sol\":3276:3305  !(msg.data.length < size + 4) */\n      iszero\n        /* \"contracts/TetherToken.sol\":3268:3306  require(!(msg.data.length < size + 4)) */\n      iszero\n      iszero\n      tag_145\n      jumpi\n      0x0\n      dup1\n      revert\n    tag_145:\n        /* \"contracts/TetherToken.sol\":12143:12153  deprecated */\n      0xa\n      0x14\n      swap1\n      sload\n      swap1\n      0x100\n      exp\n      swap1\n      div\n      0xff\n      and\n        /* \"contracts/TetherToken.sol\":12139:12344  if (deprecated) {\r... */\n      iszero\n      tag_147\n      jumpi\n        /* \"contracts/TetherToken.sol\":12199:12214  upgradedAddress */\n      0xa\n      0x0\n      swap1\n      sload\n      swap1\n      0x100\n      exp\n      swap1\n      div\n      0xffffffffffffffffffffffffffffffffffffffff\n      and\n        /* \"contracts/TetherToken.sol\":12177:12231  UpgradedStandardToken(upgradedAddress).approveByLegacy */\n      0xffffffffffffffffffffffffffffffffffffffff\n      and\n      0xaee92d33\n        /* \"contracts/TetherToken.sol\":12232:12242  msg.sender */\n      caller\n        /* \"contracts/TetherToken.sol\":12244:12252  _spender */\n      dup6\n        /* \"contracts/TetherToken.sol\":12254:12260  _value */\n      dup6\n        /* \"contracts/TetherToken.sol\":12177:12261  UpgradedStandardToken(upgradedAddress).approveByLegacy(msg.sender, _spender, _value) */\n      mload(0x40)\n      dup5\n      0xffffffff\n      and\n      0x100000000000000000000000000000000000000000000000000000000\n      mul\n      dup2\n      mstore\n      0x4\n      add\n      dup1\n      dup5\n      0xffffffffffffffffffffffffffffffffffffffff\n      and\n      0xffffffffffffffffffffffffffffffffffffffff\n      and\n      dup2\n      mstore\n      0x20\n      add\n      dup4\n      0xffffffffffffffffffffffffffffffffffffffff\n      and\n      0xffffffffffffffffffffffffffffffffffffffff\n      and\n      dup2\n      mstore\n      0x20\n      add\n      dup3\n      dup2\n      mstore\n      0x20\n      add\n      swap4\n      pop\n      pop\n      pop\n      pop\n      0x0\n      mload(0x40)\n      dup1\n      dup4\n      sub\n      dup2\n      0x0\n      dup8\n      dup1\n      extcodesize\n      iszero\n      iszero\n      tag_148\n      jumpi\n      0x0\n      dup1\n      revert\n    tag_148:\n      sub(gas, 0x2c6)\n      call\n      iszero\n      iszero\n      tag_149\n      jumpi\n      0x0\n      dup1\n      revert\n    tag_149:\n      pop\n      pop\n      pop\n        /* \"contracts/TetherToken.sol\":12170:12261  return UpgradedStandardToken(upgradedAddress).approveByLegacy(msg.sender, _spender, _value) */\n      jump(tag_146)\n        /* \"contracts/TetherToken.sol\":12139:12344  if (deprecated) {\r... */\n    tag_147:\n        /* \"contracts/TetherToken.sol\":12301:12332  super.approve(_spender, _value) */\n      tag_151\n        /* \"contracts/TetherToken.sol\":12315:12323  _spender */\n      dup4\n        /* \"contracts/TetherToken.sol\":12325:12331  _value */\n      dup4\n        /* \"contracts/TetherToken.sol\":12301:12314  super.approve */\n      tag_152\n        /* \"contracts/TetherToken.sol\":12301:12332  super.approve(_spender, _value) */\n      jump\t// in\n    tag_151:\n        /* \"contracts/TetherToken.sol\":3317:3318  _ */\n    tag_146:\n        /* \"contracts/TetherToken.sol\":12049:12351  function approve(address _spender, uint _value) public onlyPayloadSize(2 * 32) {\r... */\n      pop\n      pop\n      pop\n      jump\t// out\n        /* \"contracts/TetherToken.sol\":10155:10177  bool public deprecated */\n    tag_49:\n      0xa\n      0x14\n      swap1\n      sload\n      swap1\n      0x100\n      exp\n      swap1\n      div\n      0xff\n      and\n      dup2\n      jump\t// out\n        /* \"contracts/TetherToken.sol\":8714:8859  function addBlackList (address _evilUser) public onlyOwner {\r... */\n    tag_52:\n        /* \"contracts/TetherToken.sol\":1534:1539  owner */\n      0x0\n      dup1\n      swap1\n      sload\n      swap1\n      0x100\n      exp\n      swap1\n      div\n      0xffffffffffffffffffffffffffffffffffffffff\n      and\n        /* \"contracts/TetherToken.sol\":1520:1539  msg.sender == owner */\n      0xffffffffffffffffffffffffffffffffffffffff\n      and\n        /* \"contracts/TetherToken.sol\":1520:1530  msg.sender */\n      caller\n        /* \"contracts/TetherToken.sol\":1520:1539  msg.sender == owner */\n      0xffffffffffffffffffffffffffffffffffffffff\n      and\n      eq\n        /* \"contracts/TetherToken.sol\":1512:1540  require(msg.sender == owner) */\n      iszero\n      iszero\n      tag_154\n      jumpi\n      0x0\n      dup1\n      revert\n    tag_154:\n        /* \"contracts/TetherToken.sol\":8811:8815  true */\n      0x1\n        /* \"contracts/TetherToken.sol\":8784:8797  isBlackListed */\n      0x6\n        /* \"contracts/TetherToken.sol\":8784:8808  isBlackListed[_evilUser] */\n      0x0\n        /* \"contracts/TetherToken.sol\":8798:8807  _evilUser */\n      dup4\n        /* \"contracts/TetherToken.sol\":8784:8808  isBlackListed[_evilUser] */\n      0xffffffffffffffffffffffffffffffffffffffff\n      and\n      0xffffffffffffffffffffffffffffffffffffffff\n      and\n      dup2\n      mstore\n      0x20\n      add\n      swap1\n      dup2\n      mstore\n      0x20\n      add\n      0x0\n      keccak256\n      0x0\n        /* \"contracts/TetherToken.sol\":8784:8815  isBlackListed[_evilUser] = true */\n      0x100\n      exp\n      dup2\n      sload\n      dup2\n      0xff\n      mul\n      not\n      and\n      swap1\n      dup4\n      iszero\n      iszero\n      mul\n      or\n      swap1\n      sstore\n      pop\n        /* \"contracts/TetherToken.sol\":8826:8851  AddedBlackList(_evilUser) */\n      0x42e160154868087d6bfdc0ca23d96a1c1cfa32f1b72ba9ba27b69b98a0d819dc\n        /* \"contracts/TetherToken.sol\":8841:8850  _evilUser */\n      dup2\n        /* \"contracts/TetherToken.sol\":8826:8851  AddedBlackList(_evilUser) */\n      mload(0x40)\n      dup1\n      dup3\n      0xffffffffffffffffffffffffffffffffffffffff\n      and\n      0xffffffffffffffffffffffffffffffffffffffff\n      and\n      dup2\n      mstore\n      0x20\n      add\n      swap2\n      pop\n      pop\n      mload(0x40)\n      dup1\n      swap2\n      sub\n      swap1\n      log1\n        /* \"contracts/TetherToken.sol\":8714:8859  function addBlackList (address _evilUser) public onlyOwner {\r... */\n      pop\n      jump\t// out\n        /* \"contracts/TetherToken.sol\":13042:13260  function totalSupply() public constant returns (uint) {\r... */\n    tag_55:\n        /* \"contracts/TetherToken.sol\":13090:13094  uint */\n      0x0\n        /* \"contracts/TetherToken.sol\":13111:13121  deprecated */\n      0xa\n      0x14\n      swap1\n      sload\n      swap1\n      0x100\n      exp\n      swap1\n      div\n      0xff\n      and\n        /* \"contracts/TetherToken.sol\":13107:13253  if (deprecated) {\r... */\n      iszero\n      tag_157\n      jumpi\n        /* \"contracts/TetherToken.sol\":13159:13174  upgradedAddress */\n      0xa\n      0x0\n      swap1\n      sload\n      swap1\n      0x100\n      exp\n      swap1\n      div\n      0xffffffffffffffffffffffffffffffffffffffff\n      and\n        /* \"contracts/TetherToken.sol\":13145:13187  StandardToken(upgradedAddress).totalSupply */\n      0xffffffffffffffffffffffffffffffffffffffff\n      and\n      0x18160ddd\n        /* \"contracts/TetherToken.sol\":13145:13189  StandardToken(upgradedAddress).totalSupply() */\n      mstore(add(0x20, mload(0x40)), 0x0)\n      mload(0x40)\n      dup2\n      0xffffffff\n      and\n      0x100000000000000000000000000000000000000000000000000000000\n      mul\n      dup2\n      mstore\n      0x4\n      add\n      0x20\n      mload(0x40)\n      dup1\n      dup4\n      sub\n      dup2\n      0x0\n      dup8\n      dup1\n      extcodesize\n      iszero\n      iszero\n      tag_158\n      jumpi\n      0x0\n      dup1\n      revert\n    tag_158:\n      sub(gas, 0x2c6)\n      call\n      iszero\n      iszero\n      tag_159\n      jumpi\n      0x0\n      dup1\n      revert\n    tag_159:\n      pop\n      pop\n      pop\n      mload(0x40)\n      dup1\n      mload\n      swap1\n      pop\n        /* \"contracts/TetherToken.sol\":13138:13189  return StandardToken(upgradedAddress).totalSupply() */\n      swap1\n      pop\n      jump(tag_156)\n        /* \"contracts/TetherToken.sol\":13107:13253  if (deprecated) {\r... */\n    tag_157:\n        /* \"contracts/TetherToken.sol\":13229:13241  _totalSupply */\n      sload(0x1)\n        /* \"contracts/TetherToken.sol\":13222:13241  return _totalSupply */\n      swap1\n      pop\n        /* \"contracts/TetherToken.sol\":13042:13260  function totalSupply() public constant returns (uint) {\r... */\n    tag_156:\n      swap1\n      jump\t// out\n        /* \"contracts/TetherToken.sol\":11273:11635  function transferFrom(address _from, address _to, uint _value) public whenNotPaused {\r... */\n    tag_58:\n        /* \"contracts/TetherToken.sol\":7720:7726  paused */\n      0x0\n      0x14\n      swap1\n      sload\n      swap1\n      0x100\n      exp\n      swap1\n      div\n      0xff\n      and\n        /* \"contracts/TetherToken.sol\":7719:7726  !paused */\n      iszero\n        /* \"contracts/TetherToken.sol\":7711:7727  require(!paused) */\n      iszero\n      iszero\n      tag_162\n      jumpi\n      0x0\n      dup1\n      revert\n    tag_162:\n        /* \"contracts/TetherToken.sol\":11377:11390  isBlackListed */\n      0x6\n        /* \"contracts/TetherToken.sol\":11377:11397  isBlackListed[_from] */\n      0x0\n        /* \"contracts/TetherToken.sol\":11391:11396  _from */\n      dup5\n        /* \"contracts/TetherToken.sol\":11377:11397  isBlackListed[_from] */\n      0xffffffffffffffffffffffffffffffffffffffff\n      and\n      0xffffffffffffffffffffffffffffffffffffffff\n      and\n      dup2\n      mstore\n      0x20\n      add\n      swap1\n      dup2\n      mstore\n      0x20\n      add\n      0x0\n      keccak256\n      0x0\n      swap1\n      sload\n      swap1\n      0x100\n      exp\n      swap1\n      div\n      0xff\n      and\n        /* \"contracts/TetherToken.sol\":11376:11397  !isBlackListed[_from] */\n      iszero\n        /* \"contracts/TetherToken.sol\":11368:11398  require(!isBlackListed[_from]) */\n      iszero\n      iszero\n      tag_164\n      jumpi\n      0x0\n      dup1\n      revert\n    tag_164:\n        /* \"contracts/TetherToken.sol\":11413:11423  deprecated */\n      0xa\n      0x14\n      swap1\n      sload\n      swap1\n      0x100\n      exp\n      swap1\n      div\n      0xff\n      and\n        /* \"contracts/TetherToken.sol\":11409:11628  if (deprecated) {\r... */\n      iszero\n      tag_165\n      jumpi\n        /* \"contracts/TetherToken.sol\":11469:11484  upgradedAddress */\n      0xa\n      0x0\n      swap1\n      sload\n      swap1\n      0x100\n      exp\n      swap1\n      div\n      0xffffffffffffffffffffffffffffffffffffffff\n      and\n        /* \"contracts/TetherToken.sol\":11447:11506  UpgradedStandardToken(upgradedAddress).transferFromByLegacy */\n      0xffffffffffffffffffffffffffffffffffffffff\n      and\n      0x8b477adb\n        /* \"contracts/TetherToken.sol\":11507:11517  msg.sender */\n      caller\n        /* \"contracts/TetherToken.sol\":11519:11524  _from */\n      dup6\n        /* \"contracts/TetherToken.sol\":11526:11529  _to */\n      dup6\n        /* \"contracts/TetherToken.sol\":11531:11537  _value */\n      dup6\n        /* \"contracts/TetherToken.sol\":11447:11538  UpgradedStandardToken(upgradedAddress).transferFromByLegacy(msg.sender, _from, _to, _value) */\n      mload(0x40)\n      dup6\n      0xffffffff\n      and\n      0x100000000000000000000000000000000000000000000000000000000\n      mul\n      dup2\n      mstore\n      0x4\n      add\n      dup1\n      dup6\n      0xffffffffffffffffffffffffffffffffffffffff\n      and\n      0xffffffffffffffffffffffffffffffffffffffff\n      and\n      dup2\n      mstore\n      0x20\n      add\n      dup5\n      0xffffffffffffffffffffffffffffffffffffffff\n      and\n      0xffffffffffffffffffffffffffffffffffffffff\n      and\n      dup2\n      mstore\n      0x20\n      add\n      dup4\n      0xffffffffffffffffffffffffffffffffffffffff\n      and\n      0xffffffffffffffffffffffffffffffffffffffff\n      and\n      dup2\n      mstore\n      0x20\n      add\n      dup3\n      dup2\n      mstore\n      0x20\n      add\n      swap5\n      pop\n      pop\n      pop\n      pop\n      pop\n      0x0\n      mload(0x40)\n      dup1\n      dup4\n      sub\n      dup2\n      0x0\n      dup8\n      dup1\n      extcodesize\n      iszero\n      iszero\n      tag_166\n      jumpi\n      0x0\n      dup1\n      revert\n    tag_166:\n      sub(gas, 0x2c6)\n      call\n      iszero\n      iszero\n      tag_167\n      jumpi\n      0x0\n      dup1\n      revert\n    tag_167:\n      pop\n      pop\n      pop\n        /* \"contracts/TetherToken.sol\":11440:11538  return UpgradedStandardToken(upgradedAddress).transferFromByLegacy(msg.sender, _from, _to, _value) */\n      jump(tag_163)\n        /* \"contracts/TetherToken.sol\":11409:11628  if (deprecated) {\r... */\n    tag_165:\n        /* \"contracts/TetherToken.sol\":11578:11616  super.transferFrom(_from, _to, _value) */\n      tag_169\n        /* \"contracts/TetherToken.sol\":11597:11602  _from */\n      dup4\n        /* \"contracts/TetherToken.sol\":11604:11607  _to */\n      dup4\n        /* \"contracts/TetherToken.sol\":11609:11615  _value */\n      dup4\n        /* \"contracts/TetherToken.sol\":11578:11596  super.transferFrom */\n      tag_170\n        /* \"contracts/TetherToken.sol\":11578:11616  super.transferFrom(_from, _to, _value) */\n      jump\t// in\n    tag_169:\n        /* \"contracts/TetherToken.sol\":7734:7735  _ */\n    tag_163:\n        /* \"contracts/TetherToken.sol\":11273:11635  function transferFrom(address _from, address _to, uint _value) public whenNotPaused {\r... */\n      pop\n      pop\n      pop\n      jump\t// out\n        /* \"contracts/TetherToken.sol\":10118:10148  address public upgradedAddress */\n    tag_61:\n      0xa\n      0x0\n      swap1\n      sload\n      swap1\n      0x100\n      exp\n      swap1\n      div\n      0xffffffffffffffffffffffffffffffffffffffff\n      and\n      dup2\n      jump\t// out\n        /* \"contracts/TetherToken.sol\":2951:2991  mapping(address => uint) public balances */\n    tag_64:\n      mstore(0x20, 0x2)\n      dup1\n      0x0\n      mstore\n      keccak256(0x0, 0x40)\n      0x0\n      swap2\n      pop\n      swap1\n      pop\n      sload\n      dup2\n      jump\t// out\n        /* \"contracts/TetherToken.sol\":10091:10111  uint public decimals */\n    tag_67:\n      sload(0x9)\n      dup2\n      jump\t// out\n        /* \"contracts/TetherToken.sol\":3117:3143  uint public maximumFee = 0 */\n    tag_70:\n      sload(0x4)\n      dup2\n      jump\t// out\n        /* \"contracts/TetherToken.sol\":2053:2077  uint public _totalSupply */\n    tag_73:\n      sload(0x1)\n      dup2\n      jump\t// out\n        /* \"contracts/TetherToken.sol\":8160:8250  function unpause() onlyOwner whenPaused public {\r... */\n    tag_76:\n        /* \"contracts/TetherToken.sol\":1534:1539  owner */\n      0x0\n      dup1\n      swap1\n      sload\n      swap1\n      0x100\n      exp\n      swap1\n      div\n      0xffffffffffffffffffffffffffffffffffffffff\n      and\n        /* \"contracts/TetherToken.sol\":1520:1539  msg.sender == owner */\n      0xffffffffffffffffffffffffffffffffffffffff\n      and\n        /* \"contracts/TetherToken.sol\":1520:1530  msg.sender */\n      caller\n        /* \"contracts/TetherToken.sol\":1520:1539  msg.sender == owner */\n      0xffffffffffffffffffffffffffffffffffffffff\n      and\n      eq\n        /* \"contracts/TetherToken.sol\":1512:1540  require(msg.sender == owner) */\n      iszero\n      iszero\n      tag_172\n      jumpi\n      0x0\n      dup1\n      revert\n    tag_172:\n        /* \"contracts/TetherToken.sol\":7880:7886  paused */\n      0x0\n      0x14\n      swap1\n      sload\n      swap1\n      0x100\n      exp\n      swap1\n      div\n      0xff\n      and\n        /* \"contracts/TetherToken.sol\":7872:7887  require(paused) */\n      iszero\n      iszero\n      tag_174\n      jumpi\n      0x0\n      dup1\n      revert\n    tag_174:\n        /* \"contracts/TetherToken.sol\":8223:8228  false */\n      0x0\n        /* \"contracts/TetherToken.sol\":8214:8220  paused */\n      dup1\n      0x14\n        /* \"contracts/TetherToken.sol\":8214:8228  paused = false */\n      0x100\n      exp\n      dup2\n      sload\n      dup2\n      0xff\n      mul\n      not\n      and\n      swap1\n      dup4\n      iszero\n      iszero\n      mul\n      or\n      swap1\n      sstore\n      pop\n        /* \"contracts/TetherToken.sol\":8235:8244  Unpause() */\n      0x7805862f689e2f13df9f062ff482ad3ad112aca9e0847911ed832e158c525b33\n      mload(0x40)\n      mload(0x40)\n      dup1\n      swap2\n      sub\n      swap1\n      log1\n        /* \"contracts/TetherToken.sol\":8160:8250  function unpause() onlyOwner whenPaused public {\r... */\n      jump\t// out\n        /* \"contracts/TetherToken.sol\":8428:8552  function getBlackListStatus(address _maker) external constant returns (bool) {\r... */\n    tag_79:\n        /* \"contracts/TetherToken.sol\":8499:8503  bool */\n      0x0\n        /* \"contracts/TetherToken.sol\":8523:8536  isBlackListed */\n      0x6\n        /* \"contracts/TetherToken.sol\":8523:8544  isBlackListed[_maker] */\n      0x0\n        /* \"contracts/TetherToken.sol\":8537:8543  _maker */\n      dup4\n        /* \"contracts/TetherToken.sol\":8523:8544  isBlackListed[_maker] */\n      0xffffffffffffffffffffffffffffffffffffffff\n      and\n      0xffffffffffffffffffffffffffffffffffffffff\n      and\n      dup2\n      mstore\n      0x20\n      add\n      swap1\n      dup2\n      mstore\n      0x20\n      add\n      0x0\n      keccak256\n      0x0\n      swap1\n      sload\n      swap1\n      0x100\n      exp\n      swap1\n      div\n      0xff\n      and\n        /* \"contracts/TetherToken.sol\":8516:8544  return isBlackListed[_maker] */\n      swap1\n      pop\n        /* \"contracts/TetherToken.sol\":8428:8552  function getBlackListStatus(address _maker) external constant returns (bool) {\r... */\n      swap2\n      swap1\n      pop\n      jump\t// out\n        /* \"contracts/TetherToken.sol\":4741:4802  mapping (address => mapping (address => uint)) public allowed */\n    tag_82:\n      mstore(0x20, 0x5)\n      dup2\n      0x0\n      mstore\n      mstore(0x20, keccak256(0x0, 0x40))\n      dup1\n      0x0\n      mstore\n      keccak256(0x0, 0x40)\n      0x0\n      swap2\n      pop\n      swap2\n      pop\n      pop\n      sload\n      dup2\n      jump\t// out\n        /* \"contracts/TetherToken.sol\":7544:7570  bool public paused = false */\n    tag_85:\n      0x0\n      0x14\n      swap1\n      sload\n      swap1\n      0x100\n      exp\n      swap1\n      div\n      0xff\n      and\n      dup2\n      jump\t// out\n        /* \"contracts/TetherToken.sol\":11720:11964  function balanceOf(address who) public constant returns (uint) {\r... */\n    tag_88:\n        /* \"contracts/TetherToken.sol\":11777:11781  uint */\n      0x0\n        /* \"contracts/TetherToken.sol\":11798:11808  deprecated */\n      0xa\n      0x14\n      swap1\n      sload\n      swap1\n      0x100\n      exp\n      swap1\n      div\n      0xff\n      and\n        /* \"contracts/TetherToken.sol\":11794:11957  if (deprecated) {\r... */\n      iszero\n      tag_178\n      jumpi\n        /* \"contracts/TetherToken.sol\":11854:11869  upgradedAddress */\n      0xa\n      0x0\n      swap1\n      sload\n      swap1\n      0x100\n      exp\n      swap1\n      div\n      0xffffffffffffffffffffffffffffffffffffffff\n      and\n        /* \"contracts/TetherToken.sol\":11832:11880  UpgradedStandardToken(upgradedAddress).balanceOf */\n      0xffffffffffffffffffffffffffffffffffffffff\n      and\n      0x70a08231\n        /* \"contracts/TetherToken.sol\":11881:11884  who */\n      dup4\n        /* \"contracts/TetherToken.sol\":11832:11885  UpgradedStandardToken(upgradedAddress).balanceOf(who) */\n      mstore(add(0x20, mload(0x40)), 0x0)\n      mload(0x40)\n      dup3\n      0xffffffff\n      and\n      0x100000000000000000000000000000000000000000000000000000000\n      mul\n      dup2\n      mstore\n      0x4\n      add\n      dup1\n      dup3\n      0xffffffffffffffffffffffffffffffffffffffff\n      and\n      0xffffffffffffffffffffffffffffffffffffffff\n      and\n      dup2\n      mstore\n      0x20\n      add\n      swap2\n      pop\n      pop\n      0x20\n      mload(0x40)\n      dup1\n      dup4\n      sub\n      dup2\n      0x0\n      dup8\n      dup1\n      extcodesize\n      iszero\n      iszero\n      tag_179\n      jumpi\n      0x0\n      dup1\n      revert\n    tag_179:\n      sub(gas, 0x2c6)\n      call\n      iszero\n      iszero\n      tag_180\n      jumpi\n      0x0\n      dup1\n      revert\n    tag_180:\n      pop\n      pop\n      pop\n      mload(0x40)\n      dup1\n      mload\n      swap1\n      pop\n        /* \"contracts/TetherToken.sol\":11825:11885  return UpgradedStandardToken(upgradedAddress).balanceOf(who) */\n      swap1\n      pop\n      jump(tag_177)\n        /* \"contracts/TetherToken.sol\":11794:11957  if (deprecated) {\r... */\n    tag_178:\n        /* \"contracts/TetherToken.sol\":11925:11945  super.balanceOf(who) */\n      tag_182\n        /* \"contracts/TetherToken.sol\":11941:11944  who */\n      dup3\n        /* \"contracts/TetherToken.sol\":11925:11940  super.balanceOf */\n      tag_183\n        /* \"contracts/TetherToken.sol\":11925:11945  super.balanceOf(who) */\n      jump\t// in\n    tag_182:\n        /* \"contracts/TetherToken.sol\":11918:11945  return super.balanceOf(who) */\n      swap1\n      pop\n        /* \"contracts/TetherToken.sol\":11720:11964  function balanceOf(address who) public constant returns (uint) {\r... */\n    tag_177:\n      swap2\n      swap1\n      pop\n      jump\t// out\n        /* \"contracts/TetherToken.sol\":7985:8073  function pause() onlyOwner whenNotPaused public {\r... */\n    tag_91:\n        /* \"contracts/TetherToken.sol\":1534:1539  owner */\n      0x0\n      dup1\n      swap1\n      sload\n      swap1\n      0x100\n      exp\n      swap1\n      div\n      0xffffffffffffffffffffffffffffffffffffffff\n      and\n        /* \"contracts/TetherToken.sol\":1520:1539  msg.sender == owner */\n      0xffffffffffffffffffffffffffffffffffffffff\n      and\n        /* \"contracts/TetherToken.sol\":1520:1530  msg.sender */\n      caller\n        /* \"contracts/TetherToken.sol\":1520:1539  msg.sender == owner */\n      0xffffffffffffffffffffffffffffffffffffffff\n      and\n      eq\n        /* \"contracts/TetherToken.sol\":1512:1540  require(msg.sender == owner) */\n      iszero\n      iszero\n      tag_185\n      jumpi\n      0x0\n      dup1\n      revert\n    tag_185:\n        /* \"contracts/TetherToken.sol\":7720:7726  paused */\n      0x0\n      0x14\n      swap1\n      sload\n      swap1\n      0x100\n      exp\n      swap1\n      div\n      0xff\n      and\n        /* \"contracts/TetherToken.sol\":7719:7726  !paused */\n      iszero\n        /* \"contracts/TetherToken.sol\":7711:7727  require(!paused) */\n      iszero\n      iszero\n      tag_187\n      jumpi\n      0x0\n      dup1\n      revert\n    tag_187:\n        /* \"contracts/TetherToken.sol\":8049:8053  true */\n      0x1\n        /* \"contracts/TetherToken.sol\":8040:8046  paused */\n      0x0\n      0x14\n        /* \"contracts/TetherToken.sol\":8040:8053  paused = true */\n      0x100\n      exp\n      dup2\n      sload\n      dup2\n      0xff\n      mul\n      not\n      and\n      swap1\n      dup4\n      iszero\n      iszero\n      mul\n      or\n      swap1\n      sstore\n      pop\n        /* \"contracts/TetherToken.sol\":8060:8067  Pause() */\n      0x6985a02210a168e66602d3235cb6db0e70f92b3ba4d376a33c0f3d9434bff625\n      mload(0x40)\n      mload(0x40)\n      dup1\n      swap2\n      sub\n      swap1\n      log1\n        /* \"contracts/TetherToken.sol\":7985:8073  function pause() onlyOwner whenNotPaused public {\r... */\n      jump\t// out\n        /* \"contracts/TetherToken.sol\":8560:8647  function getOwner() external constant returns (address) {\r... */\n    tag_94:\n        /* \"contracts/TetherToken.sol\":8607:8614  address */\n      0x0\n        /* \"contracts/TetherToken.sol\":8634:8639  owner */\n      dup1\n      0x0\n      swap1\n      sload\n      swap1\n      0x100\n      exp\n      swap1\n      div\n      0xffffffffffffffffffffffffffffffffffffffff\n      and\n        /* \"contracts/TetherToken.sol\":8627:8639  return owner */\n      swap1\n      pop\n        /* \"contracts/TetherToken.sol\":8560:8647  function getOwner() external constant returns (address) {\r... */\n      swap1\n      jump\t// out\n        /* \"contracts/TetherToken.sol\":1162:1182  address public owner */\n    tag_97:\n      0x0\n      dup1\n      swap1\n      sload\n      swap1\n      0x100\n      exp\n      swap1\n      div\n      0xffffffffffffffffffffffffffffffffffffffff\n      and\n      dup2\n      jump\t// out\n        /* \"contracts/TetherToken.sol\":10064:10084  string public symbol */\n    tag_100:\n      0x8\n      dup1\n      sload\n      0x1\n      dup2\n      0x1\n      and\n      iszero\n      0x100\n      mul\n      sub\n      and\n      0x2\n      swap1\n      div\n      dup1\n      0x1f\n      add\n      0x20\n      dup1\n      swap2\n      div\n      mul\n      0x20\n      add\n      mload(0x40)\n      swap1\n      dup2\n      add\n      0x40\n      mstore\n      dup1\n      swap3\n      swap2\n      swap1\n      dup2\n      dup2\n      mstore\n      0x20\n      add\n      dup3\n      dup1\n      sload\n      0x1\n      dup2\n      0x1\n      and\n      iszero\n      0x100\n      mul\n      sub\n      and\n      0x2\n      swap1\n      div\n      dup1\n      iszero\n      tag_190\n      jumpi\n      dup1\n      0x1f\n      lt\n      tag_191\n      jumpi\n      0x100\n      dup1\n      dup4\n      sload\n      div\n      mul\n      dup4\n      mstore\n      swap2\n      0x20\n      add\n      swap2\n      jump(tag_190)\n    tag_191:\n      dup3\n      add\n      swap2\n      swap1\n      0x0\n      mstore\n      keccak256(0x0, 0x20)\n      swap1\n    tag_192:\n      dup2\n      sload\n      dup2\n      mstore\n      swap1\n      0x1\n      add\n      swap1\n      0x20\n      add\n      dup1\n      dup4\n      gt\n      tag_192\n      jumpi\n      dup3\n      swap1\n      sub\n      0x1f\n      and\n      dup3\n      add\n      swap2\n    tag_190:\n      pop\n      pop\n      pop\n      pop\n      pop\n      dup2\n      jump\t// out\n        /* \"contracts/TetherToken.sol\":10862:11188  function transfer(address _to, uint _value) public whenNotPaused {\r... */\n    tag_107:\n        /* \"contracts/TetherToken.sol\":7720:7726  paused */\n      0x0\n      0x14\n      swap1\n      sload\n      swap1\n      0x100\n      exp\n      swap1\n      div\n      0xff\n      and\n        /* \"contracts/TetherToken.sol\":7719:7726  !paused */\n      iszero\n        /* \"contracts/TetherToken.sol\":7711:7727  require(!paused) */\n      iszero\n      iszero\n      tag_194\n      jumpi\n      0x0\n      dup1\n      revert\n    tag_194:\n        /* \"contracts/TetherToken.sol\":10947:10960  isBlackListed */\n      0x6\n        /* \"contracts/TetherToken.sol\":10947:10972  isBlackListed[msg.sender] */\n      0x0\n        /* \"contracts/TetherToken.sol\":10961:10971  msg.sender */\n      caller\n        /* \"contracts/TetherToken.sol\":10947:10972  isBlackListed[msg.sender] */\n      0xffffffffffffffffffffffffffffffffffffffff\n      and\n      0xffffffffffffffffffffffffffffffffffffffff\n      and\n      dup2\n      mstore\n      0x20\n      add\n      swap1\n      dup2\n      mstore\n      0x20\n      add\n      0x0\n      keccak256\n      0x0\n      swap1\n      sload\n      swap1\n      0x100\n      exp\n      swap1\n      div\n      0xff\n      and\n        /* \"contracts/TetherToken.sol\":10946:10972  !isBlackListed[msg.sender] */\n      iszero\n        /* \"contracts/TetherToken.sol\":10938:10973  require(!isBlackListed[msg.sender]) */\n      iszero\n      iszero\n      tag_196\n      jumpi\n      0x0\n      dup1\n      revert\n    tag_196:\n        /* \"contracts/TetherToken.sol\":10988:10998  deprecated */\n      0xa\n      0x14\n      swap1\n      sload\n      swap1\n      0x100\n      exp\n      swap1\n      div\n      0xff\n      and\n        /* \"contracts/TetherToken.sol\":10984:11181  if (deprecated) {\r... */\n      iszero\n      tag_197\n      jumpi\n        /* \"contracts/TetherToken.sol\":11044:11059  upgradedAddress */\n      0xa\n      0x0\n      swap1\n      sload\n      swap1\n      0x100\n      exp\n      swap1\n      div\n      0xffffffffffffffffffffffffffffffffffffffff\n      and\n        /* \"contracts/TetherToken.sol\":11022:11077  UpgradedStandardToken(upgradedAddress).transferByLegacy */\n      0xffffffffffffffffffffffffffffffffffffffff\n      and\n      0x6e18980a\n        /* \"contracts/TetherToken.sol\":11078:11088  msg.sender */\n      caller\n        /* \"contracts/TetherToken.sol\":11090:11093  _to */\n      dup5\n        /* \"contracts/TetherToken.sol\":11095:11101  _value */\n      dup5\n        /* \"contracts/TetherToken.sol\":11022:11102  UpgradedStandardToken(upgradedAddress).transferByLegacy(msg.sender, _to, _value) */\n      mload(0x40)\n      dup5\n      0xffffffff\n      and\n      0x100000000000000000000000000000000000000000000000000000000\n      mul\n      dup2\n      mstore\n      0x4\n      add\n      dup1\n      dup5\n      0xffffffffffffffffffffffffffffffffffffffff\n      and\n      0xffffffffffffffffffffffffffffffffffffffff\n      and\n      dup2\n      mstore\n      0x20\n      add\n      dup4\n      0xffffffffffffffffffffffffffffffffffffffff\n      and\n      0xffffffffffffffffffffffffffffffffffffffff\n      and\n      dup2\n      mstore\n      0x20\n      add\n      dup3\n      dup2\n      mstore\n      0x20\n      add\n      swap4\n      pop\n      pop\n      pop\n      pop\n      0x0\n      mload(0x40)\n      dup1\n      dup4\n      sub\n      dup2\n      0x0\n      dup8\n      dup1\n      extcodesize\n      iszero\n      iszero\n      tag_198\n      jumpi\n      0x0\n      dup1\n      revert\n    tag_198:\n      sub(gas, 0x2c6)\n      call\n      iszero\n      iszero\n      tag_199\n      jumpi\n      0x0\n      dup1\n      revert\n    tag_199:\n      pop\n      pop\n      pop\n        /* \"contracts/TetherToken.sol\":11015:11102  return UpgradedStandardToken(upgradedAddress).transferByLegacy(msg.sender, _to, _value) */\n      jump(tag_195)\n        /* \"contracts/TetherToken.sol\":10984:11181  if (deprecated) {\r... */\n    tag_197:\n        /* \"contracts/TetherToken.sol\":11142:11169  super.transfer(_to, _value) */\n      tag_201\n        /* \"contracts/TetherToken.sol\":11157:11160  _to */\n      dup3\n        /* \"contracts/TetherToken.sol\":11162:11168  _value */\n      dup3\n        /* \"contracts/TetherToken.sol\":11142:11156  super.transfer */\n      tag_202\n        /* \"contracts/TetherToken.sol\":11142:11169  super.transfer(_to, _value) */\n      jump\t// in\n    tag_201:\n        /* \"contracts/TetherToken.sol\":7734:7735  _ */\n    tag_195:\n        /* \"contracts/TetherToken.sol\":10862:11188  function transfer(address _to, uint _value) public whenNotPaused {\r... */\n      pop\n      pop\n      jump\t// out\n        /* \"contracts/TetherToken.sol\":14166:14553  function setParams(uint newBasisPoints, uint newMaxFee) public onlyOwner {\r... */\n    tag_110:\n        /* \"contracts/TetherToken.sol\":1534:1539  owner */\n      0x0\n      dup1\n      swap1\n      sload\n      swap1\n      0x100\n      exp\n      swap1\n      div\n      0xffffffffffffffffffffffffffffffffffffffff\n      and\n        /* \"contracts/TetherToken.sol\":1520:1539  msg.sender == owner */\n      0xffffffffffffffffffffffffffffffffffffffff\n      and\n        /* \"contracts/TetherToken.sol\":1520:1530  msg.sender */\n      caller\n        /* \"contracts/TetherToken.sol\":1520:1539  msg.sender == owner */\n      0xffffffffffffffffffffffffffffffffffffffff\n      and\n      eq\n        /* \"contracts/TetherToken.sol\":1512:1540  require(msg.sender == owner) */\n      iszero\n      iszero\n      tag_204\n      jumpi\n      0x0\n      dup1\n      revert\n    tag_204:\n        /* \"contracts/TetherToken.sol\":14364:14366  20 */\n      0x14\n        /* \"contracts/TetherToken.sol\":14347:14361  newBasisPoints */\n      dup3\n        /* \"contracts/TetherToken.sol\":14347:14366  newBasisPoints < 20 */\n      lt\n        /* \"contracts/TetherToken.sol\":14339:14367  require(newBasisPoints < 20) */\n      iszero\n      iszero\n      tag_206\n      jumpi\n      0x0\n      dup1\n      revert\n    tag_206:\n        /* \"contracts/TetherToken.sol\":14398:14400  50 */\n      0x32\n        /* \"contracts/TetherToken.sol\":14386:14395  newMaxFee */\n      dup2\n        /* \"contracts/TetherToken.sol\":14386:14400  newMaxFee < 50 */\n      lt\n        /* \"contracts/TetherToken.sol\":14378:14401  require(newMaxFee < 50) */\n      iszero\n      iszero\n      tag_207\n      jumpi\n      0x0\n      dup1\n      revert\n    tag_207:\n        /* \"contracts/TetherToken.sol\":14432:14446  newBasisPoints */\n      dup2\n        /* \"contracts/TetherToken.sol\":14414:14429  basisPointsRate */\n      0x3\n        /* \"contracts/TetherToken.sol\":14414:14446  basisPointsRate = newBasisPoints */\n      dup2\n      swap1\n      sstore\n      pop\n        /* \"contracts/TetherToken.sol\":14470:14497  newMaxFee.mul(10**decimals) */\n      tag_208\n        /* \"contracts/TetherToken.sol\":14488:14496  decimals */\n      sload(0x9)\n        /* \"contracts/TetherToken.sol\":14484:14486  10 */\n      0xa\n        /* \"contracts/TetherToken.sol\":14484:14496  10**decimals */\n      exp\n        /* \"contracts/TetherToken.sol\":14470:14479  newMaxFee */\n      dup3\n        /* \"contracts/TetherToken.sol\":14470:14483  newMaxFee.mul */\n      tag_209\n      swap1\n        /* \"contracts/TetherToken.sol\":14470:14497  newMaxFee.mul(10**decimals) */\n      swap2\n      swap1\n      0xffffffff\n      and\n      jump\t// in\n    tag_208:\n        /* \"contracts/TetherToken.sol\":14457:14467  maximumFee */\n      0x4\n        /* \"contracts/TetherToken.sol\":14457:14497  maximumFee = newMaxFee.mul(10**decimals) */\n      dup2\n      swap1\n      sstore\n      pop\n        /* \"contracts/TetherToken.sol\":14510:14545  Params(basisPointsRate, maximumFee) */\n      0xb044a1e409eac5c48e5af22d4af52670dd1a99059537a78b31b48c6500a6354e\n        /* \"contracts/TetherToken.sol\":14517:14532  basisPointsRate */\n      sload(0x3)\n        /* \"contracts/TetherToken.sol\":14534:14544  maximumFee */\n      sload(0x4)\n        /* \"contracts/TetherToken.sol\":14510:14545  Params(basisPointsRate, maximumFee) */\n      mload(0x40)\n      dup1\n      dup4\n      dup2\n      mstore\n      0x20\n      add\n      dup3\n      dup2\n      mstore\n      0x20\n      add\n      swap3\n      pop\n      pop\n      pop\n      mload(0x40)\n      dup1\n      swap2\n      sub\n      swap1\n      log1\n        /* \"contracts/TetherToken.sol\":14166:14553  function setParams(uint newBasisPoints, uint newMaxFee) public onlyOwner {\r... */\n      pop\n      pop\n      jump\t// out\n        /* \"contracts/TetherToken.sol\":13424:13690  function issue(uint amount) public onlyOwner {\r... */\n    tag_113:\n        /* \"contracts/TetherToken.sol\":1534:1539  owner */\n      0x0\n      dup1\n      swap1\n      sload\n      swap1\n      0x100\n      exp\n      swap1\n      div\n      0xffffffffffffffffffffffffffffffffffffffff\n      and\n        /* \"contracts/TetherToken.sol\":1520:1539  msg.sender == owner */\n      0xffffffffffffffffffffffffffffffffffffffff\n      and\n        /* \"contracts/TetherToken.sol\":1520:1530  msg.sender */\n      caller\n        /* \"contracts/TetherToken.sol\":1520:1539  msg.sender == owner */\n      0xffffffffffffffffffffffffffffffffffffffff\n      and\n      eq\n        /* \"contracts/TetherToken.sol\":1512:1540  require(msg.sender == owner) */\n      iszero\n      iszero\n      tag_211\n      jumpi\n      0x0\n      dup1\n      revert\n    tag_211:\n        /* \"contracts/TetherToken.sol\":13512:13524  _totalSupply */\n      sload(0x1)\n        /* \"contracts/TetherToken.sol\":13503:13509  amount */\n      dup2\n        /* \"contracts/TetherToken.sol\":13488:13500  _totalSupply */\n      sload(0x1)\n        /* \"contracts/TetherToken.sol\":13488:13509  _totalSupply + amount */\n      add\n        /* \"contracts/TetherToken.sol\":13488:13524  _totalSupply + amount > _totalSupply */\n      gt\n        /* \"contracts/TetherToken.sol\":13480:13525  require(_totalSupply + amount > _totalSupply) */\n      iszero\n      iszero\n      tag_213\n      jumpi\n      0x0\n      dup1\n      revert\n    tag_213:\n        /* \"contracts/TetherToken.sol\":13571:13579  balances */\n      0x2\n        /* \"contracts/TetherToken.sol\":13571:13586  balances[owner] */\n      0x0\n        /* \"contracts/TetherToken.sol\":13580:13585  owner */\n      dup1\n      0x0\n      swap1\n      sload\n      swap1\n      0x100\n      exp\n      swap1\n      div\n      0xffffffffffffffffffffffffffffffffffffffff\n      and\n        /* \"contracts/TetherToken.sol\":13571:13586  balances[owner] */\n      0xffffffffffffffffffffffffffffffffffffffff\n      and\n      0xffffffffffffffffffffffffffffffffffffffff\n      and\n      dup2\n      mstore\n      0x20\n      add\n      swap1\n      dup2\n      mstore\n      0x20\n      add\n      0x0\n      keccak256\n      sload\n        /* \"contracts/TetherToken.sol\":13562:13568  amount */\n      dup2\n        /* \"contracts/TetherToken.sol\":13544:13552  balances */\n      0x2\n        /* \"contracts/TetherToken.sol\":13544:13559  balances[owner] */\n      0x0\n        /* \"contracts/TetherToken.sol\":13553:13558  owner */\n      dup1\n      0x0\n      swap1\n      sload\n      swap1\n      0x100\n      exp\n      swap1\n      div\n      0xffffffffffffffffffffffffffffffffffffffff\n      and\n        /* \"contracts/TetherToken.sol\":13544:13559  balances[owner] */\n      0xffffffffffffffffffffffffffffffffffffffff\n      and\n      0xffffffffffffffffffffffffffffffffffffffff\n      and\n      dup2\n      mstore\n      0x20\n      add\n      swap1\n      dup2\n      mstore\n      0x20\n      add\n      0x0\n      keccak256\n      sload\n        /* \"contracts/TetherToken.sol\":13544:13568  balances[owner] + amount */\n      add\n        /* \"contracts/TetherToken.sol\":13544:13586  balances[owner] + amount > balances[owner] */\n      gt\n        /* \"contracts/TetherToken.sol\":13536:13587  require(balances[owner] + amount > balances[owner]) */\n      iszero\n      iszero\n      tag_214\n      jumpi\n      0x0\n      dup1\n      revert\n    tag_214:\n        /* \"contracts/TetherToken.sol\":13619:13625  amount */\n      dup1\n        /* \"contracts/TetherToken.sol\":13600:13608  balances */\n      0x2\n        /* \"contracts/TetherToken.sol\":13600:13615  balances[owner] */\n      0x0\n        /* \"contracts/TetherToken.sol\":13609:13614  owner */\n      dup1\n      0x0\n      swap1\n      sload\n      swap1\n      0x100\n      exp\n      swap1\n      div\n      0xffffffffffffffffffffffffffffffffffffffff\n      and\n        /* \"contracts/TetherToken.sol\":13600:13615  balances[owner] */\n      0xffffffffffffffffffffffffffffffffffffffff\n      and\n      0xffffffffffffffffffffffffffffffffffffffff\n      and\n      dup2\n      mstore\n      0x20\n      add\n      swap1\n      dup2\n      mstore\n      0x20\n      add\n      0x0\n      keccak256\n      0x0\n        /* \"contracts/TetherToken.sol\":13600:13625  balances[owner] += amount */\n      dup3\n      dup3\n      sload\n      add\n      swap3\n      pop\n      pop\n      dup2\n      swap1\n      sstore\n      pop\n        /* \"contracts/TetherToken.sol\":13652:13658  amount */\n      dup1\n        /* \"contracts/TetherToken.sol\":13636:13648  _totalSupply */\n      0x1\n      0x0\n        /* \"contracts/TetherToken.sol\":13636:13658  _totalSupply += amount */\n      dup3\n      dup3\n      sload\n      add\n      swap3\n      pop\n      pop\n      dup2\n      swap1\n      sstore\n      pop\n        /* \"contracts/TetherToken.sol\":13669:13682  Issue(amount) */\n      0xcb8241adb0c3fdb35b70c24ce35c5eb0c17af7431c99f827d44a445ca624176a\n        /* \"contracts/TetherToken.sol\":13675:13681  amount */\n      dup2\n        /* \"contracts/TetherToken.sol\":13669:13682  Issue(amount) */\n      mload(0x40)\n      dup1\n      dup3\n      dup2\n      mstore\n      0x20\n      add\n      swap2\n      pop\n      pop\n      mload(0x40)\n      dup1\n      swap2\n      sub\n      swap1\n      log1\n        /* \"contracts/TetherToken.sol\":13424:13690  function issue(uint amount) public onlyOwner {\r... */\n      pop\n      jump\t// out\n        /* \"contracts/TetherToken.sol\":13921:14158  function redeem(uint amount) public onlyOwner {\r... */\n    tag_116:\n        /* \"contracts/TetherToken.sol\":1534:1539  owner */\n      0x0\n      dup1\n      swap1\n      sload\n      swap1\n      0x100\n      exp\n      swap1\n      div\n      0xffffffffffffffffffffffffffffffffffffffff\n      and\n        /* \"contracts/TetherToken.sol\":1520:1539  msg.sender == owner */\n      0xffffffffffffffffffffffffffffffffffffffff\n      and\n        /* \"contracts/TetherToken.sol\":1520:1530  msg.sender */\n      caller\n        /* \"contracts/TetherToken.sol\":1520:1539  msg.sender == owner */\n      0xffffffffffffffffffffffffffffffffffffffff\n      and\n      eq\n        /* \"contracts/TetherToken.sol\":1512:1540  require(msg.sender == owner) */\n      iszero\n      iszero\n      tag_216\n      jumpi\n      0x0\n      dup1\n      revert\n    tag_216:\n        /* \"contracts/TetherToken.sol\":14002:14008  amount */\n      dup1\n        /* \"contracts/TetherToken.sol\":13986:13998  _totalSupply */\n      sload(0x1)\n        /* \"contracts/TetherToken.sol\":13986:14008  _totalSupply >= amount */\n      lt\n      iszero\n        /* \"contracts/TetherToken.sol\":13978:14009  require(_totalSupply >= amount) */\n      iszero\n      iszero\n      tag_218\n      jumpi\n      0x0\n      dup1\n      revert\n    tag_218:\n        /* \"contracts/TetherToken.sol\":14047:14053  amount */\n      dup1\n        /* \"contracts/TetherToken.sol\":14028:14036  balances */\n      0x2\n        /* \"contracts/TetherToken.sol\":14028:14043  balances[owner] */\n      0x0\n        /* \"contracts/TetherToken.sol\":14037:14042  owner */\n      dup1\n      0x0\n      swap1\n      sload\n      swap1\n      0x100\n      exp\n      swap1\n      div\n      0xffffffffffffffffffffffffffffffffffffffff\n      and\n        /* \"contracts/TetherToken.sol\":14028:14043  balances[owner] */\n      0xffffffffffffffffffffffffffffffffffffffff\n      and\n      0xffffffffffffffffffffffffffffffffffffffff\n      and\n      dup2\n      mstore\n      0x20\n      add\n      swap1\n      dup2\n      mstore\n      0x20\n      add\n      0x0\n      keccak256\n      sload\n        /* \"contracts/TetherToken.sol\":14028:14053  balances[owner] >= amount */\n      lt\n      iszero\n        /* \"contracts/TetherToken.sol\":14020:14054  require(balances[owner] >= amount) */\n      iszero\n      iszero\n      tag_219\n      jumpi\n      0x0\n      dup1\n      revert\n    tag_219:\n        /* \"contracts/TetherToken.sol\":14083:14089  amount */\n      dup1\n        /* \"contracts/TetherToken.sol\":14067:14079  _totalSupply */\n      0x1\n      0x0\n        /* \"contracts/TetherToken.sol\":14067:14089  _totalSupply -= amount */\n      dup3\n      dup3\n      sload\n      sub\n      swap3\n      pop\n      pop\n      dup2\n      swap1\n      sstore\n      pop\n        /* \"contracts/TetherToken.sol\":14119:14125  amount */\n      dup1\n        /* \"contracts/TetherToken.sol\":14100:14108  balances */\n      0x2\n        /* \"contracts/TetherToken.sol\":14100:14115  balances[owner] */\n      0x0\n        /* \"contracts/TetherToken.sol\":14109:14114  owner */\n      dup1\n      0x0\n      swap1\n      sload\n      swap1\n      0x100\n      exp\n      swap1\n      div\n      0xffffffffffffffffffffffffffffffffffffffff\n      and\n        /* \"contracts/TetherToken.sol\":14100:14115  balances[owner] */\n      0xffffffffffffffffffffffffffffffffffffffff\n      and\n      0xffffffffffffffffffffffffffffffffffffffff\n      and\n      dup2\n      mstore\n      0x20\n      add\n      swap1\n      dup2\n      mstore\n      0x20\n      add\n      0x0\n      keccak256\n      0x0\n        /* \"contracts/TetherToken.sol\":14100:14125  balances[owner] -= amount */\n      dup3\n      dup3\n      sload\n      sub\n      swap3\n      pop\n      pop\n      dup2\n      swap1\n      sstore\n      pop\n        /* \"contracts/TetherToken.sol\":14136:14150  Redeem(amount) */\n      0x702d5967f45f6513a38ffc42d6ba9bf230bd40e8f53b16363c7eb4fd2deb9a44\n        /* \"contracts/TetherToken.sol\":14143:14149  amount */\n      dup2\n        /* \"contracts/TetherToken.sol\":14136:14150  Redeem(amount) */\n      mload(0x40)\n      dup1\n      dup3\n      dup2\n      mstore\n      0x20\n      add\n      swap2\n      pop\n      pop\n      mload(0x40)\n      dup1\n      swap2\n      sub\n      swap1\n      log1\n        /* \"contracts/TetherToken.sol\":13921:14158  function redeem(uint amount) public onlyOwner {\r... */\n      pop\n      jump\t// out\n        /* \"contracts/TetherToken.sol\":12436:12729  function allowance(address _owner, address _spender) public constant returns (uint remaining) {\r... */\n    tag_119:\n        /* \"contracts/TetherToken.sol\":12514:12528  uint remaining */\n      0x0\n        /* \"contracts/TetherToken.sol\":12545:12555  deprecated */\n      0xa\n      0x14\n      swap1\n      sload\n      swap1\n      0x100\n      exp\n      swap1\n      div\n      0xff\n      and\n        /* \"contracts/TetherToken.sol\":12541:12722  if (deprecated) {\r... */\n      iszero\n      tag_221\n      jumpi\n        /* \"contracts/TetherToken.sol\":12593:12608  upgradedAddress */\n      0xa\n      0x0\n      swap1\n      sload\n      swap1\n      0x100\n      exp\n      swap1\n      div\n      0xffffffffffffffffffffffffffffffffffffffff\n      and\n        /* \"contracts/TetherToken.sol\":12579:12619  StandardToken(upgradedAddress).allowance */\n      0xffffffffffffffffffffffffffffffffffffffff\n      and\n      0xdd62ed3e\n        /* \"contracts/TetherToken.sol\":12620:12626  _owner */\n      dup5\n        /* \"contracts/TetherToken.sol\":12628:12636  _spender */\n      dup5\n        /* \"contracts/TetherToken.sol\":12579:12637  StandardToken(upgradedAddress).allowance(_owner, _spender) */\n      mstore(add(0x20, mload(0x40)), 0x0)\n      mload(0x40)\n      dup4\n      0xffffffff\n      and\n      0x100000000000000000000000000000000000000000000000000000000\n      mul\n      dup2\n      mstore\n      0x4\n      add\n      dup1\n      dup4\n      0xffffffffffffffffffffffffffffffffffffffff\n      and\n      0xffffffffffffffffffffffffffffffffffffffff\n      and\n      dup2\n      mstore\n      0x20\n      add\n      dup3\n      0xffffffffffffffffffffffffffffffffffffffff\n      and\n      0xffffffffffffffffffffffffffffffffffffffff\n      and\n      dup2\n      mstore\n      0x20\n      add\n      swap3\n      pop\n      pop\n      pop\n      0x20\n      mload(0x40)\n      dup1\n      dup4\n      sub\n      dup2\n      0x0\n      dup8\n      dup1\n      extcodesize\n      iszero\n      iszero\n      tag_222\n      jumpi\n      0x0\n      dup1\n      revert\n    tag_222:\n      sub(gas, 0x2c6)\n      call\n      iszero\n      iszero\n      tag_223\n      jumpi\n      0x0\n      dup1\n      revert\n    tag_223:\n      pop\n      pop\n      pop\n      mload(0x40)\n      dup1\n      mload\n      swap1\n      pop\n        /* \"contracts/TetherToken.sol\":12572:12637  return StandardToken(upgradedAddress).allowance(_owner, _spender) */\n      swap1\n      pop\n      jump(tag_220)\n        /* \"contracts/TetherToken.sol\":12541:12722  if (deprecated) {\r... */\n    tag_221:\n        /* \"contracts/TetherToken.sol\":12677:12710  super.allowance(_owner, _spender) */\n      tag_225\n        /* \"contracts/TetherToken.sol\":12693:12699  _owner */\n      dup4\n        /* \"contracts/TetherToken.sol\":12701:12709  _spender */\n      dup4\n        /* \"contracts/TetherToken.sol\":12677:12692  super.allowance */\n      tag_226\n        /* \"contracts/TetherToken.sol\":12677:12710  super.allowance(_owner, _spender) */\n      jump\t// in\n    tag_225:\n        /* \"contracts/TetherToken.sol\":12670:12710  return super.allowance(_owner, _spender) */\n      swap1\n      pop\n        /* \"contracts/TetherToken.sol\":12436:12729  function allowance(address _owner, address _spender) public constant returns (uint remaining) {\r... */\n    tag_220:\n      swap3\n      swap2\n      pop\n      pop\n      jump\t// out\n        /* \"contracts/TetherToken.sol\":3079:3110  uint public basisPointsRate = 0 */\n    tag_122:\n      sload(0x3)\n      dup2\n      jump\t// out\n        /* \"contracts/TetherToken.sol\":8655:8701  mapping (address => bool) public isBlackListed */\n    tag_125:\n      mstore(0x20, 0x6)\n      dup1\n      0x0\n      mstore\n      keccak256(0x0, 0x40)\n      0x0\n      swap2\n      pop\n      sload\n      swap1\n      0x100\n      exp\n      swap1\n      div\n      0xff\n      and\n      dup2\n      jump\t// out\n        /* \"contracts/TetherToken.sol\":8867:9027  function removeBlackList (address _clearedUser) public onlyOwner {\r... */\n    tag_128:\n        /* \"contracts/TetherToken.sol\":1534:1539  owner */\n      0x0\n      dup1\n      swap1\n      sload\n      swap1\n      0x100\n      exp\n      swap1\n      div\n      0xffffffffffffffffffffffffffffffffffffffff\n      and\n        /* \"contracts/TetherToken.sol\":1520:1539  msg.sender == owner */\n      0xffffffffffffffffffffffffffffffffffffffff\n      and\n        /* \"contracts/TetherToken.sol\":1520:1530  msg.sender */\n      caller\n        /* \"contracts/TetherToken.sol\":1520:1539  msg.sender == owner */\n      0xffffffffffffffffffffffffffffffffffffffff\n      and\n      eq\n        /* \"contracts/TetherToken.sol\":1512:1540  require(msg.sender == owner) */\n      iszero\n      iszero\n      tag_228\n      jumpi\n      0x0\n      dup1\n      revert\n    tag_228:\n        /* \"contracts/TetherToken.sol\":8973:8978  false */\n      0x0\n        /* \"contracts/TetherToken.sol\":8943:8956  isBlackListed */\n      0x6\n        /* \"contracts/TetherToken.sol\":8943:8970  isBlackListed[_clearedUser] */\n      0x0\n        /* \"contracts/TetherToken.sol\":8957:8969  _clearedUser */\n      dup4\n        /* \"contracts/TetherToken.sol\":8943:8970  isBlackListed[_clearedUser] */\n      0xffffffffffffffffffffffffffffffffffffffff\n      and\n      0xffffffffffffffffffffffffffffffffffffffff\n      and\n      dup2\n      mstore\n      0x20\n      add\n      swap1\n      dup2\n      mstore\n      0x20\n      add\n      0x0\n      keccak256\n      0x0\n        /* \"contracts/TetherToken.sol\":8943:8978  isBlackListed[_clearedUser] = false */\n      0x100\n      exp\n      dup2\n      sload\n      dup2\n      0xff\n      mul\n      not\n      and\n      swap1\n      dup4\n      iszero\n      iszero\n      mul\n      or\n      swap1\n      sstore\n      pop\n        /* \"contracts/TetherToken.sol\":8989:9019  RemovedBlackList(_clearedUser) */\n      0xd7e9ec6e6ecd65492dce6bf513cd6867560d49544421d0783ddf06e76c24470c\n        /* \"contracts/TetherToken.sol\":9006:9018  _clearedUser */\n      dup2\n        /* \"contracts/TetherToken.sol\":8989:9019  RemovedBlackList(_clearedUser) */\n      mload(0x40)\n      dup1\n      dup3\n      0xffffffffffffffffffffffffffffffffffffffff\n      and\n      0xffffffffffffffffffffffffffffffffffffffff\n      and\n      dup2\n      mstore\n      0x20\n      add\n      swap2\n      pop\n      pop\n      mload(0x40)\n      dup1\n      swap2\n      sub\n      swap1\n      log1\n        /* \"contracts/TetherToken.sol\":8867:9027  function removeBlackList (address _clearedUser) public onlyOwner {\r... */\n      pop\n      jump\t// out\n        /* \"contracts/TetherToken.sol\":4811:4853  uint public constant MAX_UINT = 2**256 - 1 */\n    tag_131:\n        /* \"contracts/TetherToken.sol\":4843:4853  2**256 - 1 */\n      0xffffffffffffffffffffffffffffffffffffffffffffffffffffffffffffffff\n        /* \"contracts/TetherToken.sol\":4811:4853  uint public constant MAX_UINT = 2**256 - 1 */\n      dup2\n      jump\t// out\n        /* \"contracts/TetherToken.sol\":1734:1885  function transferOwnership(address newOwner) public onlyOwner {\r... */\n    tag_134:\n        /* \"contracts/TetherToken.sol\":1534:1539  owner */\n      0x0\n      dup1\n      swap1\n      sload\n      swap1\n      0x100\n      exp\n      swap1\n      div\n      0xffffffffffffffffffffffffffffffffffffffff\n      and\n        /* \"contracts/TetherToken.sol\":1520:1539  msg.sender == owner */\n      0xffffffffffffffffffffffffffffffffffffffff\n      and\n        /* \"contracts/TetherToken.sol\":1520:1530  msg.sender */\n      caller\n        /* \"contracts/TetherToken.sol\":1520:1539  msg.sender == owner */\n      0xffffffffffffffffffffffffffffffffffffffff\n      and\n      eq\n        /* \"contracts/TetherToken.sol\":1512:1540  require(msg.sender == owner) */\n      iszero\n      iszero\n      tag_231\n      jumpi\n      0x0\n      dup1\n      revert\n    tag_231:\n        /* \"contracts/TetherToken.sol\":1831:1832  0 */\n      0x0\n        /* \"contracts/TetherToken.sol\":1811:1833  newOwner != address(0) */\n      0xffffffffffffffffffffffffffffffffffffffff\n      and\n        /* \"contracts/TetherToken.sol\":1811:1819  newOwner */\n      dup2\n        /* \"contracts/TetherToken.sol\":1811:1833  newOwner != address(0) */\n      0xffffffffffffffffffffffffffffffffffffffff\n      and\n      eq\n      iszero\n        /* \"contracts/TetherToken.sol\":1807:1878  if (newOwner != address(0)) {\r... */\n      iszero\n      tag_233\n      jumpi\n        /* \"contracts/TetherToken.sol\":1858:1866  newOwner */\n      dup1\n        /* \"contracts/TetherToken.sol\":1850:1855  owner */\n      0x0\n      dup1\n        /* \"contracts/TetherToken.sol\":1850:1866  owner = newOwner */\n      0x100\n      exp\n      dup2\n      sload\n      dup2\n      0xffffffffffffffffffffffffffffffffffffffff\n      mul\n      not\n      and\n      swap1\n      dup4\n      0xffffffffffffffffffffffffffffffffffffffff\n      and\n      mul\n      or\n      swap1\n      sstore\n      pop\n        /* \"contracts/TetherToken.sol\":1807:1878  if (newOwner != address(0)) {\r... */\n    tag_233:\n        /* \"contracts/TetherToken.sol\":1734:1885  function transferOwnership(address newOwner) public onlyOwner {\r... */\n      pop\n      jump\t// out\n        /* \"contracts/TetherToken.sol\":9035:9359  function destroyBlackFunds (address _blackListedUser) public onlyOwner {\r... */\n    tag_137:\n        /* \"contracts/TetherToken.sol\":9168:9183  uint dirtyFunds */\n      0x0\n        /* \"contracts/TetherToken.sol\":1534:1539  owner */\n      dup1\n      0x0\n      swap1\n      sload\n      swap1\n      0x100\n      exp\n      swap1\n      div\n      0xffffffffffffffffffffffffffffffffffffffff\n      and\n        /* \"contracts/TetherToken.sol\":1520:1539  msg.sender == owner */\n      0xffffffffffffffffffffffffffffffffffffffff\n      and\n        /* \"contracts/TetherToken.sol\":1520:1530  msg.sender */\n      caller\n        /* \"contracts/TetherToken.sol\":1520:1539  msg.sender == owner */\n      0xffffffffffffffffffffffffffffffffffffffff\n      and\n      eq\n        /* \"contracts/TetherToken.sol\":1512:1540  require(msg.sender == owner) */\n      iszero\n      iszero\n      tag_235\n      jumpi\n      0x0\n      dup1\n      revert\n    tag_235:\n        /* \"contracts/TetherToken.sol\":9125:9138  isBlackListed */\n      0x6\n        /* \"contracts/TetherToken.sol\":9125:9156  isBlackListed[_blackListedUser] */\n      0x0\n        /* \"contracts/TetherToken.sol\":9139:9155  _blackListedUser */\n      dup4\n        /* \"contracts/TetherToken.sol\":9125:9156  isBlackListed[_blackListedUser] */\n      0xffffffffffffffffffffffffffffffffffffffff\n      and\n      0xffffffffffffffffffffffffffffffffffffffff\n      and\n      dup2\n      mstore\n      0x20\n      add\n      swap1\n      dup2\n      mstore\n      0x20\n      add\n      0x0\n      keccak256\n      0x0\n      swap1\n      sload\n      swap1\n      0x100\n      exp\n      swap1\n      div\n      0xff\n      and\n        /* \"contracts/TetherToken.sol\":9117:9157  require(isBlackListed[_blackListedUser]) */\n      iszero\n      iszero\n      tag_237\n      jumpi\n      0x0\n      dup1\n      revert\n    tag_237:\n        /* \"contracts/TetherToken.sol\":9186:9213  balanceOf(_blackListedUser) */\n      tag_238\n        /* \"contracts/TetherToken.sol\":9196:9212  _blackListedUser */\n      dup3\n        /* \"contracts/TetherToken.sol\":9186:9195  balanceOf */\n      tag_88\n        /* \"contracts/TetherToken.sol\":9186:9213  balanceOf(_blackListedUser) */\n      jump\t// in\n    tag_238:\n        /* \"contracts/TetherToken.sol\":9168:9213  uint dirtyFunds = balanceOf(_blackListedUser) */\n      swap1\n      pop\n        /* \"contracts/TetherToken.sol\":9253:9254  0 */\n      0x0\n        /* \"contracts/TetherToken.sol\":9224:9232  balances */\n      0x2\n        /* \"contracts/TetherToken.sol\":9224:9250  balances[_blackListedUser] */\n      0x0\n        /* \"contracts/TetherToken.sol\":9233:9249  _blackListedUser */\n      dup5\n        /* \"contracts/TetherToken.sol\":9224:9250  balances[_blackListedUser] */\n      0xffffffffffffffffffffffffffffffffffffffff\n      and\n      0xffffffffffffffffffffffffffffffffffffffff\n      and\n      dup2\n      mstore\n      0x20\n      add\n      swap1\n      dup2\n      mstore\n      0x20\n      add\n      0x0\n      keccak256\n        /* \"contracts/TetherToken.sol\":9224:9254  balances[_blackListedUser] = 0 */\n      dup2\n      swap1\n      sstore\n      pop\n        /* \"contracts/TetherToken.sol\":9281:9291  dirtyFunds */\n      dup1\n        /* \"contracts/TetherToken.sol\":9265:9277  _totalSupply */\n      0x1\n      0x0\n        /* \"contracts/TetherToken.sol\":9265:9291  _totalSupply -= dirtyFunds */\n      dup3\n      dup3\n      sload\n      sub\n      swap3\n      pop\n      pop\n      dup2\n      swap1\n      sstore\n      pop\n        /* \"contracts/TetherToken.sol\":9302:9351  DestroyedBlackFunds(_blackListedUser, dirtyFunds) */\n      0x61e6e66b0d6339b2980aecc6ccc0039736791f0ccde9ed512e789a7fbdd698c6\n        /* \"contracts/TetherToken.sol\":9322:9338  _blackListedUser */\n      dup3\n        /* \"contracts/TetherToken.sol\":9340:9350  dirtyFunds */\n      dup3\n        /* \"contracts/TetherToken.sol\":9302:9351  DestroyedBlackFunds(_blackListedUser, dirtyFunds) */\n      mload(0x40)\n      dup1\n      dup4\n      0xffffffffffffffffffffffffffffffffffffffff\n      and\n      0xffffffffffffffffffffffffffffffffffffffff\n      and\n      dup2\n      mstore\n      0x20\n      add\n      dup3\n      dup2\n      mstore\n      0x20\n      add\n      swap3\n      pop\n      pop\n      pop\n      mload(0x40)\n      dup1\n      swap2\n      sub\n      swap1\n      log1\n        /* \"contracts/TetherToken.sol\":9035:9359  function destroyBlackFunds (address _blackListedUser) public onlyOwner {\r... */\n      pop\n      pop\n      jump\t// out\n        /* \"contracts/TetherToken.sol\":6291:6864  function approve(address _spender, uint _value) public onlyPayloadSize(2 * 32) {\r... */\n    tag_152:\n        /* \"contracts/TetherToken.sol\":6362:6368  2 * 32 */\n      0x40\n        /* \"contracts/TetherToken.sol\":3303:3304  4 */\n      0x4\n        /* \"contracts/TetherToken.sol\":3296:3300  size */\n      dup2\n        /* \"contracts/TetherToken.sol\":3296:3304  size + 4 */\n      add\n        /* \"contracts/TetherToken.sol\":3278:3286  msg.data */\n      0x0\n      calldatasize\n        /* \"contracts/TetherToken.sol\":3278:3293  msg.data.length */\n      swap1\n      pop\n        /* \"contracts/TetherToken.sol\":3278:3304  msg.data.length < size + 4 */\n      lt\n        /* \"contracts/TetherToken.sol\":3276:3305  !(msg.data.length < size + 4) */\n      iszero\n        /* \"contracts/TetherToken.sol\":3268:3306  require(!(msg.data.length < size + 4)) */\n      iszero\n      iszero\n      tag_240\n      jumpi\n      0x0\n      dup1\n      revert\n    tag_240:\n        /* \"contracts/TetherToken.sol\":6712:6713  0 */\n      0x0\n        /* \"contracts/TetherToken.sol\":6702:6708  _value */\n      dup3\n        /* \"contracts/TetherToken.sol\":6702:6713  _value != 0 */\n      eq\n      iszero\n        /* \"contracts/TetherToken.sol\":6701:6754  (_value != 0) && (allowed[msg.sender][_spender] != 0) */\n      dup1\n      iszero\n      tag_242\n      jumpi\n      pop\n        /* \"contracts/TetherToken.sol\":6752:6753  0 */\n      0x0\n        /* \"contracts/TetherToken.sol\":6719:6726  allowed */\n      0x5\n        /* \"contracts/TetherToken.sol\":6719:6738  allowed[msg.sender] */\n      0x0\n        /* \"contracts/TetherToken.sol\":6727:6737  msg.sender */\n      caller\n        /* \"contracts/TetherToken.sol\":6719:6738  allowed[msg.sender] */\n      0xffffffffffffffffffffffffffffffffffffffff\n      and\n      0xffffffffffffffffffffffffffffffffffffffff\n      and\n      dup2\n      mstore\n      0x20\n      add\n      swap1\n      dup2\n      mstore\n      0x20\n      add\n      0x0\n      keccak256\n        /* \"contracts/TetherToken.sol\":6719:6748  allowed[msg.sender][_spender] */\n      0x0\n        /* \"contracts/TetherToken.sol\":6739:6747  _spender */\n      dup6\n        /* \"contracts/TetherToken.sol\":6719:6748  allowed[msg.sender][_spender] */\n      0xffffffffffffffffffffffffffffffffffffffff\n      and\n      0xffffffffffffffffffffffffffffffffffffffff\n      and\n      dup2\n      mstore\n      0x20\n      add\n      swap1\n      dup2\n      mstore\n      0x20\n      add\n      0x0\n      keccak256\n      sload\n        /* \"contracts/TetherToken.sol\":6719:6753  allowed[msg.sender][_spender] != 0 */\n      eq\n      iszero\n        /* \"contracts/TetherToken.sol\":6701:6754  (_value != 0) && (allowed[msg.sender][_spender] != 0) */\n    tag_242:\n        /* \"contracts/TetherToken.sol\":6699:6755  !((_value != 0) && (allowed[msg.sender][_spender] != 0)) */\n      iszero\n        /* \"contracts/TetherToken.sol\":6691:6756  require(!((_value != 0) && (allowed[msg.sender][_spender] != 0))) */\n      iszero\n      iszero\n      tag_243\n      jumpi\n      0x0\n      dup1\n      revert\n    tag_243:\n        /* \"contracts/TetherToken.sol\":6801:6807  _value */\n      dup2\n        /* \"contracts/TetherToken.sol\":6769:6776  allowed */\n      0x5\n        /* \"contracts/TetherToken.sol\":6769:6788  allowed[msg.sender] */\n      0x0\n        /* \"contracts/TetherToken.sol\":6777:6787  msg.sender */\n      caller\n        /* \"contracts/TetherToken.sol\":6769:6788  allowed[msg.sender] */\n      0xffffffffffffffffffffffffffffffffffffffff\n      and\n      0xffffffffffffffffffffffffffffffffffffffff\n      and\n      dup2\n      mstore\n      0x20\n      add\n      swap1\n      dup2\n      mstore\n      0x20\n      add\n      0x0\n      keccak256\n        /* \"contracts/TetherToken.sol\":6769:6798  allowed[msg.sender][_spender] */\n      0x0\n        /* \"contracts/TetherToken.sol\":6789:6797  _spender */\n      dup6\n        /* \"contracts/TetherToken.sol\":6769:6798  allowed[msg.sender][_spender] */\n      0xffffffffffffffffffffffffffffffffffffffff\n      and\n      0xffffffffffffffffffffffffffffffffffffffff\n      and\n      dup2\n      mstore\n      0x20\n      add\n      swap1\n      dup2\n      mstore\n      0x20\n      add\n      0x0\n      keccak256\n        /* \"contracts/TetherToken.sol\":6769:6807  allowed[msg.sender][_spender] = _value */\n      dup2\n      swap1\n      sstore\n      pop\n        /* \"contracts/TetherToken.sol\":6839:6847  _spender */\n      dup3\n        /* \"contracts/TetherToken.sol\":6818:6856  Approval(msg.sender, _spender, _value) */\n      0xffffffffffffffffffffffffffffffffffffffff\n      and\n        /* \"contracts/TetherToken.sol\":6827:6837  msg.sender */\n      caller\n        /* \"contracts/TetherToken.sol\":6818:6856  Approval(msg.sender, _spender, _value) */\n      0xffffffffffffffffffffffffffffffffffffffff\n      and\n      0x8c5be1e5ebec7d5bd14f71427d1e84f3dd0314c0f7b2291e5b200ac8c7c3b925\n        /* \"contracts/TetherToken.sol\":6849:6855  _value */\n      dup5\n        /* \"contracts/TetherToken.sol\":6818:6856  Approval(msg.sender, _spender, _value) */\n      mload(0x40)\n      dup1\n      dup3\n      dup2\n      mstore\n      0x20\n      add\n      swap2\n      pop\n      pop\n      mload(0x40)\n      dup1\n      swap2\n      sub\n      swap1\n      log3\n        /* \"contracts/TetherToken.sol\":6291:6864  function approve(address _spender, uint _value) public onlyPayloadSize(2 * 32) {\r... */\n      pop\n      pop\n      pop\n      jump\t// out\n        /* \"contracts/TetherToken.sol\":5143:6044  function transferFrom(address _from, address _to, uint _value) public onlyPayloadSize(3 * 32) {\r... */\n    tag_170:\n        /* \"contracts/TetherToken.sol\":5248:5262  var _allowance */\n      0x0\n        /* \"contracts/TetherToken.sol\":5462:5470  uint fee */\n      dup1\n        /* \"contracts/TetherToken.sol\":5714:5729  uint sendAmount */\n      0x0\n        /* \"contracts/TetherToken.sol\":5229:5235  3 * 32 */\n      0x60\n        /* \"contracts/TetherToken.sol\":3303:3304  4 */\n      0x4\n        /* \"contracts/TetherToken.sol\":3296:3300  size */\n      dup2\n        /* \"contracts/TetherToken.sol\":3296:3304  size + 4 */\n      add\n        /* \"contracts/TetherToken.sol\":3278:3286  msg.data */\n      0x0\n      calldatasize\n        /* \"contracts/TetherToken.sol\":3278:3293  msg.data.length */\n      swap1\n      pop\n        /* \"contracts/TetherToken.sol\":3278:3304  msg.data.length < size + 4 */\n      lt\n        /* \"contracts/TetherToken.sol\":3276:3305  !(msg.data.length < size + 4) */\n      iszero\n        /* \"contracts/TetherToken.sol\":3268:3306  require(!(msg.data.length < size + 4)) */\n      iszero\n      iszero\n      tag_245\n      jumpi\n      0x0\n      dup1\n      revert\n    tag_245:\n        /* \"contracts/TetherToken.sol\":5265:5272  allowed */\n      0x5\n        /* \"contracts/TetherToken.sol\":5265:5279  allowed[_from] */\n      0x0\n        /* \"contracts/TetherToken.sol\":5273:5278  _from */\n      dup9\n        /* \"contracts/TetherToken.sol\":5265:5279  allowed[_from] */\n      0xffffffffffffffffffffffffffffffffffffffff\n      and\n      0xffffffffffffffffffffffffffffffffffffffff\n      and\n      dup2\n      mstore\n      0x20\n      add\n      swap1\n      dup2\n      mstore\n      0x20\n      add\n      0x0\n      keccak256\n        /* \"contracts/TetherToken.sol\":5265:5291  allowed[_from][msg.sender] */\n      0x0\n        /* \"contracts/TetherToken.sol\":5280:5290  msg.sender */\n      caller\n        /* \"contracts/TetherToken.sol\":5265:5291  allowed[_from][msg.sender] */\n      0xffffffffffffffffffffffffffffffffffffffff\n      and\n      0xffffffffffffffffffffffffffffffffffffffff\n      and\n      dup2\n      mstore\n      0x20\n      add\n      swap1\n      dup2\n      mstore\n      0x20\n      add\n      0x0\n      keccak256\n      sload\n        /* \"contracts/TetherToken.sol\":5248:5291  var _allowance = allowed[_from][msg.sender] */\n      swap4\n      pop\n        /* \"contracts/TetherToken.sol\":5473:5513  (_value.mul(basisPointsRate)).div(10000) */\n      tag_247\n        /* \"contracts/TetherToken.sol\":5507:5512  10000 */\n      0x2710\n        /* \"contracts/TetherToken.sol\":5474:5501  _value.mul(basisPointsRate) */\n      tag_248\n        /* \"contracts/TetherToken.sol\":5485:5500  basisPointsRate */\n      sload(0x3)\n        /* \"contracts/TetherToken.sol\":5474:5480  _value */\n      dup9\n        /* \"contracts/TetherToken.sol\":5474:5484  _value.mul */\n      tag_209\n      swap1\n        /* \"contracts/TetherToken.sol\":5474:5501  _value.mul(basisPointsRate) */\n      swap2\n      swap1\n      0xffffffff\n      and\n      jump\t// in\n    tag_248:\n        /* \"contracts/TetherToken.sol\":5473:5506  (_value.mul(basisPointsRate)).div */\n      tag_249\n      swap1\n        /* \"contracts/TetherToken.sol\":5473:5513  (_value.mul(basisPointsRate)).div(10000) */\n      swap2\n      swap1\n      0xffffffff\n      and\n      jump\t// in\n    tag_247:\n        /* \"contracts/TetherToken.sol\":5462:5513  uint fee = (_value.mul(basisPointsRate)).div(10000) */\n      swap3\n      pop\n        /* \"contracts/TetherToken.sol\":5534:5544  maximumFee */\n      sload(0x4)\n        /* \"contracts/TetherToken.sol\":5528:5531  fee */\n      dup4\n        /* \"contracts/TetherToken.sol\":5528:5544  fee > maximumFee */\n      gt\n        /* \"contracts/TetherToken.sol\":5524:5589  if (fee > maximumFee) {\r... */\n      iszero\n      tag_250\n      jumpi\n        /* \"contracts/TetherToken.sol\":5567:5577  maximumFee */\n      sload(0x4)\n        /* \"contracts/TetherToken.sol\":5561:5577  fee = maximumFee */\n      swap3\n      pop\n        /* \"contracts/TetherToken.sol\":5524:5589  if (fee > maximumFee) {\r... */\n    tag_250:\n        /* \"contracts/TetherToken.sol\":4843:4853  2**256 - 1 */\n      0xffffffffffffffffffffffffffffffffffffffffffffffffffffffffffffffff\n        /* \"contracts/TetherToken.sol\":5603:5613  _allowance */\n      dup5\n        /* \"contracts/TetherToken.sol\":5603:5624  _allowance < MAX_UINT */\n      lt\n        /* \"contracts/TetherToken.sol\":5599:5704  if (_allowance < MAX_UINT) {\r... */\n      iszero\n      tag_251\n      jumpi\n        /* \"contracts/TetherToken.sol\":5670:5692  _allowance.sub(_value) */\n      tag_252\n        /* \"contracts/TetherToken.sol\":5685:5691  _value */\n      dup6\n        /* \"contracts/TetherToken.sol\":5670:5680  _allowance */\n      dup6\n        /* \"contracts/TetherToken.sol\":5670:5684  _allowance.sub */\n      tag_253\n      swap1\n        /* \"contracts/TetherToken.sol\":5670:5692  _allowance.sub(_value) */\n      swap2\n      swap1\n      0xffffffff\n      and\n      jump\t// in\n    tag_252:\n        /* \"contracts/TetherToken.sol\":5641:5648  allowed */\n      0x5\n        /* \"contracts/TetherToken.sol\":5641:5655  allowed[_from] */\n      0x0\n        /* \"contracts/TetherToken.sol\":5649:5654  _from */\n      dup10\n        /* \"contracts/TetherToken.sol\":5641:5655  allowed[_from] */\n      0xffffffffffffffffffffffffffffffffffffffff\n      and\n      0xffffffffffffffffffffffffffffffffffffffff\n      and\n      dup2\n      mstore\n      0x20\n      add\n      swap1\n      dup2\n      mstore\n      0x20\n      add\n      0x0\n      keccak256\n        /* \"contracts/TetherToken.sol\":5641:5667  allowed[_from][msg.sender] */\n      0x0\n        /* \"contracts/TetherToken.sol\":5656:5666  msg.sender */\n      caller\n        /* \"contracts/TetherToken.sol\":5641:5667  allowed[_from][msg.sender] */\n      0xffffffffffffffffffffffffffffffffffffffff\n      and\n      0xffffffffffffffffffffffffffffffffffffffff\n      and\n      dup2\n      mstore\n      0x20\n      add\n      swap1\n      dup2\n      mstore\n      0x20\n      add\n      0x0\n      keccak256\n        /* \"contracts/TetherToken.sol\":5641:5692  allowed[_from][msg.sender] = _allowance.sub(_value) */\n      dup2\n      swap1\n      sstore\n      pop\n        /* \"contracts/TetherToken.sol\":5599:5704  if (_allowance < MAX_UINT) {\r... */\n    tag_251:\n        /* \"contracts/TetherToken.sol\":5732:5747  _value.sub(fee) */\n      tag_254\n        /* \"contracts/TetherToken.sol\":5743:5746  fee */\n      dup4\n        /* \"contracts/TetherToken.sol\":5732:5738  _value */\n      dup7\n        /* \"contracts/TetherToken.sol\":5732:5742  _value.sub */\n      tag_253\n      swap1\n        /* \"contracts/TetherToken.sol\":5732:5747  _value.sub(fee) */\n      swap2\n      swap1\n      0xffffffff\n      and\n      jump\t// in\n    tag_254:\n        /* \"contracts/TetherToken.sol\":5714:5747  uint sendAmount = _value.sub(fee) */\n      swap2\n      pop\n        /* \"contracts/TetherToken.sol\":5776:5803  balances[_from].sub(_value) */\n      tag_255\n        /* \"contracts/TetherToken.sol\":5796:5802  _value */\n      dup6\n        /* \"contracts/TetherToken.sol\":5776:5784  balances */\n      0x2\n        /* \"contracts/TetherToken.sol\":5776:5791  balances[_from] */\n      0x0\n        /* \"contracts/TetherToken.sol\":5785:5790  _from */\n      dup11\n        /* \"contracts/TetherToken.sol\":5776:5791  balances[_from] */\n      0xffffffffffffffffffffffffffffffffffffffff\n      and\n      0xffffffffffffffffffffffffffffffffffffffff\n      and\n      dup2\n      mstore\n      0x20\n      add\n      swap1\n      dup2\n      mstore\n      0x20\n      add\n      0x0\n      keccak256\n      sload\n        /* \"contracts/TetherToken.sol\":5776:5795  balances[_from].sub */\n      tag_253\n      swap1\n        /* \"contracts/TetherToken.sol\":5776:5803  balances[_from].sub(_value) */\n      swap2\n      swap1\n      0xffffffff\n      and\n      jump\t// in\n    tag_255:\n        /* \"contracts/TetherToken.sol\":5758:5766  balances */\n      0x2\n        /* \"contracts/TetherToken.sol\":5758:5773  balances[_from] */\n      0x0\n        /* \"contracts/TetherToken.sol\":5767:5772  _from */\n      dup10\n        /* \"contracts/TetherToken.sol\":5758:5773  balances[_from] */\n      0xffffffffffffffffffffffffffffffffffffffff\n      and\n      0xffffffffffffffffffffffffffffffffffffffff\n      and\n      dup2\n      mstore\n      0x20\n      add\n      swap1\n      dup2\n      mstore\n      0x20\n      add\n      0x0\n      keccak256\n        /* \"contracts/TetherToken.sol\":5758:5803  balances[_from] = balances[_from].sub(_value) */\n      dup2\n      swap1\n      sstore\n      pop\n        /* \"contracts/TetherToken.sol\":5830:5859  balances[_to].add(sendAmount) */\n      tag_256\n        /* \"contracts/TetherToken.sol\":5848:5858  sendAmount */\n      dup3\n        /* \"contracts/TetherToken.sol\":5830:5838  balances */\n      0x2\n        /* \"contracts/TetherToken.sol\":5830:5843  balances[_to] */\n      0x0\n        /* \"contracts/TetherToken.sol\":5839:5842  _to */\n      dup10\n        /* \"contracts/TetherToken.sol\":5830:5843  balances[_to] */\n      0xffffffffffffffffffffffffffffffffffffffff\n      and\n      0xffffffffffffffffffffffffffffffffffffffff\n      and\n      dup2\n      mstore\n      0x20\n      add\n      swap1\n      dup2\n      mstore\n      0x20\n      add\n      0x0\n      keccak256\n      sload\n        /* \"contracts/TetherToken.sol\":5830:5847  balances[_to].add */\n      tag_257\n      swap1\n        /* \"contracts/TetherToken.sol\":5830:5859  balances[_to].add(sendAmount) */\n      swap2\n      swap1\n      0xffffffff\n      and\n      jump\t// in\n    tag_256:\n        /* \"contracts/TetherToken.sol\":5814:5822  balances */\n      0x2\n        /* \"contracts/TetherToken.sol\":5814:5827  balances[_to] */\n      0x0\n        /* \"contracts/TetherToken.sol\":5823:5826  _to */\n      dup9\n        /* \"contracts/TetherToken.sol\":5814:5827  balances[_to] */\n      0xffffffffffffffffffffffffffffffffffffffff\n      and\n      0xffffffffffffffffffffffffffffffffffffffff\n      and\n      dup2\n      mstore\n      0x20\n      add\n      swap1\n      dup2\n      mstore\n      0x20\n      add\n      0x0\n      keccak256\n        /* \"contracts/TetherToken.sol\":5814:5859  balances[_to] = balances[_to].add(sendAmount) */\n      dup2\n      swap1\n      sstore\n      pop\n        /* \"contracts/TetherToken.sol\":5880:5881  0 */\n      0x0\n        /* \"contracts/TetherToken.sol\":5874:5877  fee */\n      dup4\n        /* \"contracts/TetherToken.sol\":5874:5881  fee > 0 */\n      gt\n        /* \"contracts/TetherToken.sol\":5870:5994  if (fee > 0) {\r... */\n      iszero\n      tag_258\n      jumpi\n        /* \"contracts/TetherToken.sol\":5916:5940  balances[owner].add(fee) */\n      tag_259\n        /* \"contracts/TetherToken.sol\":5936:5939  fee */\n      dup4\n        /* \"contracts/TetherToken.sol\":5916:5924  balances */\n      0x2\n        /* \"contracts/TetherToken.sol\":5916:5931  balances[owner] */\n      0x0\n        /* \"contracts/TetherToken.sol\":5925:5930  owner */\n      dup1\n      0x0\n      swap1\n      sload\n      swap1\n      0x100\n      exp\n      swap1\n      div\n      0xffffffffffffffffffffffffffffffffffffffff\n      and\n        /* \"contracts/TetherToken.sol\":5916:5931  balances[owner] */\n      0xffffffffffffffffffffffffffffffffffffffff\n      and\n      0xffffffffffffffffffffffffffffffffffffffff\n      and\n      dup2\n      mstore\n      0x20\n      add\n      swap1\n      dup2\n      mstore\n      0x20\n      add\n      0x0\n      keccak256\n      sload\n        /* \"contracts/TetherToken.sol\":5916:5935  balances[owner].add */\n      tag_257\n      swap1\n        /* \"contracts/TetherToken.sol\":5916:5940  balances[owner].add(fee) */\n      swap2\n      swap1\n      0xffffffff\n      and\n      jump\t// in\n    tag_259:\n        /* \"contracts/TetherToken.sol\":5898:5906  balances */\n      0x2\n        /* \"contracts/TetherToken.sol\":5898:5913  balances[owner] */\n      0x0\n        /* \"contracts/TetherToken.sol\":5907:5912  owner */\n      dup1\n      0x0\n      swap1\n      sload\n      swap1\n      0x100\n      exp\n      swap1\n      div\n      0xffffffffffffffffffffffffffffffffffffffff\n      and\n        /* \"contracts/TetherToken.sol\":5898:5913  balances[owner] */\n      0xffffffffffffffffffffffffffffffffffffffff\n      and\n      0xffffffffffffffffffffffffffffffffffffffff\n      and\n      dup2\n      mstore\n      0x20\n      add\n      swap1\n      dup2\n      mstore\n      0x20\n      add\n      0x0\n      keccak256\n        /* \"contracts/TetherToken.sol\":5898:5940  balances[owner] = balances[owner].add(fee) */\n      dup2\n      swap1\n      sstore\n      pop\n        /* \"contracts/TetherToken.sol\":5971:5976  owner */\n      0x0\n      dup1\n      swap1\n      sload\n      swap1\n      0x100\n      exp\n      swap1\n      div\n      0xffffffffffffffffffffffffffffffffffffffff\n      and\n        /* \"contracts/TetherToken.sol\":5955:5982  Transfer(_from, owner, fee) */\n      0xffffffffffffffffffffffffffffffffffffffff\n      and\n        /* \"contracts/TetherToken.sol\":5964:5969  _from */\n      dup8\n        /* \"contracts/TetherToken.sol\":5955:5982  Transfer(_from, owner, fee) */\n      0xffffffffffffffffffffffffffffffffffffffff\n      and\n      0xddf252ad1be2c89b69c2b068fc378daa952ba7f163c4a11628f55a4df523b3ef\n        /* \"contracts/TetherToken.sol\":5978:5981  fee */\n      dup6\n        /* \"contracts/TetherToken.sol\":5955:5982  Transfer(_from, owner, fee) */\n      mload(0x40)\n      dup1\n      dup3\n      dup2\n      mstore\n      0x20\n      add\n      swap2\n      pop\n      pop\n      mload(0x40)\n      dup1\n      swap2\n      sub\n      swap1\n      log3\n        /* \"contracts/TetherToken.sol\":5870:5994  if (fee > 0) {\r... */\n    tag_258:\n        /* \"contracts/TetherToken.sol\":6020:6023  _to */\n      dup6\n        /* \"contracts/TetherToken.sol\":6004:6036  Transfer(_from, _to, sendAmount) */\n      0xffffffffffffffffffffffffffffffffffffffff\n      and\n        /* \"contracts/TetherToken.sol\":6013:6018  _from */\n      dup8\n        /* \"contracts/TetherToken.sol\":6004:6036  Transfer(_from, _to, sendAmount) */\n      0xffffffffffffffffffffffffffffffffffffffff\n      and\n      0xddf252ad1be2c89b69c2b068fc378daa952ba7f163c4a11628f55a4df523b3ef\n        /* \"contracts/TetherToken.sol\":6025:6035  sendAmount */\n      dup5\n        /* \"contracts/TetherToken.sol\":6004:6036  Transfer(_from, _to, sendAmount) */\n      mload(0x40)\n      dup1\n      dup3\n      dup2\n      mstore\n      0x20\n      add\n      swap2\n      pop\n      pop\n      mload(0x40)\n      dup1\n      swap2\n      sub\n      swap1\n      log3\n        /* \"contracts/TetherToken.sol\":5143:6044  function transferFrom(address _from, address _to, uint _value) public onlyPayloadSize(3 * 32) {\r... */\n      pop\n      pop\n      pop\n      pop\n      pop\n      pop\n      pop\n      jump\t// out\n        /* \"contracts/TetherToken.sol\":4290:4406  function balanceOf(address _owner) public constant returns (uint balance) {\r... */\n    tag_183:\n        /* \"contracts/TetherToken.sol\":4350:4362  uint balance */\n      0x0\n        /* \"contracts/TetherToken.sol\":4382:4390  balances */\n      0x2\n        /* \"contracts/TetherToken.sol\":4382:4398  balances[_owner] */\n      0x0\n        /* \"contracts/TetherToken.sol\":4391:4397  _owner */\n      dup4\n        /* \"contracts/TetherToken.sol\":4382:4398  balances[_owner] */\n      0xffffffffffffffffffffffffffffffffffffffff\n      and\n      0xffffffffffffffffffffffffffffffffffffffff\n      and\n      dup2\n      mstore\n      0x20\n      add\n      swap1\n      dup2\n      mstore\n      0x20\n      add\n      0x0\n      keccak256\n      sload\n        /* \"contracts/TetherToken.sol\":4375:4398  return balances[_owner] */\n      swap1\n      pop\n        /* \"contracts/TetherToken.sol\":4290:4406  function balanceOf(address _owner) public constant returns (uint balance) {\r... */\n      swap2\n      swap1\n      pop\n      jump\t// out\n        /* \"contracts/TetherToken.sol\":3499:4072  function transfer(address _to, uint _value) public onlyPayloadSize(2 * 32) {\r... */\n    tag_202:\n        /* \"contracts/TetherToken.sol\":3585:3593  uint fee */\n      0x0\n        /* \"contracts/TetherToken.sol\":3722:3737  uint sendAmount */\n      dup1\n        /* \"contracts/TetherToken.sol\":3566:3572  2 * 32 */\n      0x40\n        /* \"contracts/TetherToken.sol\":3303:3304  4 */\n      0x4\n        /* \"contracts/TetherToken.sol\":3296:3300  size */\n      dup2\n        /* \"contracts/TetherToken.sol\":3296:3304  size + 4 */\n      add\n        /* \"contracts/TetherToken.sol\":3278:3286  msg.data */\n      0x0\n      calldatasize\n        /* \"contracts/TetherToken.sol\":3278:3293  msg.data.length */\n      swap1\n      pop\n        /* \"contracts/TetherToken.sol\":3278:3304  msg.data.length < size + 4 */\n      lt\n        /* \"contracts/TetherToken.sol\":3276:3305  !(msg.data.length < size + 4) */\n      iszero\n        /* \"contracts/TetherToken.sol\":3268:3306  require(!(msg.data.length < size + 4)) */\n      iszero\n      iszero\n      tag_262\n      jumpi\n      0x0\n      dup1\n      revert\n    tag_262:\n        /* \"contracts/TetherToken.sol\":3596:3636  (_value.mul(basisPointsRate)).div(10000) */\n      tag_264\n        /* \"contracts/TetherToken.sol\":3630:3635  10000 */\n      0x2710\n        /* \"contracts/TetherToken.sol\":3597:3624  _value.mul(basisPointsRate) */\n      tag_265\n        /* \"contracts/TetherToken.sol\":3608:3623  basisPointsRate */\n      sload(0x3)\n        /* \"contracts/TetherToken.sol\":3597:3603  _value */\n      dup8\n        /* \"contracts/TetherToken.sol\":3597:3607  _value.mul */\n      tag_209\n      swap1\n        /* \"contracts/TetherToken.sol\":3597:3624  _value.mul(basisPointsRate) */\n      swap2\n      swap1\n      0xffffffff\n      and\n      jump\t// in\n    tag_265:\n        /* \"contracts/TetherToken.sol\":3596:3629  (_value.mul(basisPointsRate)).div */\n      tag_249\n      swap1\n        /* \"contracts/TetherToken.sol\":3596:3636  (_value.mul(basisPointsRate)).div(10000) */\n      swap2\n      swap1\n      0xffffffff\n      and\n      jump\t// in\n    tag_264:\n        /* \"contracts/TetherToken.sol\":3585:3636  uint fee = (_value.mul(basisPointsRate)).div(10000) */\n      swap3\n      pop\n        /* \"contracts/TetherToken.sol\":3657:3667  maximumFee */\n      sload(0x4)\n        /* \"contracts/TetherToken.sol\":3651:3654  fee */\n      dup4\n        /* \"contracts/TetherToken.sol\":3651:3667  fee > maximumFee */\n      gt\n        /* \"contracts/TetherToken.sol\":3647:3712  if (fee > maximumFee) {\r... */\n      iszero\n      tag_266\n      jumpi\n        /* \"contracts/TetherToken.sol\":3690:3700  maximumFee */\n      sload(0x4)\n        /* \"contracts/TetherToken.sol\":3684:3700  fee = maximumFee */\n      swap3\n      pop\n        /* \"contracts/TetherToken.sol\":3647:3712  if (fee > maximumFee) {\r... */\n    tag_266:\n        /* \"contracts/TetherToken.sol\":3740:3755  _value.sub(fee) */\n      tag_267\n        /* \"contracts/TetherToken.sol\":3751:3754  fee */\n      dup4\n        /* \"contracts/TetherToken.sol\":3740:3746  _value */\n      dup6\n        /* \"contracts/TetherToken.sol\":3740:3750  _value.sub */\n      tag_253\n      swap1\n        /* \"contracts/TetherToken.sol\":3740:3755  _value.sub(fee) */\n      swap2\n      swap1\n      0xffffffff\n      and\n      jump\t// in\n    tag_267:\n        /* \"contracts/TetherToken.sol\":3722:3755  uint sendAmount = _value.sub(fee) */\n      swap2\n      pop\n        /* \"contracts/TetherToken.sol\":3789:3821  balances[msg.sender].sub(_value) */\n      tag_268\n        /* \"contracts/TetherToken.sol\":3814:3820  _value */\n      dup5\n        /* \"contracts/TetherToken.sol\":3789:3797  balances */\n      0x2\n        /* \"contracts/TetherToken.sol\":3789:3809  balances[msg.sender] */\n      0x0\n        /* \"contracts/TetherToken.sol\":3798:3808  msg.sender */\n      caller\n        /* \"contracts/TetherToken.sol\":3789:3809  balances[msg.sender] */\n      0xffffffffffffffffffffffffffffffffffffffff\n      and\n      0xffffffffffffffffffffffffffffffffffffffff\n      and\n      dup2\n      mstore\n      0x20\n      add\n      swap1\n      dup2\n      mstore\n      0x20\n      add\n      0x0\n      keccak256\n      sload\n        /* \"contracts/TetherToken.sol\":3789:3813  balances[msg.sender].sub */\n      tag_253\n      swap1\n        /* \"contracts/TetherToken.sol\":3789:3821  balances[msg.sender].sub(_value) */\n      swap2\n      swap1\n      0xffffffff\n      and\n      jump\t// in\n    tag_268:\n        /* \"contracts/TetherToken.sol\":3766:3774  balances */\n      0x2\n        /* \"contracts/TetherToken.sol\":3766:3786  balances[msg.sender] */\n      0x0\n        /* \"contracts/TetherToken.sol\":3775:3785  msg.sender */\n      caller\n        /* \"contracts/TetherToken.sol\":3766:3786  balances[msg.sender] */\n      0xffffffffffffffffffffffffffffffffffffffff\n      and\n      0xffffffffffffffffffffffffffffffffffffffff\n      and\n      dup2\n      mstore\n      0x20\n      add\n      swap1\n      dup2\n      mstore\n      0x20\n      add\n      0x0\n      keccak256\n        /* \"contracts/TetherToken.sol\":3766:3821  balances[msg.sender] = balances[msg.sender].sub(_value) */\n      dup2\n      swap1\n      sstore\n      pop\n        /* \"contracts/TetherToken.sol\":3848:3877  balances[_to].add(sendAmount) */\n      tag_269\n        /* \"contracts/TetherToken.sol\":3866:3876  sendAmount */\n      dup3\n        /* \"contracts/TetherToken.sol\":3848:3856  balances */\n      0x2\n        /* \"contracts/TetherToken.sol\":3848:3861  balances[_to] */\n      0x0\n        /* \"contracts/TetherToken.sol\":3857:3860  _to */\n      dup9\n        /* \"contracts/TetherToken.sol\":3848:3861  balances[_to] */\n      0xffffffffffffffffffffffffffffffffffffffff\n      and\n      0xffffffffffffffffffffffffffffffffffffffff\n      and\n      dup2\n      mstore\n      0x20\n      add\n      swap1\n      dup2\n      mstore\n      0x20\n      add\n      0x0\n      keccak256\n      sload\n        /* \"contracts/TetherToken.sol\":3848:3865  balances[_to].add */\n      tag_257\n      swap1\n        /* \"contracts/TetherToken.sol\":3848:3877  balances[_to].add(sendAmount) */\n      swap2\n      swap1\n      0xffffffff\n      and\n      jump\t// in\n    tag_269:\n        /* \"contracts/TetherToken.sol\":3832:3840  balances */\n      0x2\n        /* \"contracts/TetherToken.sol\":3832:3845  balances[_to] */\n      0x0\n        /* \"contracts/TetherToken.sol\":3841:3844  _to */\n      dup8\n        /* \"contracts/TetherToken.sol\":3832:3845  balances[_to] */\n      0xffffffffffffffffffffffffffffffffffffffff\n      and\n      0xffffffffffffffffffffffffffffffffffffffff\n      and\n      dup2\n      mstore\n      0x20\n      add\n      swap1\n      dup2\n      mstore\n      0x20\n      add\n      0x0\n      keccak256\n        /* \"contracts/TetherToken.sol\":3832:3877  balances[_to] = balances[_to].add(sendAmount) */\n      dup2\n      swap1\n      sstore\n      pop\n        /* \"contracts/TetherToken.sol\":3898:3899  0 */\n      0x0\n        /* \"contracts/TetherToken.sol\":3892:3895  fee */\n      dup4\n        /* \"contracts/TetherToken.sol\":3892:3899  fee > 0 */\n      gt\n        /* \"contracts/TetherToken.sol\":3888:4017  if (fee > 0) {\r... */\n      iszero\n      tag_270\n      jumpi\n        /* \"contracts/TetherToken.sol\":3934:3958  balances[owner].add(fee) */\n      tag_271\n        /* \"contracts/TetherToken.sol\":3954:3957  fee */\n      dup4\n        /* \"contracts/TetherToken.sol\":3934:3942  balances */\n      0x2\n        /* \"contracts/TetherToken.sol\":3934:3949  balances[owner] */\n      0x0\n        /* \"contracts/TetherToken.sol\":3943:3948  owner */\n      dup1\n      0x0\n      swap1\n      sload\n      swap1\n      0x100\n      exp\n      swap1\n      div\n      0xffffffffffffffffffffffffffffffffffffffff\n      and\n        /* \"contracts/TetherToken.sol\":3934:3949  balances[owner] */\n      0xffffffffffffffffffffffffffffffffffffffff\n      and\n      0xffffffffffffffffffffffffffffffffffffffff\n      and\n      dup2\n      mstore\n      0x20\n      add\n      swap1\n      dup2\n      mstore\n      0x20\n      add\n      0x0\n      keccak256\n      sload\n        /* \"contracts/TetherToken.sol\":3934:3953  balances[owner].add */\n      tag_257\n      swap1\n        /* \"contracts/TetherToken.sol\":3934:3958  balances[owner].add(fee) */\n      swap2\n      swap1\n      0xffffffff\n      and\n      jump\t// in\n    tag_271:\n        /* \"contracts/TetherToken.sol\":3916:3924  balances */\n      0x2\n        /* \"contracts/TetherToken.sol\":3916:3931  balances[owner] */\n      0x0\n        /* \"contracts/TetherToken.sol\":3925:3930  owner */\n      dup1\n      0x0\n      swap1\n      sload\n      swap1\n      0x100\n      exp\n      swap1\n      div\n      0xffffffffffffffffffffffffffffffffffffffff\n      and\n        /* \"contracts/TetherToken.sol\":3916:3931  balances[owner] */\n      0xffffffffffffffffffffffffffffffffffffffff\n      and\n      0xffffffffffffffffffffffffffffffffffffffff\n      and\n      dup2\n      mstore\n      0x20\n      add\n      swap1\n      dup2\n      mstore\n      0x20\n      add\n      0x0\n      keccak256\n        /* \"contracts/TetherToken.sol\":3916:3958  balances[owner] = balances[owner].add(fee) */\n      dup2\n      swap1\n      sstore\n      pop\n        /* \"contracts/TetherToken.sol\":3994:3999  owner */\n      0x0\n      dup1\n      swap1\n      sload\n      swap1\n      0x100\n      exp\n      swap1\n      div\n      0xffffffffffffffffffffffffffffffffffffffff\n      and\n        /* \"contracts/TetherToken.sol\":3973:4005  Transfer(msg.sender, owner, fee) */\n      0xffffffffffffffffffffffffffffffffffffffff\n      and\n        /* \"contracts/TetherToken.sol\":3982:3992  msg.sender */\n      caller\n        /* \"contracts/TetherToken.sol\":3973:4005  Transfer(msg.sender, owner, fee) */\n      0xffffffffffffffffffffffffffffffffffffffff\n      and\n      0xddf252ad1be2c89b69c2b068fc378daa952ba7f163c4a11628f55a4df523b3ef\n        /* \"contracts/TetherToken.sol\":4001:4004  fee */\n      dup6\n        /* \"contracts/TetherToken.sol\":3973:4005  Transfer(msg.sender, owner, fee) */\n      mload(0x40)\n      dup1\n      dup3\n      dup2\n      mstore\n      0x20\n      add\n      swap2\n      pop\n      pop\n      mload(0x40)\n      dup1\n      swap2\n      sub\n      swap1\n      log3\n        /* \"contracts/TetherToken.sol\":3888:4017  if (fee > 0) {\r... */\n    tag_270:\n        /* \"contracts/TetherToken.sol\":4048:4051  _to */\n      dup5\n        /* \"contracts/TetherToken.sol\":4027:4064  Transfer(msg.sender, _to, sendAmount) */\n      0xffffffffffffffffffffffffffffffffffffffff\n      and\n        /* \"contracts/TetherToken.sol\":4036:4046  msg.sender */\n      caller\n        /* \"contracts/TetherToken.sol\":4027:4064  Transfer(msg.sender, _to, sendAmount) */\n      0xffffffffffffffffffffffffffffffffffffffff\n      and\n      0xddf252ad1be2c89b69c2b068fc378daa952ba7f163c4a11628f55a4df523b3ef\n        /* \"contracts/TetherToken.sol\":4053:4063  sendAmount */\n      dup5\n        /* \"contracts/TetherToken.sol\":4027:4064  Transfer(msg.sender, _to, sendAmount) */\n      mload(0x40)\n      dup1\n      dup3\n      dup2\n      mstore\n      0x20\n      add\n      swap2\n      pop\n      pop\n      mload(0x40)\n      dup1\n      swap2\n      sub\n      swap1\n      log3\n        /* \"contracts/TetherToken.sol\":3499:4072  function transfer(address _to, uint _value) public onlyPayloadSize(2 * 32) {\r... */\n      pop\n      pop\n      pop\n      pop\n      pop\n      jump\t// out\n        /* \"contracts/TetherToken.sol\":146:354  function mul(uint256 a, uint256 b) internal pure returns (uint256) {\r... */\n    tag_209:\n        /* \"contracts/TetherToken.sol\":204:211  uint256 */\n      0x0\n        /* \"contracts/TetherToken.sol\":281:290  uint256 c */\n      dup1\n        /* \"contracts/TetherToken.sol\":233:234  0 */\n      0x0\n        /* \"contracts/TetherToken.sol\":228:229  a */\n      dup5\n        /* \"contracts/TetherToken.sol\":228:234  a == 0 */\n      eq\n        /* \"contracts/TetherToken.sol\":224:271  if (a == 0) {\r... */\n      iszero\n      tag_273\n      jumpi\n        /* \"contracts/TetherToken.sol\":258:259  0 */\n      0x0\n        /* \"contracts/TetherToken.sol\":251:259  return 0 */\n      swap2\n      pop\n      jump(tag_272)\n        /* \"contracts/TetherToken.sol\":224:271  if (a == 0) {\r... */\n    tag_273:\n        /* \"contracts/TetherToken.sol\":297:298  b */\n      dup3\n        /* \"contracts/TetherToken.sol\":293:294  a */\n      dup5\n        /* \"contracts/TetherToken.sol\":293:298  a * b */\n      mul\n        /* \"contracts/TetherToken.sol\":281:298  uint256 c = a * b */\n      swap1\n      pop\n        /* \"contracts/TetherToken.sol\":325:326  b */\n      dup3\n        /* \"contracts/TetherToken.sol\":320:321  a */\n      dup5\n        /* \"contracts/TetherToken.sol\":316:317  c */\n      dup3\n        /* \"contracts/TetherToken.sol\":316:321  c / a */\n      dup2\n      iszero\n      iszero\n      tag_274\n      jumpi\n      invalid\n    tag_274:\n      div\n        /* \"contracts/TetherToken.sol\":316:326  c / a == b */\n      eq\n        /* \"contracts/TetherToken.sol\":309:327  assert(c / a == b) */\n      iszero\n      iszero\n      tag_275\n      jumpi\n      invalid\n    tag_275:\n        /* \"contracts/TetherToken.sol\":345:346  c */\n      dup1\n        /* \"contracts/TetherToken.sol\":338:346  return c */\n      swap2\n      pop\n        /* \"contracts/TetherToken.sol\":146:354  function mul(uint256 a, uint256 b) internal pure returns (uint256) {\r... */\n    tag_272:\n      pop\n      swap3\n      swap2\n      pop\n      pop\n      jump\t// out\n        /* \"contracts/TetherToken.sol\":7197:7342  function allowance(address _owner, address _spender) public constant returns (uint remaining) {\r... */\n    tag_226:\n        /* \"contracts/TetherToken.sol\":7275:7289  uint remaining */\n      0x0\n        /* \"contracts/TetherToken.sol\":7309:7316  allowed */\n      0x5\n        /* \"contracts/TetherToken.sol\":7309:7324  allowed[_owner] */\n      0x0\n        /* \"contracts/TetherToken.sol\":7317:7323  _owner */\n      dup5\n        /* \"contracts/TetherToken.sol\":7309:7324  allowed[_owner] */\n      0xffffffffffffffffffffffffffffffffffffffff\n      and\n      0xffffffffffffffffffffffffffffffffffffffff\n      and\n      dup2\n      mstore\n      0x20\n      add\n      swap1\n      dup2\n      mstore\n      0x20\n      add\n      0x0\n      keccak256\n        /* \"contracts/TetherToken.sol\":7309:7334  allowed[_owner][_spender] */\n      0x0\n        /* \"contracts/TetherToken.sol\":7325:7333  _spender */\n      dup4\n        /* \"contracts/TetherToken.sol\":7309:7334  allowed[_owner][_spender] */\n      0xffffffffffffffffffffffffffffffffffffffff\n      and\n      0xffffffffffffffffffffffffffffffffffffffff\n      and\n      dup2\n      mstore\n      0x20\n      add\n      swap1\n      dup2\n      mstore\n      0x20\n      add\n      0x0\n      keccak256\n      sload\n        /* \"contracts/TetherToken.sol\":7302:7334  return allowed[_owner][_spender] */\n      swap1\n      pop\n        /* \"contracts/TetherToken.sol\":7197:7342  function allowance(address _owner, address _spender) public constant returns (uint remaining) {\r... */\n      swap3\n      swap2\n      pop\n      pop\n      jump\t// out\n        /* \"contracts/TetherToken.sol\":362:650  function div(uint256 a, uint256 b) internal pure returns (uint256) {\r... */\n    tag_249:\n        /* \"contracts/TetherToken.sol\":420:427  uint256 */\n      0x0\n        /* \"contracts/TetherToken.sol\":519:528  uint256 c */\n      dup1\n        /* \"contracts/TetherToken.sol\":535:536  b */\n      dup3\n        /* \"contracts/TetherToken.sol\":531:532  a */\n      dup5\n        /* \"contracts/TetherToken.sol\":531:536  a / b */\n      dup2\n      iszero\n      iszero\n      tag_278\n      jumpi\n      invalid\n    tag_278:\n      div\n        /* \"contracts/TetherToken.sol\":519:536  uint256 c = a / b */\n      swap1\n      pop\n        /* \"contracts/TetherToken.sol\":641:642  c */\n      dup1\n        /* \"contracts/TetherToken.sol\":634:642  return c */\n      swap2\n      pop\n        /* \"contracts/TetherToken.sol\":362:650  function div(uint256 a, uint256 b) internal pure returns (uint256) {\r... */\n      pop\n      swap3\n      swap2\n      pop\n      pop\n      jump\t// out\n        /* \"contracts/TetherToken.sol\":658:781  function sub(uint256 a, uint256 b) internal pure returns (uint256) {\r... */\n    tag_253:\n        /* \"contracts/TetherToken.sol\":716:723  uint256 */\n      0x0\n        /* \"contracts/TetherToken.sol\":748:749  a */\n      dup3\n        /* \"contracts/TetherToken.sol\":743:744  b */\n      dup3\n        /* \"contracts/TetherToken.sol\":743:749  b <= a */\n      gt\n      iszero\n        /* \"contracts/TetherToken.sol\":736:750  assert(b <= a) */\n      iszero\n      iszero\n      tag_280\n      jumpi\n      invalid\n    tag_280:\n        /* \"contracts/TetherToken.sol\":772:773  b */\n      dup2\n        /* \"contracts/TetherToken.sol\":768:769  a */\n      dup4\n        /* \"contracts/TetherToken.sol\":768:773  a - b */\n      sub\n        /* \"contracts/TetherToken.sol\":761:773  return a - b */\n      swap1\n      pop\n        /* \"contracts/TetherToken.sol\":658:781  function sub(uint256 a, uint256 b) internal pure returns (uint256) {\r... */\n      swap3\n      swap2\n      pop\n      pop\n      jump\t// out\n        /* \"contracts/TetherToken.sol\":789:936  function add(uint256 a, uint256 b) internal pure returns (uint256) {\r... */\n    tag_257:\n        /* \"contracts/TetherToken.sol\":847:854  uint256 */\n      0x0\n        /* \"contracts/TetherToken.sol\":867:876  uint256 c */\n      dup1\n        /* \"contracts/TetherToken.sol\":883:884  b */\n      dup3\n        /* \"contracts/TetherToken.sol\":879:880  a */\n      dup5\n        /* \"contracts/TetherToken.sol\":879:884  a + b */\n      add\n        /* \"contracts/TetherToken.sol\":867:884  uint256 c = a + b */\n      swap1\n      pop\n        /* \"contracts/TetherToken.sol\":907:908  a */\n      dup4\n        /* \"contracts/TetherToken.sol\":902:903  c */\n      dup2\n        /* \"contracts/TetherToken.sol\":902:908  c >= a */\n      lt\n      iszero\n        /* \"contracts/TetherToken.sol\":895:909  assert(c >= a) */\n      iszero\n      iszero\n      tag_282\n      jumpi\n      invalid\n    tag_282:\n        /* \"contracts/TetherToken.sol\":927:928  c */\n      dup1\n        /* \"contracts/TetherToken.sol\":920:928  return c */\n      swap2\n      pop\n        /* \"contracts/TetherToken.sol\":789:936  function add(uint256 a, uint256 b) internal pure returns (uint256) {\r... */\n      pop\n      swap3\n      swap2\n      pop\n      pop\n      jump\t// out\n\n    auxdata: 0xa165627a7a72305820c593703cf7ce24400f8771831253545864d5caf9b4ad7dcb77c1ed6541cf067c0029\n}\n",
				"bytecode": {
					"linkReferences": {},
					"object": "606060405260008060146101000a81548160ff0219169083151502179055506000600355600060045534156200003457600080fd5b60405162002d7c38038062002d7c83398101604052808051906020019091908051820191906020018051820191906020018051906020019091905050336000806101000a81548173ffffffffffffffffffffffffffffffffffffffff021916908373ffffffffffffffffffffffffffffffffffffffff160217905550836001819055508260079080519060200190620000cf9291906200017a565b508160089080519060200190620000e89291906200017a565b508060098190555083600260008060009054906101000a900473ffffffffffffffffffffffffffffffffffffffff1673ffffffffffffffffffffffffffffffffffffffff1673ffffffffffffffffffffffffffffffffffffffff168152602001908152602001600020819055506000600a60146101000a81548160ff0219169083151502179055505050505062000229565b828054600181600116156101000203166002900490600052602060002090601f016020900481019282601f10620001bd57805160ff1916838001178555620001ee565b82800160010185558215620001ee579182015b82811115620001ed578251825591602001919060010190620001d0565b5b509050620001fd919062000201565b5090565b6200022691905b808211156200022257600081600090555060010162000208565b5090565b90565b612b4380620002396000396000f300606060405260043610610196576000357c0100000000000000000000000000000000000000000000000000000000900463ffffffff16806306fdde031461019b5780630753c30c14610229578063095ea7b3146102625780630e136b19146102a45780630ecb93c0146102d157806318160ddd1461030a57806323b872dd1461033357806326976e3f1461039457806327e235e3146103e9578063313ce56714610436578063353907141461045f5780633eaaf86b146104885780633f4ba83a146104b157806359bf1abe146104c65780635c658165146105175780635c975abb1461058357806370a08231146105b05780638456cb59146105fd578063893d20e8146106125780638da5cb5b1461066757806395d89b41146106bc578063a9059cbb1461074a578063c0324c771461078c578063cc872b66146107b8578063db006a75146107db578063dd62ed3e146107fe578063dd644f721461086a578063e47d606014610893578063e4997dc5146108e4578063e5b5019a1461091d578063f2fde38b14610946578063f3bdc2281461097f575b600080fd5b34156101a657600080fd5b6101ae6109b8565b6040518080602001828103825283818151815260200191508051906020019080838360005b838110156101ee5780820151818401526020810190506101d3565b50505050905090810190601f16801561021b5780820380516001836020036101000a031916815260200191505b509250505060405180910390f35b341561023457600080fd5b610260600480803573ffffffffffffffffffffffffffffffffffffffff16906020019091905050610a56565b005b341561026d57600080fd5b6102a2600480803573ffffffffffffffffffffffffffffffffffffffff16906020019091908035906020019091905050610b73565b005b34156102af57600080fd5b6102b7610cc1565b604051808215151515815260200191505060405180910390f35b34156102dc57600080fd5b610308600480803573ffffffffffffffffffffffffffffffffffffffff16906020019091905050610cd4565b005b341561031557600080fd5b61031d610ded565b6040518082815260200191505060405180910390f35b341561033e57600080fd5b610392600480803573ffffffffffffffffffffffffffffffffffffffff1690602001909190803573ffffffffffffffffffffffffffffffffffffffff16906020019091908035906020019091905050610ebd565b005b341561039f57600080fd5b6103a761109d565b604051808273ffffffffffffffffffffffffffffffffffffffff1673ffffffffffffffffffffffffffffffffffffffff16815260200191505060405180910390f35b34156103f457600080fd5b610420600480803573ffffffffffffffffffffffffffffffffffffffff169060200190919050506110c3565b6040518082815260200191505060405180910390f35b341561044157600080fd5b6104496110db565b6040518082815260200191505060405180910390f35b341561046a57600080fd5b6104726110e1565b6040518082815260200191505060405180910390f35b341561049357600080fd5b61049b6110e7565b6040518082815260200191505060405180910390f35b34156104bc57600080fd5b6104c46110ed565b005b34156104d157600080fd5b6104fd600480803573ffffffffffffffffffffffffffffffffffffffff169060200190919050506111ab565b604051808215151515815260200191505060405180910390f35b341561052257600080fd5b61056d600480803573ffffffffffffffffffffffffffffffffffffffff1690602001909190803573ffffffffffffffffffffffffffffffffffffffff16906020019091905050611201565b6040518082815260200191505060405180910390f35b341561058e57600080fd5b610596611226565b604051808215151515815260200191505060405180910390f35b34156105bb57600080fd5b6105e7600480803573ffffffffffffffffffffffffffffffffffffffff16906020019091905050611239565b6040518082815260200191505060405180910390f35b341561060857600080fd5b610610611348565b005b341561061d57600080fd5b610625611408565b604051808273ffffffffffffffffffffffffffffffffffffffff1673ffffffffffffffffffffffffffffffffffffffff16815260200191505060405180910390f35b341561067257600080fd5b61067a611431565b604051808273ffffffffffffffffffffffffffffffffffffffff1673ffffffffffffffffffffffffffffffffffffffff16815260200191505060405180910390f35b34156106c757600080fd5b6106cf611456565b6040518080602001828103825283818151815260200191508051906020019080838360005b8381101561070f5780820151818401526020810190506106f4565b50505050905090810190601f16801561073c5780820380516001836020036101000a031916815260200191505b509250505060405180910390f35b341561075557600080fd5b61078a600480803573ffffffffffffffffffffffffffffffffffffffff169060200190919080359060200190919050506114f4565b005b341561079757600080fd5b6107b6600480803590602001909190803590602001909190505061169e565b005b34156107c357600080fd5b6107d96004808035906020019091905050611783565b005b34156107e657600080fd5b6107fc600480803590602001909190505061197a565b005b341561080957600080fd5b610854600480803573ffffffffffffffffffffffffffffffffffffffff1690602001909190803573ffffffffffffffffffffffffffffffffffffffff16906020019091905050611b0d565b6040518082815260200191505060405180910390f35b341561087557600080fd5b61087d611c52565b6040518082815260200191505060405180910390f35b341561089e57600080fd5b6108ca600480803573ffffffffffffffffffffffffffffffffffffffff16906020019091905050611c58565b604051808215151515815260200191505060405180910390f35b34156108ef57600080fd5b61091b600480803573ffffffffffffffffffffffffffffffffffffffff16906020019091905050611c78565b005b341561092857600080fd5b610930611d91565b6040518082815260200191505060405180910390f35b341561095157600080fd5b61097d600480803573ffffffffffffffffffffffffffffffffffffffff16906020019091905050611db5565b005b341561098a57600080fd5b6109b6600480803573ffffffffffffffffffffffffffffffffffffffff16906020019091905050611e8a565b005b60078054600181600116156101000203166002900480601f016020809104026020016040519081016040528092919081815260200182805460018160011615610100020316600290048015610a4e5780601f10610a2357610100808354040283529160200191610a4e565b820191906000526020600020905b815481529060010190602001808311610a3157829003601f168201915b505050505081565b6000809054906101000a900473ffffffffffffffffffffffffffffffffffffffff1673ffffffffffffffffffffffffffffffffffffffff163373ffffffffffffffffffffffffffffffffffffffff16141515610ab157600080fd5b6001600a60146101000a81548160ff02191690831515021790555080600a60006101000a81548173ffffffffffffffffffffffffffffffffffffffff021916908373ffffffffffffffffffffffffffffffffffffffff1602179055507fcc358699805e9a8b7f77b522628c7cb9abd07d9efb86b6fb616af1609036a99e81604051808273ffffffffffffffffffffffffffffffffffffffff1673ffffffffffffffffffffffffffffffffffffffff16815260200191505060405180910390a150565b604060048101600036905010151515610b8b57600080fd5b600a60149054906101000a900460ff1615610cb157600a60009054906101000a900473ffffffffffffffffffffffffffffffffffffffff1673ffffffffffffffffffffffffffffffffffffffff1663aee92d333385856040518463ffffffff167c0100000000000000000000000000000000000000000000000000000000028152600401808473ffffffffffffffffffffffffffffffffffffffff1673ffffffffffffffffffffffffffffffffffffffff1681526020018373ffffffffffffffffffffffffffffffffffffffff1673ffffffffffffffffffffffffffffffffffffffff1681526020018281526020019350505050600060405180830381600087803b1515610c9857600080fd5b6102c65a03f11515610ca957600080fd5b505050610cbc565b610cbb838361200e565b5b505050565b600a60149054906101000a900460ff1681565b6000809054906101000a900473ffffffffffffffffffffffffffffffffffffffff1673ffffffffffffffffffffffffffffffffffffffff163373ffffffffffffffffffffffffffffffffffffffff16141515610d2f57600080fd5b6001600660008373ffffffffffffffffffffffffffffffffffffffff1673ffffffffffffffffffffffffffffffffffffffff16815260200190815260200160002060006101000a81548160ff0219169083151502179055507f42e160154868087d6bfdc0ca23d96a1c1cfa32f1b72ba9ba27b69b98a0d819dc81604051808273ffffffffffffffffffffffffffffffffffffffff1673ffffffffffffffffffffffffffffffffffffffff16815260200191505060405180910390a150565b6000600a60149054906101000a900460ff1615610eb457600a60009054906101000a900473ffffffffffffffffffffffffffffffffffffffff1673ffffffffffffffffffffffffffffffffffffffff166318160ddd6000604051602001526040518163ffffffff167c0100000000000000000000000000000000000000000000000000000000028152600401602060405180830381600087803b1515610e9257600080fd5b6102c65a03f11515610ea357600080fd5b505050604051805190509050610eba565b60015490505b90565b600060149054906101000a900460ff16151515610ed957600080fd5b600660008473ffffffffffffffffffffffffffffffffffffffff1673ffffffffffffffffffffffffffffffffffffffff16815260200190815260200160002060009054906101000a900460ff16151515610f3257600080fd5b600a60149054906101000a900460ff161561108c57600a60009054906101000a900473ffffffffffffffffffffffffffffffffffffffff1673ffffffffffffffffffffffffffffffffffffffff16638b477adb338585856040518563ffffffff167c0100000000000000000000000000000000000000000000000000000000028152600401808573ffffffffffffffffffffffffffffffffffffffff1673ffffffffffffffffffffffffffffffffffffffff1681526020018473ffffffffffffffffffffffffffffffffffffffff1673ffffffffffffffffffffffffffffffffffffffff1681526020018373ffffffffffffffffffffffffffffffffffffffff1673ffffffffffffffffffffffffffffffffffffffff168152602001828152602001945050505050600060405180830381600087803b151561107357600080fd5b6102c65a03f1151561108457600080fd5b505050611098565b6110978383836121ab565b5b505050565b600a60009054906101000a900473ffffffffffffffffffffffffffffffffffffffff1681565b60026020528060005260406000206000915090505481565b60095481565b60045481565b60015481565b6000809054906101000a900473ffffffffffffffffffffffffffffffffffffffff1673ffffffffffffffffffffffffffffffffffffffff163373ffffffffffffffffffffffffffffffffffffffff1614151561114857600080fd5b600060149054906101000a900460ff16151561116357600080fd5b60008060146101000a81548160ff0219169083151502179055507f7805862f689e2f13df9f062ff482ad3ad112aca9e0847911ed832e158c525b3360405160405180910390a1565b6000600660008373ffffffffffffffffffffffffffffffffffffffff1673ffffffffffffffffffffffffffffffffffffffff16815260200190815260200160002060009054906101000a900460ff169050919050565b6005602052816000526040600020602052806000526040600020600091509150505481565b600060149054906101000a900460ff1681565b6000600a60149054906101000a900460ff161561133757600a60009054906101000a900473ffffffffffffffffffffffffffffffffffffffff1673ffffffffffffffffffffffffffffffffffffffff166370a08231836000604051602001526040518263ffffffff167c0100000000000000000000000000000000000000000000000000000000028152600401808273ffffffffffffffffffffffffffffffffffffffff1673ffffffffffffffffffffffffffffffffffffffff168152602001915050602060405180830381600087803b151561131557600080fd5b6102c65a03f1151561132657600080fd5b505050604051805190509050611343565b61134082612652565b90505b919050565b6000809054906101000a900473ffffffffffffffffffffffffffffffffffffffff1673ffffffffffffffffffffffffffffffffffffffff163373ffffffffffffffffffffffffffffffffffffffff161415156113a357600080fd5b600060149054906101000a900460ff161515156113bf57600080fd5b6001600060146101000a81548160ff0219169083151502179055507f6985a02210a168e66602d3235cb6db0e70f92b3ba4d376a33c0f3d9434bff62560405160405180910390a1565b60008060009054906101000a900473ffffffffffffffffffffffffffffffffffffffff16905090565b6000809054906101000a900473ffffffffffffffffffffffffffffffffffffffff1681565b60088054600181600116156101000203166002900480601f0160208091040260200160405190810160405280929190818152602001828054600181600116156101000203166002900480156114ec5780601f106114c1576101008083540402835291602001916114ec565b820191906000526020600020905b8154815290600101906020018083116114cf57829003601f168201915b505050505081565b600060149054906101000a900460ff1615151561151057600080fd5b600660003373ffffffffffffffffffffffffffffffffffffffff1673ffffffffffffffffffffffffffffffffffffffff16815260200190815260200160002060009054906101000a900460ff1615151561156957600080fd5b600a60149054906101000a900460ff161561168f57600a60009054906101000a900473ffffffffffffffffffffffffffffffffffffffff1673ffffffffffffffffffffffffffffffffffffffff16636e18980a3384846040518463ffffffff167c0100000000000000000000000000000000000000000000000000000000028152600401808473ffffffffffffffffffffffffffffffffffffffff1673ffffffffffffffffffffffffffffffffffffffff1681526020018373ffffffffffffffffffffffffffffffffffffffff1673ffffffffffffffffffffffffffffffffffffffff1681526020018281526020019350505050600060405180830381600087803b151561167657600080fd5b6102c65a03f1151561168757600080fd5b50505061169a565b611699828261269b565b5b5050565b6000809054906101000a900473ffffffffffffffffffffffffffffffffffffffff1673ffffffffffffffffffffffffffffffffffffffff163373ffffffffffffffffffffffffffffffffffffffff161415156116f957600080fd5b60148210151561170857600080fd5b60328110151561171757600080fd5b81600381905550611736600954600a0a82612a0390919063ffffffff16565b6004819055507fb044a1e409eac5c48e5af22d4af52670dd1a99059537a78b31b48c6500a6354e600354600454604051808381526020018281526020019250505060405180910390a15050565b6000809054906101000a900473ffffffffffffffffffffffffffffffffffffffff1673ffffffffffffffffffffffffffffffffffffffff163373ffffffffffffffffffffffffffffffffffffffff161415156117de57600080fd5b60015481600154011115156117f257600080fd5b600260008060009054906101000a900473ffffffffffffffffffffffffffffffffffffffff1673ffffffffffffffffffffffffffffffffffffffff1673ffffffffffffffffffffffffffffffffffffffff1681526020019081526020016000205481600260008060009054906101000a900473ffffffffffffffffffffffffffffffffffffffff1673ffffffffffffffffffffffffffffffffffffffff1673ffffffffffffffffffffffffffffffffffffffff16815260200190815260200160002054011115156118c257600080fd5b80600260008060009054906101000a900473ffffffffffffffffffffffffffffffffffffffff1673ffffffffffffffffffffffffffffffffffffffff1673ffffffffffffffffffffffffffffffffffffffff16815260200190815260200160002060008282540192505081905550806001600082825401925050819055507fcb8241adb0c3fdb35b70c24ce35c5eb0c17af7431c99f827d44a445ca624176a816040518082815260200191505060405180910390a150565b6000809054906101000a900473ffffffffffffffffffffffffffffffffffffffff1673ffffffffffffffffffffffffffffffffffffffff163373ffffffffffffffffffffffffffffffffffffffff161415156119d557600080fd5b80600154101515156119e657600080fd5b80600260008060009054906101000a900473ffffffffffffffffffffffffffffffffffffffff1673ffffffffffffffffffffffffffffffffffffffff1673ffffffffffffffffffffffffffffffffffffffff1681526020019081526020016000205410151515611a5557600080fd5b8060016000828254039250508190555080600260008060009054906101000a900473ffffffffffffffffffffffffffffffffffffffff1673ffffffffffffffffffffffffffffffffffffffff1673ffffffffffffffffffffffffffffffffffffffff168152602001908152602001600020600082825403925050819055507f702d5967f45f6513a38ffc42d6ba9bf230bd40e8f53b16363c7eb4fd2deb9a44816040518082815260200191505060405180910390a150565b6000600a60149054906101000a900460ff1615611c3f57600a60009054906101000a900473ffffffffffffffffffffffffffffffffffffffff1673ffffffffffffffffffffffffffffffffffffffff1663dd62ed3e84846000604051602001526040518363ffffffff167c0100000000000000000000000000000000000000000000000000000000028152600401808373ffffffffffffffffffffffffffffffffffffffff1673ffffffffffffffffffffffffffffffffffffffff1681526020018273ffffffffffffffffffffffffffffffffffffffff1673ffffffffffffffffffffffffffffffffffffffff16815260200192505050602060405180830381600087803b1515611c1d57600080fd5b6102c65a03f11515611c2e57600080fd5b505050604051805190509050611c4c565b611c498383612a3e565b90505b92915050565b60035481565b60066020528060005260406000206000915054906101000a900460ff1681565b6000809054906101000a900473ffffffffffffffffffffffffffffffffffffffff1673ffffffffffffffffffffffffffffffffffffffff163373ffffffffffffffffffffffffffffffffffffffff16141515611cd357600080fd5b6000600660008373ffffffffffffffffffffffffffffffffffffffff1673ffffffffffffffffffffffffffffffffffffffff16815260200190815260200160002060006101000a81548160ff0219169083151502179055507fd7e9ec6e6ecd65492dce6bf513cd6867560d49544421d0783ddf06e76c24470c81604051808273ffffffffffffffffffffffffffffffffffffffff1673ffffffffffffffffffffffffffffffffffffffff16815260200191505060405180910390a150565b7fffffffffffffffffffffffffffffffffffffffffffffffffffffffffffffffff81565b6000809054906101000a900473ffffffffffffffffffffffffffffffffffffffff1673ffffffffffffffffffffffffffffffffffffffff163373ffffffffffffffffffffffffffffffffffffffff16141515611e1057600080fd5b600073ffffffffffffffffffffffffffffffffffffffff168173ffffffffffffffffffffffffffffffffffffffff16141515611e8757806000806101000a81548173ffffffffffffffffffffffffffffffffffffffff021916908373ffffffffffffffffffffffffffffffffffffffff1602179055505b50565b60008060009054906101000a900473ffffffffffffffffffffffffffffffffffffffff1673ffffffffffffffffffffffffffffffffffffffff163373ffffffffffffffffffffffffffffffffffffffff16141515611ee757600080fd5b600660008373ffffffffffffffffffffffffffffffffffffffff1673ffffffffffffffffffffffffffffffffffffffff16815260200190815260200160002060009054906101000a900460ff161515611f3f57600080fd5b611f4882611239565b90506000600260008473ffffffffffffffffffffffffffffffffffffffff1673ffffffffffffffffffffffffffffffffffffffff16815260200190815260200160002081905550806001600082825403925050819055507f61e6e66b0d6339b2980aecc6ccc0039736791f0ccde9ed512e789a7fbdd698c68282604051808373ffffffffffffffffffffffffffffffffffffffff1673ffffffffffffffffffffffffffffffffffffffff1681526020018281526020019250505060405180910390a15050565b60406004810160003690501015151561202657600080fd5b600082141580156120b457506000600560003373ffffffffffffffffffffffffffffffffffffffff1673ffffffffffffffffffffffffffffffffffffffff16815260200190815260200160002060008573ffffffffffffffffffffffffffffffffffffffff1673ffffffffffffffffffffffffffffffffffffffff1681526020019081526020016000205414155b1515156120c057600080fd5b81600560003373ffffffffffffffffffffffffffffffffffffffff1673ffffffffffffffffffffffffffffffffffffffff16815260200190815260200160002060008573ffffffffffffffffffffffffffffffffffffffff1673ffffffffffffffffffffffffffffffffffffffff168152602001908152602001600020819055508273ffffffffffffffffffffffffffffffffffffffff163373ffffffffffffffffffffffffffffffffffffffff167f8c5be1e5ebec7d5bd14f71427d1e84f3dd0314c0f7b2291e5b200ac8c7c3b925846040518082815260200191505060405180910390a3505050565b60008060006060600481016000369050101515156121c857600080fd5b600560008873ffffffffffffffffffffffffffffffffffffffff1673ffffffffffffffffffffffffffffffffffffffff16815260200190815260200160002060003373ffffffffffffffffffffffffffffffffffffffff1673ffffffffffffffffffffffffffffffffffffffff16815260200190815260200160002054935061227061271061226260035488612a0390919063ffffffff16565b612ac590919063ffffffff16565b92506004548311156122825760045492505b7fffffffffffffffffffffffffffffffffffffffffffffffffffffffffffffffff84101561233e576122bd8585612ae090919063ffffffff16565b600560008973ffffffffffffffffffffffffffffffffffffffff1673ffffffffffffffffffffffffffffffffffffffff16815260200190815260200160002060003373ffffffffffffffffffffffffffffffffffffffff1673ffffffffffffffffffffffffffffffffffffffff168152602001908152602001600020819055505b6123518386612ae090919063ffffffff16565b91506123a585600260008a73ffffffffffffffffffffffffffffffffffffffff1673ffffffffffffffffffffffffffffffffffffffff16815260200190815260200160002054612ae090919063ffffffff16565b600260008973ffffffffffffffffffffffffffffffffffffffff1673ffffffffffffffffffffffffffffffffffffffff1681526020019081526020016000208190555061243a82600260008973ffffffffffffffffffffffffffffffffffffffff1673ffffffffffffffffffffffffffffffffffffffff16815260200190815260200160002054612af990919063ffffffff16565b600260008873ffffffffffffffffffffffffffffffffffffffff1673ffffffffffffffffffffffffffffffffffffffff1681526020019081526020016000208190555060008311156125e4576124f983600260008060009054906101000a900473ffffffffffffffffffffffffffffffffffffffff1673ffffffffffffffffffffffffffffffffffffffff1673ffffffffffffffffffffffffffffffffffffffff16815260200190815260200160002054612af990919063ffffffff16565b600260008060009054906101000a900473ffffffffffffffffffffffffffffffffffffffff1673ffffffffffffffffffffffffffffffffffffffff1673ffffffffffffffffffffffffffffffffffffffff168152602001908152602001600020819055506000809054906101000a900473ffffffffffffffffffffffffffffffffffffffff1673ffffffffffffffffffffffffffffffffffffffff168773ffffffffffffffffffffffffffffffffffffffff167fddf252ad1be2c89b69c2b068fc378daa952ba7f163c4a11628f55a4df523b3ef856040518082815260200191505060405180910390a35b8573ffffffffffffffffffffffffffffffffffffffff168773ffffffffffffffffffffffffffffffffffffffff167fddf252ad1be2c89b69c2b068fc378daa952ba7f163c4a11628f55a4df523b3ef846040518082815260200191505060405180910390a350505050505050565b6000600260008373ffffffffffffffffffffffffffffffffffffffff1673ffffffffffffffffffffffffffffffffffffffff168152602001908152602001600020549050919050565b6000806040600481016000369050101515156126b657600080fd5b6126df6127106126d160035487612a0390919063ffffffff16565b612ac590919063ffffffff16565b92506004548311156126f15760045492505b6127048385612ae090919063ffffffff16565b915061275884600260003373ffffffffffffffffffffffffffffffffffffffff1673ffffffffffffffffffffffffffffffffffffffff16815260200190815260200160002054612ae090919063ffffffff16565b600260003373ffffffffffffffffffffffffffffffffffffffff1673ffffffffffffffffffffffffffffffffffffffff168152602001908152602001600020819055506127ed82600260008873ffffffffffffffffffffffffffffffffffffffff1673ffffffffffffffffffffffffffffffffffffffff16815260200190815260200160002054612af990919063ffffffff16565b600260008773ffffffffffffffffffffffffffffffffffffffff1673ffffffffffffffffffffffffffffffffffffffff168152602001908152602001600020819055506000831115612997576128ac83600260008060009054906101000a900473ffffffffffffffffffffffffffffffffffffffff1673ffffffffffffffffffffffffffffffffffffffff1673ffffffffffffffffffffffffffffffffffffffff16815260200190815260200160002054612af990919063ffffffff16565b600260008060009054906101000a900473ffffffffffffffffffffffffffffffffffffffff1673ffffffffffffffffffffffffffffffffffffffff1673ffffffffffffffffffffffffffffffffffffffff168152602001908152602001600020819055506000809054906101000a900473ffffffffffffffffffffffffffffffffffffffff1673ffffffffffffffffffffffffffffffffffffffff163373ffffffffffffffffffffffffffffffffffffffff167fddf252ad1be2c89b69c2b068fc378daa952ba7f163c4a11628f55a4df523b3ef856040518082815260200191505060405180910390a35b8473ffffffffffffffffffffffffffffffffffffffff163373ffffffffffffffffffffffffffffffffffffffff167fddf252ad1be2c89b69c2b068fc378daa952ba7f163c4a11628f55a4df523b3ef846040518082815260200191505060405180910390a35050505050565b6000806000841415612a185760009150612a37565b8284029050828482811515612a2957fe5b04141515612a3357fe5b8091505b5092915050565b6000600560008473ffffffffffffffffffffffffffffffffffffffff1673ffffffffffffffffffffffffffffffffffffffff16815260200190815260200160002060008373ffffffffffffffffffffffffffffffffffffffff1673ffffffffffffffffffffffffffffffffffffffff16815260200190815260200160002054905092915050565b6000808284811515612ad357fe5b0490508091505092915050565b6000828211151515612aee57fe5b818303905092915050565b6000808284019050838110151515612b0d57fe5b80915050929150505600a165627a7a72305820c593703cf7ce24400f8771831253545864d5caf9b4ad7dcb77c1ed6541cf067c0029",
					"opcodes": "PUSH1 0x60 PUSH1 0x40 MSTORE PUSH1 0x0 DUP1 PUSH1 0x14 PUSH2 0x100 EXP DUP2 SLOAD DUP2 PUSH1 0xFF MUL NOT AND SWAP1 DUP4 ISZERO ISZERO MUL OR SWAP1 SSTORE POP PUSH1 0x0 PUSH1 0x3 SSTORE PUSH1 0x0 PUSH1 0x4 SSTORE CALLVALUE ISZERO PUSH3 0x34 JUMPI PUSH1 0x0 DUP1 REVERT JUMPDEST PUSH1 0x40 MLOAD PUSH3 0x2D7C CODESIZE SUB DUP1 PUSH3 0x2D7C DUP4 CODECOPY DUP2 ADD PUSH1 0x40 MSTORE DUP1 DUP1 MLOAD SWAP1 PUSH1 0x20 ADD SWAP1 SWAP2 SWAP1 DUP1 MLOAD DUP3 ADD SWAP2 SWAP1 PUSH1 0x20 ADD DUP1 MLOAD DUP3 ADD SWAP2 SWAP1 PUSH1 0x20 ADD DUP1 MLOAD SWAP1 PUSH1 0x20 ADD SWAP1 SWAP2 SWAP1 POP POP CALLER PUSH1 0x0 DUP1 PUSH2 0x100 EXP DUP2 SLOAD DUP2 PUSH20 0xFFFFFFFFFFFFFFFFFFFFFFFFFFFFFFFFFFFFFFFF MUL NOT AND SWAP1 DUP4 PUSH20 0xFFFFFFFFFFFFFFFFFFFFFFFFFFFFFFFFFFFFFFFF AND MUL OR SWAP1 SSTORE POP DUP4 PUSH1 0x1 DUP2 SWAP1 SSTORE POP DUP3 PUSH1 0x7 SWAP1 DUP1 MLOAD SWAP1 PUSH1 0x20 ADD SWAP1 PUSH3 0xCF SWAP3 SWAP2 SWAP1 PUSH3 0x17A JUMP JUMPDEST POP DUP2 PUSH1 0x8 SWAP1 DUP1 MLOAD SWAP1 PUSH1 0x20 ADD SWAP1 PUSH3 0xE8 SWAP3 SWAP2 SWAP1 PUSH3 0x17A JUMP JUMPDEST POP DUP1 PUSH1 0x9 DUP2 SWAP1 SSTORE POP DUP4 PUSH1 0x2 PUSH1 0x0 DUP1 PUSH1 0x0 SWAP1 SLOAD SWAP1 PUSH2 0x100 EXP SWAP1 DIV PUSH20 0xFFFFFFFFFFFFFFFFFFFFFFFFFFFFFFFFFFFFFFFF AND PUSH20 0xFFFFFFFFFFFFFFFFFFFFFFFFFFFFFFFFFFFFFFFF AND PUSH20 0xFFFFFFFFFFFFFFFFFFFFFFFFFFFFFFFFFFFFFFFF AND DUP2 MSTORE PUSH1 0x20 ADD SWAP1 DUP2 MSTORE PUSH1 0x20 ADD PUSH1 0x0 KECCAK256 DUP2 SWAP1 SSTORE POP PUSH1 0x0 PUSH1 0xA PUSH1 0x14 PUSH2 0x100 EXP DUP2 SLOAD DUP2 PUSH1 0xFF MUL NOT AND SWAP1 DUP4 ISZERO ISZERO MUL OR SWAP1 SSTORE POP POP POP POP POP PUSH3 0x229 JUMP JUMPDEST DUP3 DUP1 SLOAD PUSH1 0x1 DUP2 PUSH1 0x1 AND ISZERO PUSH2 0x100 MUL SUB AND PUSH1 0x2 SWAP1 DIV SWAP1 PUSH1 0x0 MSTORE PUSH1 0x20 PUSH1 0x0 KECCAK256 SWAP1 PUSH1 0x1F ADD PUSH1 0x20 SWAP1 DIV DUP2 ADD SWAP3 DUP3 PUSH1 0x1F LT PUSH3 0x1BD JUMPI DUP1 MLOAD PUSH1 0xFF NOT AND DUP4 DUP1 ADD OR DUP6 SSTORE PUSH3 0x1EE JUMP JUMPDEST DUP3 DUP1 ADD PUSH1 0x1 ADD DUP6 SSTORE DUP3 ISZERO PUSH3 0x1EE JUMPI SWAP2 DUP3 ADD JUMPDEST DUP3 DUP2 GT ISZERO PUSH3 0x1ED JUMPI DUP3 MLOAD DUP3 SSTORE SWAP2 PUSH1 0x20 ADD SWAP2 SWAP1 PUSH1 0x1 ADD SWAP1 PUSH3 0x1D0 JUMP JUMPDEST JUMPDEST POP SWAP1 POP PUSH3 0x1FD SWAP2 SWAP1 PUSH3 0x201 JUMP JUMPDEST POP SWAP1 JUMP JUMPDEST PUSH3 0x226 SWAP2 SWAP1 JUMPDEST DUP1 DUP3 GT ISZERO PUSH3 0x222 JUMPI PUSH1 0x0 DUP2 PUSH1 0x0 SWAP1 SSTORE POP PUSH1 0x1 ADD PUSH3 0x208 JUMP JUMPDEST POP SWAP1 JUMP JUMPDEST SWAP1 JUMP JUMPDEST PUSH2 0x2B43 DUP1 PUSH3 0x239 PUSH1 0x0 CODECOPY PUSH1 0x0 RETURN STOP PUSH1 0x60 PUSH1 0x40 MSTORE PUSH1 0x4 CALLDATASIZE LT PUSH2 0x196 JUMPI PUSH1 0x0 CALLDATALOAD PUSH29 0x100000000000000000000000000000000000000000000000000000000 SWAP1 DIV PUSH4 0xFFFFFFFF AND DUP1 PUSH4 0x6FDDE03 EQ PUSH2 0x19B JUMPI DUP1 PUSH4 0x753C30C EQ PUSH2 0x229 JUMPI DUP1 PUSH4 0x95EA7B3 EQ PUSH2 0x262 JUMPI DUP1 PUSH4 0xE136B19 EQ PUSH2 0x2A4 JUMPI DUP1 PUSH4 0xECB93C0 EQ PUSH2 0x2D1 JUMPI DUP1 PUSH4 0x18160DDD EQ PUSH2 0x30A JUMPI DUP1 PUSH4 0x23B872DD EQ PUSH2 0x333 JUMPI DUP1 PUSH4 0x26976E3F EQ PUSH2 0x394 JUMPI DUP1 PUSH4 0x27E235E3 EQ PUSH2 0x3E9 JUMPI DUP1 PUSH4 0x313CE567 EQ PUSH2 0x436 JUMPI DUP1 PUSH4 0x35390714 EQ PUSH2 0x45F JUMPI DUP1 PUSH4 0x3EAAF86B EQ PUSH2 0x488 JUMPI DUP1 PUSH4 0x3F4BA83A EQ PUSH2 0x4B1 JUMPI DUP1 PUSH4 0x59BF1ABE EQ PUSH2 0x4C6 JUMPI DUP1 PUSH4 0x5C658165 EQ PUSH2 0x517 JUMPI DUP1 PUSH4 0x5C975ABB EQ PUSH2 0x583 JUMPI DUP1 PUSH4 0x70A08231 EQ PUSH2 0x5B0 JUMPI DUP1 PUSH4 0x8456CB59 EQ PUSH2 0x5FD JUMPI DUP1 PUSH4 0x893D20E8 EQ PUSH2 0x612 JUMPI DUP1 PUSH4 0x8DA5CB5B EQ PUSH2 0x667 JUMPI DUP1 PUSH4 0x95D89B41 EQ PUSH2 0x6BC JUMPI DUP1 PUSH4 0xA9059CBB EQ PUSH2 0x74A JUMPI DUP1 PUSH4 0xC0324C77 EQ PUSH2 0x78C JUMPI DUP1 PUSH4 0xCC872B66 EQ PUSH2 0x7B8 JUMPI DUP1 PUSH4 0xDB006A75 EQ PUSH2 0x7DB JUMPI DUP1 PUSH4 0xDD62ED3E EQ PUSH2 0x7FE JUMPI DUP1 PUSH4 0xDD644F72 EQ PUSH2 0x86A JUMPI DUP1 PUSH4 0xE47D6060 EQ PUSH2 0x893 JUMPI DUP1 PUSH4 0xE4997DC5 EQ PUSH2 0x8E4 JUMPI DUP1 PUSH4 0xE5B5019A EQ PUSH2 0x91D JUMPI DUP1 PUSH4 0xF2FDE38B EQ PUSH2 0x946 JUMPI DUP1 PUSH4 0xF3BDC228 EQ PUSH2 0x97F JUMPI JUMPDEST PUSH1 0x0 DUP1 REVERT JUMPDEST CALLVALUE ISZERO PUSH2 0x1A6 JUMPI PUSH1 0x0 DUP1 REVERT JUMPDEST PUSH2 0x1AE PUSH2 0x9B8 JUMP JUMPDEST PUSH1 0x40 MLOAD DUP1 DUP1 PUSH1 0x20 ADD DUP3 DUP2 SUB DUP3 MSTORE DUP4 DUP2 DUP2 MLOAD DUP2 MSTORE PUSH1 0x20 ADD SWAP2 POP DUP1 MLOAD SWAP1 PUSH1 0x20 ADD SWAP1 DUP1 DUP4 DUP4 PUSH1 0x0 JUMPDEST DUP4 DUP2 LT ISZERO PUSH2 0x1EE JUMPI DUP1 DUP3 ADD MLOAD DUP2 DUP5 ADD MSTORE PUSH1 0x20 DUP2 ADD SWAP1 POP PUSH2 0x1D3 JUMP JUMPDEST POP POP POP POP SWAP1 POP SWAP1 DUP2 ADD SWAP1 PUSH1 0x1F AND DUP1 ISZERO PUSH2 0x21B JUMPI DUP1 DUP3 SUB DUP1 MLOAD PUSH1 0x1 DUP4 PUSH1 0x20 SUB PUSH2 0x100 EXP SUB NOT AND DUP2 MSTORE PUSH1 0x20 ADD SWAP2 POP JUMPDEST POP SWAP3 POP POP POP PUSH1 0x40 MLOAD DUP1 SWAP2 SUB SWAP1 RETURN JUMPDEST CALLVALUE ISZERO PUSH2 0x234 JUMPI PUSH1 0x0 DUP1 REVERT JUMPDEST PUSH2 0x260 PUSH1 0x4 DUP1 DUP1 CALLDATALOAD PUSH20 0xFFFFFFFFFFFFFFFFFFFFFFFFFFFFFFFFFFFFFFFF AND SWAP1 PUSH1 0x20 ADD SWAP1 SWAP2 SWAP1 POP POP PUSH2 0xA56 JUMP JUMPDEST STOP JUMPDEST CALLVALUE ISZERO PUSH2 0x26D JUMPI PUSH1 0x0 DUP1 REVERT JUMPDEST PUSH2 0x2A2 PUSH1 0x4 DUP1 DUP1 CALLDATALOAD PUSH20 0xFFFFFFFFFFFFFFFFFFFFFFFFFFFFFFFFFFFFFFFF AND SWAP1 PUSH1 0x20 ADD SWAP1 SWAP2 SWAP1 DUP1 CALLDATALOAD SWAP1 PUSH1 0x20 ADD SWAP1 SWAP2 SWAP1 POP POP PUSH2 0xB73 JUMP JUMPDEST STOP JUMPDEST CALLVALUE ISZERO PUSH2 0x2AF JUMPI PUSH1 0x0 DUP1 REVERT JUMPDEST PUSH2 0x2B7 PUSH2 0xCC1 JUMP JUMPDEST PUSH1 0x40 MLOAD DUP1 DUP3 ISZERO ISZERO ISZERO ISZERO DUP2 MSTORE PUSH1 0x20 ADD SWAP2 POP POP PUSH1 0x40 MLOAD DUP1 SWAP2 SUB SWAP1 RETURN JUMPDEST CALLVALUE ISZERO PUSH2 0x2DC JUMPI PUSH1 0x0 DUP1 REVERT JUMPDEST PUSH2 0x308 PUSH1 0x4 DUP1 DUP1 CALLDATALOAD PUSH20 0xFFFFFFFFFFFFFFFFFFFFFFFFFFFFFFFFFFFFFFFF AND SWAP1 PUSH1 0x20 ADD SWAP1 SWAP2 SWAP1 POP POP PUSH2 0xCD4 JUMP JUMPDEST STOP JUMPDEST CALLVALUE ISZERO PUSH2 0x315 JUMPI PUSH1 0x0 DUP1 REVERT JUMPDEST PUSH2 0x31D PUSH2 0xDED JUMP JUMPDEST PUSH1 0x40 MLOAD DUP1 DUP3 DUP2 MSTORE PUSH1 0x20 ADD SWAP2 POP POP PUSH1 0x40 MLOAD DUP1 SWAP2 SUB SWAP1 RETURN JUMPDEST CALLVALUE ISZERO PUSH2 0x33E JUMPI PUSH1 0x0 DUP1 REVERT JUMPDEST PUSH2 0x392 PUSH1 0x4 DUP1 DUP1 CALLDATALOAD PUSH20 0xFFFFFFFFFFFFFFFFFFFFFFFFFFFFFFFFFFFFFFFF AND SWAP1 PUSH1 0x20 ADD SWAP1 SWAP2 SWAP1 DUP1 CALLDATALOAD PUSH20 0xFFFFFFFFFFFFFFFFFFFFFFFFFFFFFFFFFFFFFFFF AND SWAP1 PUSH1 0x20 ADD SWAP1 SWAP2 SWAP1 DUP1 CALLDATALOAD SWAP1 PUSH1 0x20 ADD SWAP1 SWAP2 SWAP1 POP POP PUSH2 0xEBD JUMP JUMPDEST STOP JUMPDEST CALLVALUE ISZERO PUSH2 0x39F JUMPI PUSH1 0x0 DUP1 REVERT JUMPDEST PUSH2 0x3A7 PUSH2 0x109D JUMP JUMPDEST PUSH1 0x40 MLOAD DUP1 DUP3 PUSH20 0xFFFFFFFFFFFFFFFFFFFFFFFFFFFFFFFFFFFFFFFF AND PUSH20 0xFFFFFFFFFFFFFFFFFFFFFFFFFFFFFFFFFFFFFFFF AND DUP2 MSTORE PUSH1 0x20 ADD SWAP2 POP POP PUSH1 0x40 MLOAD DUP1 SWAP2 SUB SWAP1 RETURN JUMPDEST CALLVALUE ISZERO PUSH2 0x3F4 JUMPI PUSH1 0x0 DUP1 REVERT JUMPDEST PUSH2 0x420 PUSH1 0x4 DUP1 DUP1 CALLDATALOAD PUSH20 0xFFFFFFFFFFFFFFFFFFFFFFFFFFFFFFFFFFFFFFFF AND SWAP1 PUSH1 0x20 ADD SWAP1 SWAP2 SWAP1 POP POP PUSH2 0x10C3 JUMP JUMPDEST PUSH1 0x40 MLOAD DUP1 DUP3 DUP2 MSTORE PUSH1 0x20 ADD SWAP2 POP POP PUSH1 0x40 MLOAD DUP1 SWAP2 SUB SWAP1 RETURN JUMPDEST CALLVALUE ISZERO PUSH2 0x441 JUMPI PUSH1 0x0 DUP1 REVERT JUMPDEST PUSH2 0x449 PUSH2 0x10DB JUMP JUMPDEST PUSH1 0x40 MLOAD DUP1 DUP3 DUP2 MSTORE PUSH1 0x20 ADD SWAP2 POP POP PUSH1 0x40 MLOAD DUP1 SWAP2 SUB SWAP1 RETURN JUMPDEST CALLVALUE ISZERO PUSH2 0x46A JUMPI PUSH1 0x0 DUP1 REVERT JUMPDEST PUSH2 0x472 PUSH2 0x10E1 JUMP JUMPDEST PUSH1 0x40 MLOAD DUP1 DUP3 DUP2 MSTORE PUSH1 0x20 ADD SWAP2 POP POP PUSH1 0x40 MLOAD DUP1 SWAP2 SUB SWAP1 RETURN JUMPDEST CALLVALUE ISZERO PUSH2 0x493 JUMPI PUSH1 0x0 DUP1 REVERT JUMPDEST PUSH2 0x49B PUSH2 0x10E7 JUMP JUMPDEST PUSH1 0x40 MLOAD DUP1 DUP3 DUP2 MSTORE PUSH1 0x20 ADD SWAP2 POP POP PUSH1 0x40 MLOAD DUP1 SWAP2 SUB SWAP1 RETURN JUMPDEST CALLVALUE ISZERO PUSH2 0x4BC JUMPI PUSH1 0x0 DUP1 REVERT JUMPDEST PUSH2 0x4C4 PUSH2 0x10ED JUMP JUMPDEST STOP JUMPDEST CALLVALUE ISZERO PUSH2 0x4D1 JUMPI PUSH1 0x0 DUP1 REVERT JUMPDEST PUSH2 0x4FD PUSH1 0x4 DUP1 DUP1 CALLDATALOAD PUSH20 0xFFFFFFFFFFFFFFFFFFFFFFFFFFFFFFFFFFFFFFFF AND SWAP1 PUSH1 0x20 ADD SWAP1 SWAP2 SWAP1 POP POP PUSH2 0x11AB JUMP JUMPDEST PUSH1 0x40 MLOAD DUP1 DUP3 ISZERO ISZERO ISZERO ISZERO DUP2 MSTORE PUSH1 0x20 ADD SWAP2 POP POP PUSH1 0x40 MLOAD DUP1 SWAP2 SUB SWAP1 RETURN JUMPDEST CALLVALUE ISZERO PUSH2 0x522 JUMPI PUSH1 0x0 DUP1 REVERT JUMPDEST PUSH2 0x56D PUSH1 0x4 DUP1 DUP1 CALLDATALOAD PUSH20 0xFFFFFFFFFFFFFFFFFFFFFFFFFFFFFFFFFFFFFFFF AND SWAP1 PUSH1 0x20 ADD SWAP1 SWAP2 SWAP1 DUP1 CALLDATALOAD PUSH20 0xFFFFFFFFFFFFFFFFFFFFFFFFFFFFFFFFFFFFFFFF AND SWAP1 PUSH1 0x20 ADD SWAP1 SWAP2 SWAP1 POP POP PUSH2 0x1201 JUMP JUMPDEST PUSH1 0x40 MLOAD DUP1 DUP3 DUP2 MSTORE PUSH1 0x20 ADD SWAP2 POP POP PUSH1 0x40 MLOAD DUP1 SWAP2 SUB SWAP1 RETURN JUMPDEST CALLVALUE ISZERO PUSH2 0x58E JUMPI PUSH1 0x0 DUP1 REVERT JUMPDEST PUSH2 0x596 PUSH2 0x1226 JUMP JUMPDEST PUSH1 0x40 MLOAD DUP1 DUP3 ISZERO ISZERO ISZERO ISZERO DUP2 MSTORE PUSH1 0x20 ADD SWAP2 POP POP PUSH1 0x40 MLOAD DUP1 SWAP2 SUB SWAP1 RETURN JUMPDEST CALLVALUE ISZERO PUSH2 0x5BB JUMPI PUSH1 0x0 DUP1 REVERT JUMPDEST PUSH2 0x5E7 PUSH1 0x4 DUP1 DUP1 CALLDATALOAD PUSH20 0xFFFFFFFFFFFFFFFFFFFFFFFFFFFFFFFFFFFFFFFF AND SWAP1 PUSH1 0x20 ADD SWAP1 SWAP2 SWAP1 POP POP PUSH2 0x1239 JUMP JUMPDEST PUSH1 0x40 MLOAD DUP1 DUP3 DUP2 MSTORE PUSH1 0x20 ADD SWAP2 POP POP PUSH1 0x40 MLOAD DUP1 SWAP2 SUB SWAP1 RETURN JUMPDEST CALLVALUE ISZERO PUSH2 0x608 JUMPI PUSH1 0x0 DUP1 REVERT JUMPDEST PUSH2 0x610 PUSH2 0x1348 JUMP JUMPDEST STOP JUMPDEST CALLVALUE ISZERO PUSH2 0x61D JUMPI PUSH1 0x0 DUP1 REVERT JUMPDEST PUSH2 0x625 PUSH2 0x1408 JUMP JUMPDEST PUSH1 0x40 MLOAD DUP1 DUP3 PUSH20 0xFFFFFFFFFFFFFFFFFFFFFFFFFFFFFFFFFFFFFFFF AND PUSH20 0xFFFFFFFFFFFFFFFFFFFFFFFFFFFFFFFFFFFFFFFF AND DUP2 MSTORE PUSH1 0x20 ADD SWAP2 POP POP PUSH1 0x40 MLOAD DUP1 SWAP2 SUB SWAP1 RETURN JUMPDEST CALLVALUE ISZERO PUSH2 0x672 JUMPI PUSH1 0x0 DUP1 REVERT JUMPDEST PUSH2 0x67A PUSH2 0x1431 JUMP JUMPDEST PUSH1 0x40 MLOAD DUP1 DUP3 PUSH20 0xFFFFFFFFFFFFFFFFFFFFFFFFFFFFFFFFFFFFFFFF AND PUSH20 0xFFFFFFFFFFFFFFFFFFFFFFFFFFFFFFFFFFFFFFFF AND DUP2 MSTORE PUSH1 0x20 ADD SWAP2 POP POP PUSH1 0x40 MLOAD DUP1 SWAP2 SUB SWAP1 RETURN JUMPDEST CALLVALUE ISZERO PUSH2 0x6C7 JUMPI PUSH1 0x0 DUP1 REVERT JUMPDEST PUSH2 0x6CF PUSH2 0x1456 JUMP JUMPDEST PUSH1 0x40 MLOAD DUP1 DUP1 PUSH1 0x20 ADD DUP3 DUP2 SUB DUP3 MSTORE DUP4 DUP2 DUP2 MLOAD DUP2 MSTORE PUSH1 0x20 ADD SWAP2 POP DUP1 MLOAD SWAP1 PUSH1 0x20 ADD SWAP1 DUP1 DUP4 DUP4 PUSH1 0x0 JUMPDEST DUP4 DUP2 LT ISZERO PUSH2 0x70F JUMPI DUP1 DUP3 ADD MLOAD DUP2 DUP5 ADD MSTORE PUSH1 0x20 DUP2 ADD SWAP1 POP PUSH2 0x6F4 JUMP JUMPDEST POP POP POP POP SWAP1 POP SWAP1 DUP2 ADD SWAP1 PUSH1 0x1F AND DUP1 ISZERO PUSH2 0x73C JUMPI DUP1 DUP3 SUB DUP1 MLOAD PUSH1 0x1 DUP4 PUSH1 0x20 SUB PUSH2 0x100 EXP SUB NOT AND DUP2 MSTORE PUSH1 0x20 ADD SWAP2 POP JUMPDEST POP SWAP3 POP POP POP PUSH1 0x40 MLOAD DUP1 SWAP2 SUB SWAP1 RETURN JUMPDEST CALLVALUE ISZERO PUSH2 0x755 JUMPI PUSH1 0x0 DUP1 REVERT JUMPDEST PUSH2 0x78A PUSH1 0x4 DUP1 DUP1 CALLDATALOAD PUSH20 0xFFFFFFFFFFFFFFFFFFFFFFFFFFFFFFFFFFFFFFFF AND SWAP1 PUSH1 0x20 ADD SWAP1 SWAP2 SWAP1 DUP1 CALLDATALOAD SWAP1 PUSH1 0x20 ADD SWAP1 SWAP2 SWAP1 POP POP PUSH2 0x14F4 JUMP JUMPDEST STOP JUMPDEST CALLVALUE ISZERO PUSH2 0x797 JUMPI PUSH1 0x0 DUP1 REVERT JUMPDEST PUSH2 0x7B6 PUSH1 0x4 DUP1 DUP1 CALLDATALOAD SWAP1 PUSH1 0x20 ADD SWAP1 SWAP2 SWAP1 DUP1 CALLDATALOAD SWAP1 PUSH1 0x20 ADD SWAP1 SWAP2 SWAP1 POP POP PUSH2 0x169E JUMP JUMPDEST STOP JUMPDEST CALLVALUE ISZERO PUSH2 0x7C3 JUMPI PUSH1 0x0 DUP1 REVERT JUMPDEST PUSH2 0x7D9 PUSH1 0x4 DUP1 DUP1 CALLDATALOAD SWAP1 PUSH1 0x20 ADD SWAP1 SWAP2 SWAP1 POP POP PUSH2 0x1783 JUMP JUMPDEST STOP JUMPDEST CALLVALUE ISZERO PUSH2 0x7E6 JUMPI PUSH1 0x0 DUP1 REVERT JUMPDEST PUSH2 0x7FC PUSH1 0x4 DUP1 DUP1 CALLDATALOAD SWAP1 PUSH1 0x20 ADD SWAP1 SWAP2 SWAP1 POP POP PUSH2 0x197A JUMP JUMPDEST STOP JUMPDEST CALLVALUE ISZERO PUSH2 0x809 JUMPI PUSH1 0x0 DUP1 REVERT JUMPDEST PUSH2 0x854 PUSH1 0x4 DUP1 DUP1 CALLDATALOAD PUSH20 0xFFFFFFFFFFFFFFFFFFFFFFFFFFFFFFFFFFFFFFFF AND SWAP1 PUSH1 0x20 ADD SWAP1 SWAP2 SWAP1 DUP1 CALLDATALOAD PUSH20 0xFFFFFFFFFFFFFFFFFFFFFFFFFFFFFFFFFFFFFFFF AND SWAP1 PUSH1 0x20 ADD SWAP1 SWAP2 SWAP1 POP POP PUSH2 0x1B0D JUMP JUMPDEST PUSH1 0x40 MLOAD DUP1 DUP3 DUP2 MSTORE PUSH1 0x20 ADD SWAP2 POP POP PUSH1 0x40 MLOAD DUP1 SWAP2 SUB SWAP1 RETURN JUMPDEST CALLVALUE ISZERO PUSH2 0x875 JUMPI PUSH1 0x0 DUP1 REVERT JUMPDEST PUSH2 0x87D PUSH2 0x1C52 JUMP JUMPDEST PUSH1 0x40 MLOAD DUP1 DUP3 DUP2 MSTORE PUSH1 0x20 ADD SWAP2 POP POP PUSH1 0x40 MLOAD DUP1 SWAP2 SUB SWAP1 RETURN JUMPDEST CALLVALUE ISZERO PUSH2 0x89E JUMPI PUSH1 0x0 DUP1 REVERT JUMPDEST PUSH2 0x8CA PUSH1 0x4 DUP1 DUP1 CALLDATALOAD PUSH20 0xFFFFFFFFFFFFFFFFFFFFFFFFFFFFFFFFFFFFFFFF AND SWAP1 PUSH1 0x20 ADD SWAP1 SWAP2 SWAP1 POP POP PUSH2 0x1C58 JUMP JUMPDEST PUSH1 0x40 MLOAD DUP1 DUP3 ISZERO ISZERO ISZERO ISZERO DUP2 MSTORE PUSH1 0x20 ADD SWAP2 POP POP PUSH1 0x40 MLOAD DUP1 SWAP2 SUB SWAP1 RETURN JUMPDEST CALLVALUE ISZERO PUSH2 0x8EF JUMPI PUSH1 0x0 DUP1 REVERT JUMPDEST PUSH2 0x91B PUSH1 0x4 DUP1 DUP1 CALLDATALOAD PUSH20 0xFFFFFFFFFFFFFFFFFFFFFFFFFFFFFFFFFFFFFFFF AND SWAP1 PUSH1 0x20 ADD SWAP1 SWAP2 SWAP1 POP POP PUSH2 0x1C78 JUMP JUMPDEST STOP JUMPDEST CALLVALUE ISZERO PUSH2 0x928 JUMPI PUSH1 0x0 DUP1 REVERT JUMPDEST PUSH2 0x930 PUSH2 0x1D91 JUMP JUMPDEST PUSH1 0x40 MLOAD DUP1 DUP3 DUP2 MSTORE PUSH1 0x20 ADD SWAP2 POP POP PUSH1 0x40 MLOAD DUP1 SWAP2 SUB SWAP1 RETURN JUMPDEST CALLVALUE ISZERO PUSH2 0x951 JUMPI PUSH1 0x0 DUP1 REVERT JUMPDEST PUSH2 0x97D PUSH1 0x4 DUP1 DUP1 CALLDATALOAD PUSH20 0xFFFFFFFFFFFFFFFFFFFFFFFFFFFFFFFFFFFFFFFF AND SWAP1 PUSH1 0x20 ADD SWAP1 SWAP2 SWAP1 POP POP PUSH2 0x1DB5 JUMP JUMPDEST STOP JUMPDEST CALLVALUE ISZERO PUSH2 0x98A JUMPI PUSH1 0x0 DUP1 REVERT JUMPDEST PUSH2 0x9B6 PUSH1 0x4 DUP1 DUP1 CALLDATALOAD PUSH20 0xFFFFFFFFFFFFFFFFFFFFFFFFFFFFFFFFFFFFFFFF AND SWAP1 PUSH1 0x20 ADD SWAP1 SWAP2 SWAP1 POP POP PUSH2 0x1E8A JUMP JUMPDEST STOP JUMPDEST PUSH1 0x7 DUP1 SLOAD PUSH1 0x1 DUP2 PUSH1 0x1 AND ISZERO PUSH2 0x100 MUL SUB AND PUSH1 0x2 SWAP1 DIV DUP1 PUSH1 0x1F ADD PUSH1 0x20 DUP1 SWAP2 DIV MUL PUSH1 0x20 ADD PUSH1 0x40 MLOAD SWAP1 DUP2 ADD PUSH1 0x40 MSTORE DUP1 SWAP3 SWAP2 SWAP1 DUP2 DUP2 MSTORE PUSH1 0x20 ADD DUP3 DUP1 SLOAD PUSH1 0x1 DUP2 PUSH1 0x1 AND ISZERO PUSH2 0x100 MUL SUB AND PUSH1 0x2 SWAP1 DIV DUP1 ISZERO PUSH2 0xA4E JUMPI DUP1 PUSH1 0x1F LT PUSH2 0xA23 JUMPI PUSH2 0x100 DUP1 DUP4 SLOAD DIV MUL DUP4 MSTORE SWAP2 PUSH1 0x20 ADD SWAP2 PUSH2 0xA4E JUMP JUMPDEST DUP3 ADD SWAP2 SWAP1 PUSH1 0x0 MSTORE PUSH1 0x20 PUSH1 0x0 KECCAK256 SWAP1 JUMPDEST DUP2 SLOAD DUP2 MSTORE SWAP1 PUSH1 0x1 ADD SWAP1 PUSH1 0x20 ADD DUP1 DUP4 GT PUSH2 0xA31 JUMPI DUP3 SWAP1 SUB PUSH1 0x1F AND DUP3 ADD SWAP2 JUMPDEST POP POP POP POP POP DUP2 JUMP JUMPDEST PUSH1 0x0 DUP1 SWAP1 SLOAD SWAP1 PUSH2 0x100 EXP SWAP1 DIV PUSH20 0xFFFFFFFFFFFFFFFFFFFFFFFFFFFFFFFFFFFFFFFF AND PUSH20 0xFFFFFFFFFFFFFFFFFFFFFFFFFFFFFFFFFFFFFFFF AND CALLER PUSH20 0xFFFFFFFFFFFFFFFFFFFFFFFFFFFFFFFFFFFFFFFF AND EQ ISZERO ISZERO PUSH2 0xAB1 JUMPI PUSH1 0x0 DUP1 REVERT JUMPDEST PUSH1 0x1 PUSH1 0xA PUSH1 0x14 PUSH2 0x100 EXP DUP2 SLOAD DUP2 PUSH1 0xFF MUL NOT AND SWAP1 DUP4 ISZERO ISZERO MUL OR SWAP1 SSTORE POP DUP1 PUSH1 0xA PUSH1 0x0 PUSH2 0x100 EXP DUP2 SLOAD DUP2 PUSH20 0xFFFFFFFFFFFFFFFFFFFFFFFFFFFFFFFFFFFFFFFF MUL NOT AND SWAP1 DUP4 PUSH20 0xFFFFFFFFFFFFFFFFFFFFFFFFFFFFFFFFFFFFFFFF AND MUL OR SWAP1 SSTORE POP PUSH32 0xCC358699805E9A8B7F77B522628C7CB9ABD07D9EFB86B6FB616AF1609036A99E DUP2 PUSH1 0x40 MLOAD DUP1 DUP3 PUSH20 0xFFFFFFFFFFFFFFFFFFFFFFFFFFFFFFFFFFFFFFFF AND PUSH20 0xFFFFFFFFFFFFFFFFFFFFFFFFFFFFFFFFFFFFFFFF AND DUP2 MSTORE PUSH1 0x20 ADD SWAP2 POP POP PUSH1 0x40 MLOAD DUP1 SWAP2 SUB SWAP1 LOG1 POP JUMP JUMPDEST PUSH1 0x40 PUSH1 0x4 DUP2 ADD PUSH1 0x0 CALLDATASIZE SWAP1 POP LT ISZERO ISZERO ISZERO PUSH2 0xB8B JUMPI PUSH1 0x0 DUP1 REVERT JUMPDEST PUSH1 0xA PUSH1 0x14 SWAP1 SLOAD SWAP1 PUSH2 0x100 EXP SWAP1 DIV PUSH1 0xFF AND ISZERO PUSH2 0xCB1 JUMPI PUSH1 0xA PUSH1 0x0 SWAP1 SLOAD SWAP1 PUSH2 0x100 EXP SWAP1 DIV PUSH20 0xFFFFFFFFFFFFFFFFFFFFFFFFFFFFFFFFFFFFFFFF AND PUSH20 0xFFFFFFFFFFFFFFFFFFFFFFFFFFFFFFFFFFFFFFFF AND PUSH4 0xAEE92D33 CALLER DUP6 DUP6 PUSH1 0x40 MLOAD DUP5 PUSH4 0xFFFFFFFF AND PUSH29 0x100000000000000000000000000000000000000000000000000000000 MUL DUP2 MSTORE PUSH1 0x4 ADD DUP1 DUP5 PUSH20 0xFFFFFFFFFFFFFFFFFFFFFFFFFFFFFFFFFFFFFFFF AND PUSH20 0xFFFFFFFFFFFFFFFFFFFFFFFFFFFFFFFFFFFFFFFF AND DUP2 MSTORE PUSH1 0x20 ADD DUP4 PUSH20 0xFFFFFFFFFFFFFFFFFFFFFFFFFFFFFFFFFFFFFFFF AND PUSH20 0xFFFFFFFFFFFFFFFFFFFFFFFFFFFFFFFFFFFFFFFF AND DUP2 MSTORE PUSH1 0x20 ADD DUP3 DUP2 MSTORE PUSH1 0x20 ADD SWAP4 POP POP POP POP PUSH1 0x0 PUSH1 0x40 MLOAD DUP1 DUP4 SUB DUP2 PUSH1 0x0 DUP8 DUP1 EXTCODESIZE ISZERO ISZERO PUSH2 0xC98 JUMPI PUSH1 0x0 DUP1 REVERT JUMPDEST PUSH2 0x2C6 GAS SUB CALL ISZERO ISZERO PUSH2 0xCA9 JUMPI PUSH1 0x0 DUP1 REVERT JUMPDEST POP POP POP PUSH2 0xCBC JUMP JUMPDEST PUSH2 0xCBB DUP4 DUP4 PUSH2 0x200E JUMP JUMPDEST JUMPDEST POP POP POP JUMP JUMPDEST PUSH1 0xA PUSH1 0x14 SWAP1 SLOAD SWAP1 PUSH2 0x100 EXP SWAP1 DIV PUSH1 0xFF AND DUP2 JUMP JUMPDEST PUSH1 0x0 DUP1 SWAP1 SLOAD SWAP1 PUSH2 0x100 EXP SWAP1 DIV PUSH20 0xFFFFFFFFFFFFFFFFFFFFFFFFFFFFFFFFFFFFFFFF AND PUSH20 0xFFFFFFFFFFFFFFFFFFFFFFFFFFFFFFFFFFFFFFFF AND CALLER PUSH20 0xFFFFFFFFFFFFFFFFFFFFFFFFFFFFFFFFFFFFFFFF AND EQ ISZERO ISZERO PUSH2 0xD2F JUMPI PUSH1 0x0 DUP1 REVERT JUMPDEST PUSH1 0x1 PUSH1 0x6 PUSH1 0x0 DUP4 PUSH20 0xFFFFFFFFFFFFFFFFFFFFFFFFFFFFFFFFFFFFFFFF AND PUSH20 0xFFFFFFFFFFFFFFFFFFFFFFFFFFFFFFFFFFFFFFFF AND DUP2 MSTORE PUSH1 0x20 ADD SWAP1 DUP2 MSTORE PUSH1 0x20 ADD PUSH1 0x0 KECCAK256 PUSH1 0x0 PUSH2 0x100 EXP DUP2 SLOAD DUP2 PUSH1 0xFF MUL NOT AND SWAP1 DUP4 ISZERO ISZERO MUL OR SWAP1 SSTORE POP PUSH32 0x42E160154868087D6BFDC0CA23D96A1C1CFA32F1B72BA9BA27B69B98A0D819DC DUP2 PUSH1 0x40 MLOAD DUP1 DUP3 PUSH20 0xFFFFFFFFFFFFFFFFFFFFFFFFFFFFFFFFFFFFFFFF AND PUSH20 0xFFFFFFFFFFFFFFFFFFFFFFFFFFFFFFFFFFFFFFFF AND DUP2 MSTORE PUSH1 0x20 ADD SWAP2 POP POP PUSH1 0x40 MLOAD DUP1 SWAP2 SUB SWAP1 LOG1 POP JUMP JUMPDEST PUSH1 0x0 PUSH1 0xA PUSH1 0x14 SWAP1 SLOAD SWAP1 PUSH2 0x100 EXP SWAP1 DIV PUSH1 0xFF AND ISZERO PUSH2 0xEB4 JUMPI PUSH1 0xA PUSH1 0x0 SWAP1 SLOAD SWAP1 PUSH2 0x100 EXP SWAP1 DIV PUSH20 0xFFFFFFFFFFFFFFFFFFFFFFFFFFFFFFFFFFFFFFFF AND PUSH20 0xFFFFFFFFFFFFFFFFFFFFFFFFFFFFFFFFFFFFFFFF AND PUSH4 0x18160DDD PUSH1 0x0 PUSH1 0x40 MLOAD PUSH1 0x20 ADD MSTORE PUSH1 0x40 MLOAD DUP2 PUSH4 0xFFFFFFFF AND PUSH29 0x100000000000000000000000000000000000000000000000000000000 MUL DUP2 MSTORE PUSH1 0x4 ADD PUSH1 0x20 PUSH1 0x40 MLOAD DUP1 DUP4 SUB DUP2 PUSH1 0x0 DUP8 DUP1 EXTCODESIZE ISZERO ISZERO PUSH2 0xE92 JUMPI PUSH1 0x0 DUP1 REVERT JUMPDEST PUSH2 0x2C6 GAS SUB CALL ISZERO ISZERO PUSH2 0xEA3 JUMPI PUSH1 0x0 DUP1 REVERT JUMPDEST POP POP POP PUSH1 0x40 MLOAD DUP1 MLOAD SWAP1 POP SWAP1 POP PUSH2 0xEBA JUMP JUMPDEST PUSH1 0x1 SLOAD SWAP1 POP JUMPDEST SWAP1 JUMP JUMPDEST PUSH1 0x0 PUSH1 0x14 SWAP1 SLOAD SWAP1 PUSH2 0x100 EXP SWAP1 DIV PUSH1 0xFF AND ISZERO ISZERO ISZERO PUSH2 0xED9 JUMPI PUSH1 0x0 DUP1 REVERT JUMPDEST PUSH1 0x6 PUSH1 0x0 DUP5 PUSH20 0xFFFFFFFFFFFFFFFFFFFFFFFFFFFFFFFFFFFFFFFF AND PUSH20 0xFFFFFFFFFFFFFFFFFFFFFFFFFFFFFFFFFFFFFFFF AND DUP2 MSTORE PUSH1 0x20 ADD SWAP1 DUP2 MSTORE PUSH1 0x20 ADD PUSH1 0x0 KECCAK256 PUSH1 0x0 SWAP1 SLOAD SWAP1 PUSH2 0x100 EXP SWAP1 DIV PUSH1 0xFF AND ISZERO ISZERO ISZERO PUSH2 0xF32 JUMPI PUSH1 0x0 DUP1 REVERT JUMPDEST PUSH1 0xA PUSH1 0x14 SWAP1 SLOAD SWAP1 PUSH2 0x100 EXP SWAP1 DIV PUSH1 0xFF AND ISZERO PUSH2 0x108C JUMPI PUSH1 0xA PUSH1 0x0 SWAP1 SLOAD SWAP1 PUSH2 0x100 EXP SWAP1 DIV PUSH20 0xFFFFFFFFFFFFFFFFFFFFFFFFFFFFFFFFFFFFFFFF AND PUSH20 0xFFFFFFFFFFFFFFFFFFFFFFFFFFFFFFFFFFFFFFFF AND PUSH4 0x8B477ADB CALLER DUP6 DUP6 DUP6 PUSH1 0x40 MLOAD DUP6 PUSH4 0xFFFFFFFF AND PUSH29 0x100000000000000000000000000000000000000000000000000000000 MUL DUP2 MSTORE PUSH1 0x4 ADD DUP1 DUP6 PUSH20 0xFFFFFFFFFFFFFFFFFFFFFFFFFFFFFFFFFFFFFFFF AND PUSH20 0xFFFFFFFFFFFFFFFFFFFFFFFFFFFFFFFFFFFFFFFF AND DUP2 MSTORE PUSH1 0x20 ADD DUP5 PUSH20 0xFFFFFFFFFFFFFFFFFFFFFFFFFFFFFFFFFFFFFFFF AND PUSH20 0xFFFFFFFFFFFFFFFFFFFFFFFFFFFFFFFFFFFFFFFF AND DUP2 MSTORE PUSH1 0x20 ADD DUP4 PUSH20 0xFFFFFFFFFFFFFFFFFFFFFFFFFFFFFFFFFFFFFFFF AND PUSH20 0xFFFFFFFFFFFFFFFFFFFFFFFFFFFFFFFFFFFFFFFF AND DUP2 MSTORE PUSH1 0x20 ADD DUP3 DUP2 MSTORE PUSH1 0x20 ADD SWAP5 POP POP POP POP POP PUSH1 0x0 PUSH1 0x40 MLOAD DUP1 DUP4 SUB DUP2 PUSH1 0x0 DUP8 DUP1 EXTCODESIZE ISZERO ISZERO PUSH2 0x1073 JUMPI PUSH1 0x0 DUP1 REVERT JUMPDEST PUSH2 0x2C6 GAS SUB CALL ISZERO ISZERO PUSH2 0x1084 JUMPI PUSH1 0x0 DUP1 REVERT JUMPDEST POP POP POP PUSH2 0x1098 JUMP JUMPDEST PUSH2 0x1097 DUP4 DUP4 DUP4 PUSH2 0x21AB JUMP JUMPDEST JUMPDEST POP POP POP JUMP JUMPDEST PUSH1 0xA PUSH1 0x0 SWAP1 SLOAD SWAP1 PUSH2 0x100 EXP SWAP1 DIV PUSH20 0xFFFFFFFFFFFFFFFFFFFFFFFFFFFFFFFFFFFFFFFF AND DUP2 JUMP JUMPDEST PUSH1 0x2 PUSH1 0x20 MSTORE DUP1 PUSH1 0x0 MSTORE PUSH1 0x40 PUSH1 0x0 KECCAK256 PUSH1 0x0 SWAP2 POP SWAP1 POP SLOAD DUP2 JUMP JUMPDEST PUSH1 0x9 SLOAD DUP2 JUMP JUMPDEST PUSH1 0x4 SLOAD DUP2 JUMP JUMPDEST PUSH1 0x1 SLOAD DUP2 JUMP JUMPDEST PUSH1 0x0 DUP1 SWAP1 SLOAD SWAP1 PUSH2 0x100 EXP SWAP1 DIV PUSH20 0xFFFFFFFFFFFFFFFFFFFFFFFFFFFFFFFFFFFFFFFF AND PUSH20 0xFFFFFFFFFFFFFFFFFFFFFFFFFFFFFFFFFFFFFFFF AND CALLER PUSH20 0xFFFFFFFFFFFFFFFFFFFFFFFFFFFFFFFFFFFFFFFF AND EQ ISZERO ISZERO PUSH2 0x1148 JUMPI PUSH1 0x0 DUP1 REVERT JUMPDEST PUSH1 0x0 PUSH1 0x14 SWAP1 SLOAD SWAP1 PUSH2 0x100 EXP SWAP1 DIV PUSH1 0xFF AND ISZERO ISZERO PUSH2 0x1163 JUMPI PUSH1 0x0 DUP1 REVERT JUMPDEST PUSH1 0x0 DUP1 PUSH1 0x14 PUSH2 0x100 EXP DUP2 SLOAD DUP2 PUSH1 0xFF MUL NOT AND SWAP1 DUP4 ISZERO ISZERO MUL OR SWAP1 SSTORE POP PUSH32 0x7805862F689E2F13DF9F062FF482AD3AD112ACA9E0847911ED832E158C525B33 PUSH1 0x40 MLOAD PUSH1 0x40 MLOAD DUP1 SWAP2 SUB SWAP1 LOG1 JUMP JUMPDEST PUSH1 0x0 PUSH1 0x6 PUSH1 0x0 DUP4 PUSH20 0xFFFFFFFFFFFFFFFFFFFFFFFFFFFFFFFFFFFFFFFF AND PUSH20 0xFFFFFFFFFFFFFFFFFFFFFFFFFFFFFFFFFFFFFFFF AND DUP2 MSTORE PUSH1 0x20 ADD SWAP1 DUP2 MSTORE PUSH1 0x20 ADD PUSH1 0x0 KECCAK256 PUSH1 0x0 SWAP1 SLOAD SWAP1 PUSH2 0x100 EXP SWAP1 DIV PUSH1 0xFF AND SWAP1 POP SWAP2 SWAP1 POP JUMP JUMPDEST PUSH1 0x5 PUSH1 0x20 MSTORE DUP2 PUSH1 0x0 MSTORE PUSH1 0x40 PUSH1 0x0 KECCAK256 PUSH1 0x20 MSTORE DUP1 PUSH1 0x0 MSTORE PUSH1 0x40 PUSH1 0x0 KECCAK256 PUSH1 0x0 SWAP2 POP SWAP2 POP POP SLOAD DUP2 JUMP JUMPDEST PUSH1 0x0 PUSH1 0x14 SWAP1 SLOAD SWAP1 PUSH2 0x100 EXP SWAP1 DIV PUSH1 0xFF AND DUP2 JUMP JUMPDEST PUSH1 0x0 PUSH1 0xA PUSH1 0x14 SWAP1 SLOAD SWAP1 PUSH2 0x100 EXP SWAP1 DIV PUSH1 0xFF AND ISZERO PUSH2 0x1337 JUMPI PUSH1 0xA PUSH1 0x0 SWAP1 SLOAD SWAP1 PUSH2 0x100 EXP SWAP1 DIV PUSH20 0xFFFFFFFFFFFFFFFFFFFFFFFFFFFFFFFFFFFFFFFF AND PUSH20 0xFFFFFFFFFFFFFFFFFFFFFFFFFFFFFFFFFFFFFFFF AND PUSH4 0x70A08231 DUP4 PUSH1 0x0 PUSH1 0x40 MLOAD PUSH1 0x20 ADD MSTORE PUSH1 0x40 MLOAD DUP3 PUSH4 0xFFFFFFFF AND PUSH29 0x100000000000000000000000000000000000000000000000000000000 MUL DUP2 MSTORE PUSH1 0x4 ADD DUP1 DUP3 PUSH20 0xFFFFFFFFFFFFFFFFFFFFFFFFFFFFFFFFFFFFFFFF AND PUSH20 0xFFFFFFFFFFFFFFFFFFFFFFFFFFFFFFFFFFFFFFFF AND DUP2 MSTORE PUSH1 0x20 ADD SWAP2 POP POP PUSH1 0x20 PUSH1 0x40 MLOAD DUP1 DUP4 SUB DUP2 PUSH1 0x0 DUP8 DUP1 EXTCODESIZE ISZERO ISZERO PUSH2 0x1315 JUMPI PUSH1 0x0 DUP1 REVERT JUMPDEST PUSH2 0x2C6 GAS SUB CALL ISZERO ISZERO PUSH2 0x1326 JUMPI PUSH1 0x0 DUP1 REVERT JUMPDEST POP POP POP PUSH1 0x40 MLOAD DUP1 MLOAD SWAP1 POP SWAP1 POP PUSH2 0x1343 JUMP JUMPDEST PUSH2 0x1340 DUP3 PUSH2 0x2652 JUMP JUMPDEST SWAP1 POP JUMPDEST SWAP2 SWAP1 POP JUMP JUMPDEST PUSH1 0x0 DUP1 SWAP1 SLOAD SWAP1 PUSH2 0x100 EXP SWAP1 DIV PUSH20 0xFFFFFFFFFFFFFFFFFFFFFFFFFFFFFFFFFFFFFFFF AND PUSH20 0xFFFFFFFFFFFFFFFFFFFFFFFFFFFFFFFFFFFFFFFF AND CALLER PUSH20 0xFFFFFFFFFFFFFFFFFFFFFFFFFFFFFFFFFFFFFFFF AND EQ ISZERO ISZERO PUSH2 0x13A3 JUMPI PUSH1 0x0 DUP1 REVERT JUMPDEST PUSH1 0x0 PUSH1 0x14 SWAP1 SLOAD SWAP1 PUSH2 0x100 EXP SWAP1 DIV PUSH1 0xFF AND ISZERO ISZERO ISZERO PUSH2 0x13BF JUMPI PUSH1 0x0 DUP1 REVERT JUMPDEST PUSH1 0x1 PUSH1 0x0 PUSH1 0x14 PUSH2 0x100 EXP DUP2 SLOAD DUP2 PUSH1 0xFF MUL NOT AND SWAP1 DUP4 ISZERO ISZERO MUL OR SWAP1 SSTORE POP PUSH32 0x6985A02210A168E66602D3235CB6DB0E70F92B3BA4D376A33C0F3D9434BFF625 PUSH1 0x40 MLOAD PUSH1 0x40 MLOAD DUP1 SWAP2 SUB SWAP1 LOG1 JUMP JUMPDEST PUSH1 0x0 DUP1 PUSH1 0x0 SWAP1 SLOAD SWAP1 PUSH2 0x100 EXP SWAP1 DIV PUSH20 0xFFFFFFFFFFFFFFFFFFFFFFFFFFFFFFFFFFFFFFFF AND SWAP1 POP SWAP1 JUMP JUMPDEST PUSH1 0x0 DUP1 SWAP1 SLOAD SWAP1 PUSH2 0x100 EXP SWAP1 DIV PUSH20 0xFFFFFFFFFFFFFFFFFFFFFFFFFFFFFFFFFFFFFFFF AND DUP2 JUMP JUMPDEST PUSH1 0x8 DUP1 SLOAD PUSH1 0x1 DUP2 PUSH1 0x1 AND ISZERO PUSH2 0x100 MUL SUB AND PUSH1 0x2 SWAP1 DIV DUP1 PUSH1 0x1F ADD PUSH1 0x20 DUP1 SWAP2 DIV MUL PUSH1 0x20 ADD PUSH1 0x40 MLOAD SWAP1 DUP2 ADD PUSH1 0x40 MSTORE DUP1 SWAP3 SWAP2 SWAP1 DUP2 DUP2 MSTORE PUSH1 0x20 ADD DUP3 DUP1 SLOAD PUSH1 0x1 DUP2 PUSH1 0x1 AND ISZERO PUSH2 0x100 MUL SUB AND PUSH1 0x2 SWAP1 DIV DUP1 ISZERO PUSH2 0x14EC JUMPI DUP1 PUSH1 0x1F LT PUSH2 0x14C1 JUMPI PUSH2 0x100 DUP1 DUP4 SLOAD DIV MUL DUP4 MSTORE SWAP2 PUSH1 0x20 ADD SWAP2 PUSH2 0x14EC JUMP JUMPDEST DUP3 ADD SWAP2 SWAP1 PUSH1 0x0 MSTORE PUSH1 0x20 PUSH1 0x0 KECCAK256 SWAP1 JUMPDEST DUP2 SLOAD DUP2 MSTORE SWAP1 PUSH1 0x1 ADD SWAP1 PUSH1 0x20 ADD DUP1 DUP4 GT PUSH2 0x14CF JUMPI DUP3 SWAP1 SUB PUSH1 0x1F AND DUP3 ADD SWAP2 JUMPDEST POP POP POP POP POP DUP2 JUMP JUMPDEST PUSH1 0x0 PUSH1 0x14 SWAP1 SLOAD SWAP1 PUSH2 0x100 EXP SWAP1 DIV PUSH1 0xFF AND ISZERO ISZERO ISZERO PUSH2 0x1510 JUMPI PUSH1 0x0 DUP1 REVERT JUMPDEST PUSH1 0x6 PUSH1 0x0 CALLER PUSH20 0xFFFFFFFFFFFFFFFFFFFFFFFFFFFFFFFFFFFFFFFF AND PUSH20 0xFFFFFFFFFFFFFFFFFFFFFFFFFFFFFFFFFFFFFFFF AND DUP2 MSTORE PUSH1 0x20 ADD SWAP1 DUP2 MSTORE PUSH1 0x20 ADD PUSH1 0x0 KECCAK256 PUSH1 0x0 SWAP1 SLOAD SWAP1 PUSH2 0x100 EXP SWAP1 DIV PUSH1 0xFF AND ISZERO ISZERO ISZERO PUSH2 0x1569 JUMPI PUSH1 0x0 DUP1 REVERT JUMPDEST PUSH1 0xA PUSH1 0x14 SWAP1 SLOAD SWAP1 PUSH2 0x100 EXP SWAP1 DIV PUSH1 0xFF AND ISZERO PUSH2 0x168F JUMPI PUSH1 0xA PUSH1 0x0 SWAP1 SLOAD SWAP1 PUSH2 0x100 EXP SWAP1 DIV PUSH20 0xFFFFFFFFFFFFFFFFFFFFFFFFFFFFFFFFFFFFFFFF AND PUSH20 0xFFFFFFFFFFFFFFFFFFFFFFFFFFFFFFFFFFFFFFFF AND PUSH4 0x6E18980A CALLER DUP5 DUP5 PUSH1 0x40 MLOAD DUP5 PUSH4 0xFFFFFFFF AND PUSH29 0x100000000000000000000000000000000000000000000000000000000 MUL DUP2 MSTORE PUSH1 0x4 ADD DUP1 DUP5 PUSH20 0xFFFFFFFFFFFFFFFFFFFFFFFFFFFFFFFFFFFFFFFF AND PUSH20 0xFFFFFFFFFFFFFFFFFFFFFFFFFFFFFFFFFFFFFFFF AND DUP2 MSTORE PUSH1 0x20 ADD DUP4 PUSH20 0xFFFFFFFFFFFFFFFFFFFFFFFFFFFFFFFFFFFFFFFF AND PUSH20 0xFFFFFFFFFFFFFFFFFFFFFFFFFFFFFFFFFFFFFFFF AND DUP2 MSTORE PUSH1 0x20 ADD DUP3 DUP2 MSTORE PUSH1 0x20 ADD SWAP4 POP POP POP POP PUSH1 0x0 PUSH1 0x40 MLOAD DUP1 DUP4 SUB DUP2 PUSH1 0x0 DUP8 DUP1 EXTCODESIZE ISZERO ISZERO PUSH2 0x1676 JUMPI PUSH1 0x0 DUP1 REVERT JUMPDEST PUSH2 0x2C6 GAS SUB CALL ISZERO ISZERO PUSH2 0x1687 JUMPI PUSH1 0x0 DUP1 REVERT JUMPDEST POP POP POP PUSH2 0x169A JUMP JUMPDEST PUSH2 0x1699 DUP3 DUP3 PUSH2 0x269B JUMP JUMPDEST JUMPDEST POP POP JUMP JUMPDEST PUSH1 0x0 DUP1 SWAP1 SLOAD SWAP1 PUSH2 0x100 EXP SWAP1 DIV PUSH20 0xFFFFFFFFFFFFFFFFFFFFFFFFFFFFFFFFFFFFFFFF AND PUSH20 0xFFFFFFFFFFFFFFFFFFFFFFFFFFFFFFFFFFFFFFFF AND CALLER PUSH20 0xFFFFFFFFFFFFFFFFFFFFFFFFFFFFFFFFFFFFFFFF AND EQ ISZERO ISZERO PUSH2 0x16F9 JUMPI PUSH1 0x0 DUP1 REVERT JUMPDEST PUSH1 0x14 DUP3 LT ISZERO ISZERO PUSH2 0x1708 JUMPI PUSH1 0x0 DUP1 REVERT JUMPDEST PUSH1 0x32 DUP2 LT ISZERO ISZERO PUSH2 0x1717 JUMPI PUSH1 0x0 DUP1 REVERT JUMPDEST DUP2 PUSH1 0x3 DUP2 SWAP1 SSTORE POP PUSH2 0x1736 PUSH1 0x9 SLOAD PUSH1 0xA EXP DUP3 PUSH2 0x2A03 SWAP1 SWAP2 SWAP1 PUSH4 0xFFFFFFFF AND JUMP JUMPDEST PUSH1 0x4 DUP2 SWAP1 SSTORE POP PUSH32 0xB044A1E409EAC5C48E5AF22D4AF52670DD1A99059537A78B31B48C6500A6354E PUSH1 0x3 SLOAD PUSH1 0x4 SLOAD PUSH1 0x40 MLOAD DUP1 DUP4 DUP2 MSTORE PUSH1 0x20 ADD DUP3 DUP2 MSTORE PUSH1 0x20 ADD SWAP3 POP POP POP PUSH1 0x40 MLOAD DUP1 SWAP2 SUB SWAP1 LOG1 POP POP JUMP JUMPDEST PUSH1 0x0 DUP1 SWAP1 SLOAD SWAP1 PUSH2 0x100 EXP SWAP1 DIV PUSH20 0xFFFFFFFFFFFFFFFFFFFFFFFFFFFFFFFFFFFFFFFF AND PUSH20 0xFFFFFFFFFFFFFFFFFFFFFFFFFFFFFFFFFFFFFFFF AND CALLER PUSH20 0xFFFFFFFFFFFFFFFFFFFFFFFFFFFFFFFFFFFFFFFF AND EQ ISZERO ISZERO PUSH2 0x17DE JUMPI PUSH1 0x0 DUP1 REVERT JUMPDEST PUSH1 0x1 SLOAD DUP2 PUSH1 0x1 SLOAD ADD GT ISZERO ISZERO PUSH2 0x17F2 JUMPI PUSH1 0x0 DUP1 REVERT JUMPDEST PUSH1 0x2 PUSH1 0x0 DUP1 PUSH1 0x0 SWAP1 SLOAD SWAP1 PUSH2 0x100 EXP SWAP1 DIV PUSH20 0xFFFFFFFFFFFFFFFFFFFFFFFFFFFFFFFFFFFFFFFF AND PUSH20 0xFFFFFFFFFFFFFFFFFFFFFFFFFFFFFFFFFFFFFFFF AND PUSH20 0xFFFFFFFFFFFFFFFFFFFFFFFFFFFFFFFFFFFFFFFF AND DUP2 MSTORE PUSH1 0x20 ADD SWAP1 DUP2 MSTORE PUSH1 0x20 ADD PUSH1 0x0 KECCAK256 SLOAD DUP2 PUSH1 0x2 PUSH1 0x0 DUP1 PUSH1 0x0 SWAP1 SLOAD SWAP1 PUSH2 0x100 EXP SWAP1 DIV PUSH20 0xFFFFFFFFFFFFFFFFFFFFFFFFFFFFFFFFFFFFFFFF AND PUSH20 0xFFFFFFFFFFFFFFFFFFFFFFFFFFFFFFFFFFFFFFFF AND PUSH20 0xFFFFFFFFFFFFFFFFFFFFFFFFFFFFFFFFFFFFFFFF AND DUP2 MSTORE PUSH1 0x20 ADD SWAP1 DUP2 MSTORE PUSH1 0x20 ADD PUSH1 0x0 KECCAK256 SLOAD ADD GT ISZERO ISZERO PUSH2 0x18C2 JUMPI PUSH1 0x0 DUP1 REVERT JUMPDEST DUP1 PUSH1 0x2 PUSH1 0x0 DUP1 PUSH1 0x0 SWAP1 SLOAD SWAP1 PUSH2 0x100 EXP SWAP1 DIV PUSH20 0xFFFFFFFFFFFFFFFFFFFFFFFFFFFFFFFFFFFFFFFF AND PUSH20 0xFFFFFFFFFFFFFFFFFFFFFFFFFFFFFFFFFFFFFFFF AND PUSH20 0xFFFFFFFFFFFFFFFFFFFFFFFFFFFFFFFFFFFFFFFF AND DUP2 MSTORE PUSH1 0x20 ADD SWAP1 DUP2 MSTORE PUSH1 0x20 ADD PUSH1 0x0 KECCAK256 PUSH1 0x0 DUP3 DUP3 SLOAD ADD SWAP3 POP POP DUP2 SWAP1 SSTORE POP DUP1 PUSH1 0x1 PUSH1 0x0 DUP3 DUP3 SLOAD ADD SWAP3 POP POP DUP2 SWAP1 SSTORE POP PUSH32 0xCB8241ADB0C3FDB35B70C24CE35C5EB0C17AF7431C99F827D44A445CA624176A DUP2 PUSH1 0x40 MLOAD DUP1 DUP3 DUP2 MSTORE PUSH1 0x20 ADD SWAP2 POP POP PUSH1 0x40 MLOAD DUP1 SWAP2 SUB SWAP1 LOG1 POP JUMP JUMPDEST PUSH1 0x0 DUP1 SWAP1 SLOAD SWAP1 PUSH2 0x100 EXP SWAP1 DIV PUSH20 0xFFFFFFFFFFFFFFFFFFFFFFFFFFFFFFFFFFFFFFFF AND PUSH20 0xFFFFFFFFFFFFFFFFFFFFFFFFFFFFFFFFFFFFFFFF AND CALLER PUSH20 0xFFFFFFFFFFFFFFFFFFFFFFFFFFFFFFFFFFFFFFFF AND EQ ISZERO ISZERO PUSH2 0x19D5 JUMPI PUSH1 0x0 DUP1 REVERT JUMPDEST DUP1 PUSH1 0x1 SLOAD LT ISZERO ISZERO ISZERO PUSH2 0x19E6 JUMPI PUSH1 0x0 DUP1 REVERT JUMPDEST DUP1 PUSH1 0x2 PUSH1 0x0 DUP1 PUSH1 0x0 SWAP1 SLOAD SWAP1 PUSH2 0x100 EXP SWAP1 DIV PUSH20 0xFFFFFFFFFFFFFFFFFFFFFFFFFFFFFFFFFFFFFFFF AND PUSH20 0xFFFFFFFFFFFFFFFFFFFFFFFFFFFFFFFFFFFFFFFF AND PUSH20 0xFFFFFFFFFFFFFFFFFFFFFFFFFFFFFFFFFFFFFFFF AND DUP2 MSTORE PUSH1 0x20 ADD SWAP1 DUP2 MSTORE PUSH1 0x20 ADD PUSH1 0x0 KECCAK256 SLOAD LT ISZERO ISZERO ISZERO PUSH2 0x1A55 JUMPI PUSH1 0x0 DUP1 REVERT JUMPDEST DUP1 PUSH1 0x1 PUSH1 0x0 DUP3 DUP3 SLOAD SUB SWAP3 POP POP DUP2 SWAP1 SSTORE POP DUP1 PUSH1 0x2 PUSH1 0x0 DUP1 PUSH1 0x0 SWAP1 SLOAD SWAP1 PUSH2 0x100 EXP SWAP1 DIV PUSH20 0xFFFFFFFFFFFFFFFFFFFFFFFFFFFFFFFFFFFFFFFF AND PUSH20 0xFFFFFFFFFFFFFFFFFFFFFFFFFFFFFFFFFFFFFFFF AND PUSH20 0xFFFFFFFFFFFFFFFFFFFFFFFFFFFFFFFFFFFFFFFF AND DUP2 MSTORE PUSH1 0x20 ADD SWAP1 DUP2 MSTORE PUSH1 0x20 ADD PUSH1 0x0 KECCAK256 PUSH1 0x0 DUP3 DUP3 SLOAD SUB SWAP3 POP POP DUP2 SWAP1 SSTORE POP PUSH32 0x702D5967F45F6513A38FFC42D6BA9BF230BD40E8F53B16363C7EB4FD2DEB9A44 DUP2 PUSH1 0x40 MLOAD DUP1 DUP3 DUP2 MSTORE PUSH1 0x20 ADD SWAP2 POP POP PUSH1 0x40 MLOAD DUP1 SWAP2 SUB SWAP1 LOG1 POP JUMP JUMPDEST PUSH1 0x0 PUSH1 0xA PUSH1 0x14 SWAP1 SLOAD SWAP1 PUSH2 0x100 EXP SWAP1 DIV PUSH1 0xFF AND ISZERO PUSH2 0x1C3F JUMPI PUSH1 0xA PUSH1 0x0 SWAP1 SLOAD SWAP1 PUSH2 0x100 EXP SWAP1 DIV PUSH20 0xFFFFFFFFFFFFFFFFFFFFFFFFFFFFFFFFFFFFFFFF AND PUSH20 0xFFFFFFFFFFFFFFFFFFFFFFFFFFFFFFFFFFFFFFFF AND PUSH4 0xDD62ED3E DUP5 DUP5 PUSH1 0x0 PUSH1 0x40 MLOAD PUSH1 0x20 ADD MSTORE PUSH1 0x40 MLOAD DUP4 PUSH4 0xFFFFFFFF AND PUSH29 0x100000000000000000000000000000000000000000000000000000000 MUL DUP2 MSTORE PUSH1 0x4 ADD DUP1 DUP4 PUSH20 0xFFFFFFFFFFFFFFFFFFFFFFFFFFFFFFFFFFFFFFFF AND PUSH20 0xFFFFFFFFFFFFFFFFFFFFFFFFFFFFFFFFFFFFFFFF AND DUP2 MSTORE PUSH1 0x20 ADD DUP3 PUSH20 0xFFFFFFFFFFFFFFFFFFFFFFFFFFFFFFFFFFFFFFFF AND PUSH20 0xFFFFFFFFFFFFFFFFFFFFFFFFFFFFFFFFFFFFFFFF AND DUP2 MSTORE PUSH1 0x20 ADD SWAP3 POP POP POP PUSH1 0x20 PUSH1 0x40 MLOAD DUP1 DUP4 SUB DUP2 PUSH1 0x0 DUP8 DUP1 EXTCODESIZE ISZERO ISZERO PUSH2 0x1C1D JUMPI PUSH1 0x0 DUP1 REVERT JUMPDEST PUSH2 0x2C6 GAS SUB CALL ISZERO ISZERO PUSH2 0x1C2E JUMPI PUSH1 0x0 DUP1 REVERT JUMPDEST POP POP POP PUSH1 0x40 MLOAD DUP1 MLOAD SWAP1 POP SWAP1 POP PUSH2 0x1C4C JUMP JUMPDEST PUSH2 0x1C49 DUP4 DUP4 PUSH2 0x2A3E JUMP JUMPDEST SWAP1 POP JUMPDEST SWAP3 SWAP2 POP POP JUMP JUMPDEST PUSH1 0x3 SLOAD DUP2 JUMP JUMPDEST PUSH1 0x6 PUSH1 0x20 MSTORE DUP1 PUSH1 0x0 MSTORE PUSH1 0x40 PUSH1 0x0 KECCAK256 PUSH1 0x0 SWAP2 POP SLOAD SWAP1 PUSH2 0x100 EXP SWAP1 DIV PUSH1 0xFF AND DUP2 JUMP JUMPDEST PUSH1 0x0 DUP1 SWAP1 SLOAD SWAP1 PUSH2 0x100 EXP SWAP1 DIV PUSH20 0xFFFFFFFFFFFFFFFFFFFFFFFFFFFFFFFFFFFFFFFF AND PUSH20 0xFFFFFFFFFFFFFFFFFFFFFFFFFFFFFFFFFFFFFFFF AND CALLER PUSH20 0xFFFFFFFFFFFFFFFFFFFFFFFFFFFFFFFFFFFFFFFF AND EQ ISZERO ISZERO PUSH2 0x1CD3 JUMPI PUSH1 0x0 DUP1 REVERT JUMPDEST PUSH1 0x0 PUSH1 0x6 PUSH1 0x0 DUP4 PUSH20 0xFFFFFFFFFFFFFFFFFFFFFFFFFFFFFFFFFFFFFFFF AND PUSH20 0xFFFFFFFFFFFFFFFFFFFFFFFFFFFFFFFFFFFFFFFF AND DUP2 MSTORE PUSH1 0x20 ADD SWAP1 DUP2 MSTORE PUSH1 0x20 ADD PUSH1 0x0 KECCAK256 PUSH1 0x0 PUSH2 0x100 EXP DUP2 SLOAD DUP2 PUSH1 0xFF MUL NOT AND SWAP1 DUP4 ISZERO ISZERO MUL OR SWAP1 SSTORE POP PUSH32 0xD7E9EC6E6ECD65492DCE6BF513CD6867560D49544421D0783DDF06E76C24470C DUP2 PUSH1 0x40 MLOAD DUP1 DUP3 PUSH20 0xFFFFFFFFFFFFFFFFFFFFFFFFFFFFFFFFFFFFFFFF AND PUSH20 0xFFFFFFFFFFFFFFFFFFFFFFFFFFFFFFFFFFFFFFFF AND DUP2 MSTORE PUSH1 0x20 ADD SWAP2 POP POP PUSH1 0x40 MLOAD DUP1 SWAP2 SUB SWAP1 LOG1 POP JUMP JUMPDEST PUSH32 0xFFFFFFFFFFFFFFFFFFFFFFFFFFFFFFFFFFFFFFFFFFFFFFFFFFFFFFFFFFFFFFFF DUP2 JUMP JUMPDEST PUSH1 0x0 DUP1 SWAP1 SLOAD SWAP1 PUSH2 0x100 EXP SWAP1 DIV PUSH20 0xFFFFFFFFFFFFFFFFFFFFFFFFFFFFFFFFFFFFFFFF AND PUSH20 0xFFFFFFFFFFFFFFFFFFFFFFFFFFFFFFFFFFFFFFFF AND CALLER PUSH20 0xFFFFFFFFFFFFFFFFFFFFFFFFFFFFFFFFFFFFFFFF AND EQ ISZERO ISZERO PUSH2 0x1E10 JUMPI PUSH1 0x0 DUP1 REVERT JUMPDEST PUSH1 0x0 PUSH20 0xFFFFFFFFFFFFFFFFFFFFFFFFFFFFFFFFFFFFFFFF AND DUP2 PUSH20 0xFFFFFFFFFFFFFFFFFFFFFFFFFFFFFFFFFFFFFFFF AND EQ ISZERO ISZERO PUSH2 0x1E87 JUMPI DUP1 PUSH1 0x0 DUP1 PUSH2 0x100 EXP DUP2 SLOAD DUP2 PUSH20 0xFFFFFFFFFFFFFFFFFFFFFFFFFFFFFFFFFFFFFFFF MUL NOT AND SWAP1 DUP4 PUSH20 0xFFFFFFFFFFFFFFFFFFFFFFFFFFFFFFFFFFFFFFFF AND MUL OR SWAP1 SSTORE POP JUMPDEST POP JUMP JUMPDEST PUSH1 0x0 DUP1 PUSH1 0x0 SWAP1 SLOAD SWAP1 PUSH2 0x100 EXP SWAP1 DIV PUSH20 0xFFFFFFFFFFFFFFFFFFFFFFFFFFFFFFFFFFFFFFFF AND PUSH20 0xFFFFFFFFFFFFFFFFFFFFFFFFFFFFFFFFFFFFFFFF AND CALLER PUSH20 0xFFFFFFFFFFFFFFFFFFFFFFFFFFFFFFFFFFFFFFFF AND EQ ISZERO ISZERO PUSH2 0x1EE7 JUMPI PUSH1 0x0 DUP1 REVERT JUMPDEST PUSH1 0x6 PUSH1 0x0 DUP4 PUSH20 0xFFFFFFFFFFFFFFFFFFFFFFFFFFFFFFFFFFFFFFFF AND PUSH20 0xFFFFFFFFFFFFFFFFFFFFFFFFFFFFFFFFFFFFFFFF AND DUP2 MSTORE PUSH1 0x20 ADD SWAP1 DUP2 MSTORE PUSH1 0x20 ADD PUSH1 0x0 KECCAK256 PUSH1 0x0 SWAP1 SLOAD SWAP1 PUSH2 0x100 EXP SWAP1 DIV PUSH1 0xFF AND ISZERO ISZERO PUSH2 0x1F3F JUMPI PUSH1 0x0 DUP1 REVERT JUMPDEST PUSH2 0x1F48 DUP3 PUSH2 0x1239 JUMP JUMPDEST SWAP1 POP PUSH1 0x0 PUSH1 0x2 PUSH1 0x0 DUP5 PUSH20 0xFFFFFFFFFFFFFFFFFFFFFFFFFFFFFFFFFFFFFFFF AND PUSH20 0xFFFFFFFFFFFFFFFFFFFFFFFFFFFFFFFFFFFFFFFF AND DUP2 MSTORE PUSH1 0x20 ADD SWAP1 DUP2 MSTORE PUSH1 0x20 ADD PUSH1 0x0 KECCAK256 DUP2 SWAP1 SSTORE POP DUP1 PUSH1 0x1 PUSH1 0x0 DUP3 DUP3 SLOAD SUB SWAP3 POP POP DUP2 SWAP1 SSTORE POP PUSH32 0x61E6E66B0D6339B2980AECC6CCC0039736791F0CCDE9ED512E789A7FBDD698C6 DUP3 DUP3 PUSH1 0x40 MLOAD DUP1 DUP4 PUSH20 0xFFFFFFFFFFFFFFFFFFFFFFFFFFFFFFFFFFFFFFFF AND PUSH20 0xFFFFFFFFFFFFFFFFFFFFFFFFFFFFFFFFFFFFFFFF AND DUP2 MSTORE PUSH1 0x20 ADD DUP3 DUP2 MSTORE PUSH1 0x20 ADD SWAP3 POP POP POP PUSH1 0x40 MLOAD DUP1 SWAP2 SUB SWAP1 LOG1 POP POP JUMP JUMPDEST PUSH1 0x40 PUSH1 0x4 DUP2 ADD PUSH1 0x0 CALLDATASIZE SWAP1 POP LT ISZERO ISZERO ISZERO PUSH2 0x2026 JUMPI PUSH1 0x0 DUP1 REVERT JUMPDEST PUSH1 0x0 DUP3 EQ ISZERO DUP1 ISZERO PUSH2 0x20B4 JUMPI POP PUSH1 0x0 PUSH1 0x5 PUSH1 0x0 CALLER PUSH20 0xFFFFFFFFFFFFFFFFFFFFFFFFFFFFFFFFFFFFFFFF AND PUSH20 0xFFFFFFFFFFFFFFFFFFFFFFFFFFFFFFFFFFFFFFFF AND DUP2 MSTORE PUSH1 0x20 ADD SWAP1 DUP2 MSTORE PUSH1 0x20 ADD PUSH1 0x0 KECCAK256 PUSH1 0x0 DUP6 PUSH20 0xFFFFFFFFFFFFFFFFFFFFFFFFFFFFFFFFFFFFFFFF AND PUSH20 0xFFFFFFFFFFFFFFFFFFFFFFFFFFFFFFFFFFFFFFFF AND DUP2 MSTORE PUSH1 0x20 ADD SWAP1 DUP2 MSTORE PUSH1 0x20 ADD PUSH1 0x0 KECCAK256 SLOAD EQ ISZERO JUMPDEST ISZERO ISZERO ISZERO PUSH2 0x20C0 JUMPI PUSH1 0x0 DUP1 REVERT JUMPDEST DUP2 PUSH1 0x5 PUSH1 0x0 CALLER PUSH20 0xFFFFFFFFFFFFFFFFFFFFFFFFFFFFFFFFFFFFFFFF AND PUSH20 0xFFFFFFFFFFFFFFFFFFFFFFFFFFFFFFFFFFFFFFFF AND DUP2 MSTORE PUSH1 0x20 ADD SWAP1 DUP2 MSTORE PUSH1 0x20 ADD PUSH1 0x0 KECCAK256 PUSH1 0x0 DUP6 PUSH20 0xFFFFFFFFFFFFFFFFFFFFFFFFFFFFFFFFFFFFFFFF AND PUSH20 0xFFFFFFFFFFFFFFFFFFFFFFFFFFFFFFFFFFFFFFFF AND DUP2 MSTORE PUSH1 0x20 ADD SWAP1 DUP2 MSTORE PUSH1 0x20 ADD PUSH1 0x0 KECCAK256 DUP2 SWAP1 SSTORE POP DUP3 PUSH20 0xFFFFFFFFFFFFFFFFFFFFFFFFFFFFFFFFFFFFFFFF AND CALLER PUSH20 0xFFFFFFFFFFFFFFFFFFFFFFFFFFFFFFFFFFFFFFFF AND PUSH32 0x8C5BE1E5EBEC7D5BD14F71427D1E84F3DD0314C0F7B2291E5B200AC8C7C3B925 DUP5 PUSH1 0x40 MLOAD DUP1 DUP3 DUP2 MSTORE PUSH1 0x20 ADD SWAP2 POP POP PUSH1 0x40 MLOAD DUP1 SWAP2 SUB SWAP1 LOG3 POP POP POP JUMP JUMPDEST PUSH1 0x0 DUP1 PUSH1 0x0 PUSH1 0x60 PUSH1 0x4 DUP2 ADD PUSH1 0x0 CALLDATASIZE SWAP1 POP LT ISZERO ISZERO ISZERO PUSH2 0x21C8 JUMPI PUSH1 0x0 DUP1 REVERT JUMPDEST PUSH1 0x5 PUSH1 0x0 DUP9 PUSH20 0xFFFFFFFFFFFFFFFFFFFFFFFFFFFFFFFFFFFFFFFF AND PUSH20 0xFFFFFFFFFFFFFFFFFFFFFFFFFFFFFFFFFFFFFFFF AND DUP2 MSTORE PUSH1 0x20 ADD SWAP1 DUP2 MSTORE PUSH1 0x20 ADD PUSH1 0x0 KECCAK256 PUSH1 0x0 CALLER PUSH20 0xFFFFFFFFFFFFFFFFFFFFFFFFFFFFFFFFFFFFFFFF AND PUSH20 0xFFFFFFFFFFFFFFFFFFFFFFFFFFFFFFFFFFFFFFFF AND DUP2 MSTORE PUSH1 0x20 ADD SWAP1 DUP2 MSTORE PUSH1 0x20 ADD PUSH1 0x0 KECCAK256 SLOAD SWAP4 POP PUSH2 0x2270 PUSH2 0x2710 PUSH2 0x2262 PUSH1 0x3 SLOAD DUP9 PUSH2 0x2A03 SWAP1 SWAP2 SWAP1 PUSH4 0xFFFFFFFF AND JUMP JUMPDEST PUSH2 0x2AC5 SWAP1 SWAP2 SWAP1 PUSH4 0xFFFFFFFF AND JUMP JUMPDEST SWAP3 POP PUSH1 0x4 SLOAD DUP4 GT ISZERO PUSH2 0x2282 JUMPI PUSH1 0x4 SLOAD SWAP3 POP JUMPDEST PUSH32 0xFFFFFFFFFFFFFFFFFFFFFFFFFFFFFFFFFFFFFFFFFFFFFFFFFFFFFFFFFFFFFFFF DUP5 LT ISZERO PUSH2 0x233E JUMPI PUSH2 0x22BD DUP6 DUP6 PUSH2 0x2AE0 SWAP1 SWAP2 SWAP1 PUSH4 0xFFFFFFFF AND JUMP JUMPDEST PUSH1 0x5 PUSH1 0x0 DUP10 PUSH20 0xFFFFFFFFFFFFFFFFFFFFFFFFFFFFFFFFFFFFFFFF AND PUSH20 0xFFFFFFFFFFFFFFFFFFFFFFFFFFFFFFFFFFFFFFFF AND DUP2 MSTORE PUSH1 0x20 ADD SWAP1 DUP2 MSTORE PUSH1 0x20 ADD PUSH1 0x0 KECCAK256 PUSH1 0x0 CALLER PUSH20 0xFFFFFFFFFFFFFFFFFFFFFFFFFFFFFFFFFFFFFFFF AND PUSH20 0xFFFFFFFFFFFFFFFFFFFFFFFFFFFFFFFFFFFFFFFF AND DUP2 MSTORE PUSH1 0x20 ADD SWAP1 DUP2 MSTORE PUSH1 0x20 ADD PUSH1 0x0 KECCAK256 DUP2 SWAP1 SSTORE POP JUMPDEST PUSH2 0x2351 DUP4 DUP7 PUSH2 0x2AE0 SWAP1 SWAP2 SWAP1 PUSH4 0xFFFFFFFF AND JUMP JUMPDEST SWAP2 POP PUSH2 0x23A5 DUP6 PUSH1 0x2 PUSH1 0x0 DUP11 PUSH20 0xFFFFFFFFFFFFFFFFFFFFFFFFFFFFFFFFFFFFFFFF AND PUSH20 0xFFFFFFFFFFFFFFFFFFFFFFFFFFFFFFFFFFFFFFFF AND DUP2 MSTORE PUSH1 0x20 ADD SWAP1 DUP2 MSTORE PUSH1 0x20 ADD PUSH1 0x0 KECCAK256 SLOAD PUSH2 0x2AE0 SWAP1 SWAP2 SWAP1 PUSH4 0xFFFFFFFF AND JUMP JUMPDEST PUSH1 0x2 PUSH1 0x0 DUP10 PUSH20 0xFFFFFFFFFFFFFFFFFFFFFFFFFFFFFFFFFFFFFFFF AND PUSH20 0xFFFFFFFFFFFFFFFFFFFFFFFFFFFFFFFFFFFFFFFF AND DUP2 MSTORE PUSH1 0x20 ADD SWAP1 DUP2 MSTORE PUSH1 0x20 ADD PUSH1 0x0 KECCAK256 DUP2 SWAP1 SSTORE POP PUSH2 0x243A DUP3 PUSH1 0x2 PUSH1 0x0 DUP10 PUSH20 0xFFFFFFFFFFFFFFFFFFFFFFFFFFFFFFFFFFFFFFFF AND PUSH20 0xFFFFFFFFFFFFFFFFFFFFFFFFFFFFFFFFFFFFFFFF AND DUP2 MSTORE PUSH1 0x20 ADD SWAP1 DUP2 MSTORE PUSH1 0x20 ADD PUSH1 0x0 KECCAK256 SLOAD PUSH2 0x2AF9 SWAP1 SWAP2 SWAP1 PUSH4 0xFFFFFFFF AND JUMP JUMPDEST PUSH1 0x2 PUSH1 0x0 DUP9 PUSH20 0xFFFFFFFFFFFFFFFFFFFFFFFFFFFFFFFFFFFFFFFF AND PUSH20 0xFFFFFFFFFFFFFFFFFFFFFFFFFFFFFFFFFFFFFFFF AND DUP2 MSTORE PUSH1 0x20 ADD SWAP1 DUP2 MSTORE PUSH1 0x20 ADD PUSH1 0x0 KECCAK256 DUP2 SWAP1 SSTORE POP PUSH1 0x0 DUP4 GT ISZERO PUSH2 0x25E4 JUMPI PUSH2 0x24F9 DUP4 PUSH1 0x2 PUSH1 0x0 DUP1 PUSH1 0x0 SWAP1 SLOAD SWAP1 PUSH2 0x100 EXP SWAP1 DIV PUSH20 0xFFFFFFFFFFFFFFFFFFFFFFFFFFFFFFFFFFFFFFFF AND PUSH20 0xFFFFFFFFFFFFFFFFFFFFFFFFFFFFFFFFFFFFFFFF AND PUSH20 0xFFFFFFFFFFFFFFFFFFFFFFFFFFFFFFFFFFFFFFFF AND DUP2 MSTORE PUSH1 0x20 ADD SWAP1 DUP2 MSTORE PUSH1 0x20 ADD PUSH1 0x0 KECCAK256 SLOAD PUSH2 0x2AF9 SWAP1 SWAP2 SWAP1 PUSH4 0xFFFFFFFF AND JUMP JUMPDEST PUSH1 0x2 PUSH1 0x0 DUP1 PUSH1 0x0 SWAP1 SLOAD SWAP1 PUSH2 0x100 EXP SWAP1 DIV PUSH20 0xFFFFFFFFFFFFFFFFFFFFFFFFFFFFFFFFFFFFFFFF AND PUSH20 0xFFFFFFFFFFFFFFFFFFFFFFFFFFFFFFFFFFFFFFFF AND PUSH20 0xFFFFFFFFFFFFFFFFFFFFFFFFFFFFFFFFFFFFFFFF AND DUP2 MSTORE PUSH1 0x20 ADD SWAP1 DUP2 MSTORE PUSH1 0x20 ADD PUSH1 0x0 KECCAK256 DUP2 SWAP1 SSTORE POP PUSH1 0x0 DUP1 SWAP1 SLOAD SWAP1 PUSH2 0x100 EXP SWAP1 DIV PUSH20 0xFFFFFFFFFFFFFFFFFFFFFFFFFFFFFFFFFFFFFFFF AND PUSH20 0xFFFFFFFFFFFFFFFFFFFFFFFFFFFFFFFFFFFFFFFF AND DUP8 PUSH20 0xFFFFFFFFFFFFFFFFFFFFFFFFFFFFFFFFFFFFFFFF AND PUSH32 0xDDF252AD1BE2C89B69C2B068FC378DAA952BA7F163C4A11628F55A4DF523B3EF DUP6 PUSH1 0x40 MLOAD DUP1 DUP3 DUP2 MSTORE PUSH1 0x20 ADD SWAP2 POP POP PUSH1 0x40 MLOAD DUP1 SWAP2 SUB SWAP1 LOG3 JUMPDEST DUP6 PUSH20 0xFFFFFFFFFFFFFFFFFFFFFFFFFFFFFFFFFFFFFFFF AND DUP8 PUSH20 0xFFFFFFFFFFFFFFFFFFFFFFFFFFFFFFFFFFFFFFFF AND PUSH32 0xDDF252AD1BE2C89B69C2B068FC378DAA952BA7F163C4A11628F55A4DF523B3EF DUP5 PUSH1 0x40 MLOAD DUP1 DUP3 DUP2 MSTORE PUSH1 0x20 ADD SWAP2 POP POP PUSH1 0x40 MLOAD DUP1 SWAP2 SUB SWAP1 LOG3 POP POP POP POP POP POP POP JUMP JUMPDEST PUSH1 0x0 PUSH1 0x2 PUSH1 0x0 DUP4 PUSH20 0xFFFFFFFFFFFFFFFFFFFFFFFFFFFFFFFFFFFFFFFF AND PUSH20 0xFFFFFFFFFFFFFFFFFFFFFFFFFFFFFFFFFFFFFFFF AND DUP2 MSTORE PUSH1 0x20 ADD SWAP1 DUP2 MSTORE PUSH1 0x20 ADD PUSH1 0x0 KECCAK256 SLOAD SWAP1 POP SWAP2 SWAP1 POP JUMP JUMPDEST PUSH1 0x0 DUP1 PUSH1 0x40 PUSH1 0x4 DUP2 ADD PUSH1 0x0 CALLDATASIZE SWAP1 POP LT ISZERO ISZERO ISZERO PUSH2 0x26B6 JUMPI PUSH1 0x0 DUP1 REVERT JUMPDEST PUSH2 0x26DF PUSH2 0x2710 PUSH2 0x26D1 PUSH1 0x3 SLOAD DUP8 PUSH2 0x2A03 SWAP1 SWAP2 SWAP1 PUSH4 0xFFFFFFFF AND JUMP JUMPDEST PUSH2 0x2AC5 SWAP1 SWAP2 SWAP1 PUSH4 0xFFFFFFFF AND JUMP JUMPDEST SWAP3 POP PUSH1 0x4 SLOAD DUP4 GT ISZERO PUSH2 0x26F1 JUMPI PUSH1 0x4 SLOAD SWAP3 POP JUMPDEST PUSH2 0x2704 DUP4 DUP6 PUSH2 0x2AE0 SWAP1 SWAP2 SWAP1 PUSH4 0xFFFFFFFF AND JUMP JUMPDEST SWAP2 POP PUSH2 0x2758 DUP5 PUSH1 0x2 PUSH1 0x0 CALLER PUSH20 0xFFFFFFFFFFFFFFFFFFFFFFFFFFFFFFFFFFFFFFFF AND PUSH20 0xFFFFFFFFFFFFFFFFFFFFFFFFFFFFFFFFFFFFFFFF AND DUP2 MSTORE PUSH1 0x20 ADD SWAP1 DUP2 MSTORE PUSH1 0x20 ADD PUSH1 0x0 KECCAK256 SLOAD PUSH2 0x2AE0 SWAP1 SWAP2 SWAP1 PUSH4 0xFFFFFFFF AND JUMP JUMPDEST PUSH1 0x2 PUSH1 0x0 CALLER PUSH20 0xFFFFFFFFFFFFFFFFFFFFFFFFFFFFFFFFFFFFFFFF AND PUSH20 0xFFFFFFFFFFFFFFFFFFFFFFFFFFFFFFFFFFFFFFFF AND DUP2 MSTORE PUSH1 0x20 ADD SWAP1 DUP2 MSTORE PUSH1 0x20 ADD PUSH1 0x0 KECCAK256 DUP2 SWAP1 SSTORE POP PUSH2 0x27ED DUP3 PUSH1 0x2 PUSH1 0x0 DUP9 PUSH20 0xFFFFFFFFFFFFFFFFFFFFFFFFFFFFFFFFFFFFFFFF AND PUSH20 0xFFFFFFFFFFFFFFFFFFFFFFFFFFFFFFFFFFFFFFFF AND DUP2 MSTORE PUSH1 0x20 ADD SWAP1 DUP2 MSTORE PUSH1 0x20 ADD PUSH1 0x0 KECCAK256 SLOAD PUSH2 0x2AF9 SWAP1 SWAP2 SWAP1 PUSH4 0xFFFFFFFF AND JUMP JUMPDEST PUSH1 0x2 PUSH1 0x0 DUP8 PUSH20 0xFFFFFFFFFFFFFFFFFFFFFFFFFFFFFFFFFFFFFFFF AND PUSH20 0xFFFFFFFFFFFFFFFFFFFFFFFFFFFFFFFFFFFFFFFF AND DUP2 MSTORE PUSH1 0x20 ADD SWAP1 DUP2 MSTORE PUSH1 0x20 ADD PUSH1 0x0 KECCAK256 DUP2 SWAP1 SSTORE POP PUSH1 0x0 DUP4 GT ISZERO PUSH2 0x2997 JUMPI PUSH2 0x28AC DUP4 PUSH1 0x2 PUSH1 0x0 DUP1 PUSH1 0x0 SWAP1 SLOAD SWAP1 PUSH2 0x100 EXP SWAP1 DIV PUSH20 0xFFFFFFFFFFFFFFFFFFFFFFFFFFFFFFFFFFFFFFFF AND PUSH20 0xFFFFFFFFFFFFFFFFFFFFFFFFFFFFFFFFFFFFFFFF AND PUSH20 0xFFFFFFFFFFFFFFFFFFFFFFFFFFFFFFFFFFFFFFFF AND DUP2 MSTORE PUSH1 0x20 ADD SWAP1 DUP2 MSTORE PUSH1 0x20 ADD PUSH1 0x0 KECCAK256 SLOAD PUSH2 0x2AF9 SWAP1 SWAP2 SWAP1 PUSH4 0xFFFFFFFF AND JUMP JUMPDEST PUSH1 0x2 PUSH1 0x0 DUP1 PUSH1 0x0 SWAP1 SLOAD SWAP1 PUSH2 0x100 EXP SWAP1 DIV PUSH20 0xFFFFFFFFFFFFFFFFFFFFFFFFFFFFFFFFFFFFFFFF AND PUSH20 0xFFFFFFFFFFFFFFFFFFFFFFFFFFFFFFFFFFFFFFFF AND PUSH20 0xFFFFFFFFFFFFFFFFFFFFFFFFFFFFFFFFFFFFFFFF AND DUP2 MSTORE PUSH1 0x20 ADD SWAP1 DUP2 MSTORE PUSH1 0x20 ADD PUSH1 0x0 KECCAK256 DUP2 SWAP1 SSTORE POP PUSH1 0x0 DUP1 SWAP1 SLOAD SWAP1 PUSH2 0x100 EXP SWAP1 DIV PUSH20 0xFFFFFFFFFFFFFFFFFFFFFFFFFFFFFFFFFFFFFFFF AND PUSH20 0xFFFFFFFFFFFFFFFFFFFFFFFFFFFFFFFFFFFFFFFF AND CALLER PUSH20 0xFFFFFFFFFFFFFFFFFFFFFFFFFFFFFFFFFFFFFFFF AND PUSH32 0xDDF252AD1BE2C89B69C2B068FC378DAA952BA7F163C4A11628F55A4DF523B3EF DUP6 PUSH1 0x40 MLOAD DUP1 DUP3 DUP2 MSTORE PUSH1 0x20 ADD SWAP2 POP POP PUSH1 0x40 MLOAD DUP1 SWAP2 SUB SWAP1 LOG3 JUMPDEST DUP5 PUSH20 0xFFFFFFFFFFFFFFFFFFFFFFFFFFFFFFFFFFFFFFFF AND CALLER PUSH20 0xFFFFFFFFFFFFFFFFFFFFFFFFFFFFFFFFFFFFFFFF AND PUSH32 0xDDF252AD1BE2C89B69C2B068FC378DAA952BA7F163C4A11628F55A4DF523B3EF DUP5 PUSH1 0x40 MLOAD DUP1 DUP3 DUP2 MSTORE PUSH1 0x20 ADD SWAP2 POP POP PUSH1 0x40 MLOAD DUP1 SWAP2 SUB SWAP1 LOG3 POP POP POP POP POP JUMP JUMPDEST PUSH1 0x0 DUP1 PUSH1 0x0 DUP5 EQ ISZERO PUSH2 0x2A18 JUMPI PUSH1 0x0 SWAP2 POP PUSH2 0x2A37 JUMP JUMPDEST DUP3 DUP5 MUL SWAP1 POP DUP3 DUP5 DUP3 DUP2 ISZERO ISZERO PUSH2 0x2A29 JUMPI INVALID JUMPDEST DIV EQ ISZERO ISZERO PUSH2 0x2A33 JUMPI INVALID JUMPDEST DUP1 SWAP2 POP JUMPDEST POP SWAP3 SWAP2 POP POP JUMP JUMPDEST PUSH1 0x0 PUSH1 0x5 PUSH1 0x0 DUP5 PUSH20 0xFFFFFFFFFFFFFFFFFFFFFFFFFFFFFFFFFFFFFFFF AND PUSH20 0xFFFFFFFFFFFFFFFFFFFFFFFFFFFFFFFFFFFFFFFF AND DUP2 MSTORE PUSH1 0x20 ADD SWAP1 DUP2 MSTORE PUSH1 0x20 ADD PUSH1 0x0 KECCAK256 PUSH1 0x0 DUP4 PUSH20 0xFFFFFFFFFFFFFFFFFFFFFFFFFFFFFFFFFFFFFFFF AND PUSH20 0xFFFFFFFFFFFFFFFFFFFFFFFFFFFFFFFFFFFFFFFF AND DUP2 MSTORE PUSH1 0x20 ADD SWAP1 DUP2 MSTORE PUSH1 0x20 ADD PUSH1 0x0 KECCAK256 SLOAD SWAP1 POP SWAP3 SWAP2 POP POP JUMP JUMPDEST PUSH1 0x0 DUP1 DUP3 DUP5 DUP2 ISZERO ISZERO PUSH2 0x2AD3 JUMPI INVALID JUMPDEST DIV SWAP1 POP DUP1 SWAP2 POP POP SWAP3 SWAP2 POP POP JUMP JUMPDEST PUSH1 0x0 DUP3 DUP3 GT ISZERO ISZERO ISZERO PUSH2 0x2AEE JUMPI INVALID JUMPDEST DUP2 DUP4 SUB SWAP1 POP SWAP3 SWAP2 POP POP JUMP JUMPDEST PUSH1 0x0 DUP1 DUP3 DUP5 ADD SWAP1 POP DUP4 DUP2 LT ISZERO ISZERO ISZERO PUSH2 0x2B0D JUMPI INVALID JUMPDEST DUP1 SWAP2 POP POP SWAP3 SWAP2 POP POP JUMP STOP LOG1 PUSH6 0x627A7A723058 KECCAK256 0xc5 SWAP4 PUSH17 0x3CF7CE24400F8771831253545864D5CAF9 0xb4 0xad PUSH30 0xCB77C1ED6541CF067C002900000000000000000000000000000000000000 "
				},
				"gasEstimates": {
					"creation": {
						"codeDepositCost": "2215000",
						"executionCost": "infinite",
						"totalCost": "infinite"
					},
					"external": {
						"MAX_UINT()": "824",
						"_totalSupply()": "628",
						"addBlackList(address)": "21967",
						"allowance(address,address)": "infinite",
						"allowed(address,address)": "905",
						"approve(address,uint256)": "infinite",
						"balanceOf(address)": "infinite",
						"balances(address)": "678",
						"basisPointsRate()": "958",
						"decimals()": "584",
						"deprecate(address)": "42128",
						"deprecated()": "550",
						"destroyBlackFunds(address)": "infinite",
						"getBlackListStatus(address)": "863",
						"getOwner()": "838",
						"isBlackListed(address)": "1133",
						"issue(uint256)": "44324",
						"maximumFee()": "606",
						"name()": "infinite",
						"owner()": "852",
						"pause()": "22184",
						"paused()": "814",
						"redeem(uint256)": "43614",
						"removeBlackList(address)": "22495",
						"setParams(uint256,uint256)": "infinite",
						"symbol()": "infinite",
						"totalSupply()": "infinite",
						"transfer(address,uint256)": "infinite",
						"transferFrom(address,address,uint256)": "infinite",
						"transferOwnership(address)": "21414",
						"unpause()": "22071",
						"upgradedAddress()": "588"
					}
				},
				"methodIdentifiers": {
					"MAX_UINT()": "e5b5019a",
					"_totalSupply()": "3eaaf86b",
					"addBlackList(address)": "0ecb93c0",
					"allowance(address,address)": "dd62ed3e",
					"allowed(address,address)": "5c658165",
					"approve(address,uint256)": "095ea7b3",
					"balanceOf(address)": "70a08231",
					"balances(address)": "27e235e3",
					"basisPointsRate()": "dd644f72",
					"decimals()": "313ce567",
					"deprecate(address)": "0753c30c",
					"deprecated()": "0e136b19",
					"destroyBlackFunds(address)": "f3bdc228",
					"getBlackListStatus(address)": "59bf1abe",
					"getOwner()": "893d20e8",
					"isBlackListed(address)": "e47d6060",
					"issue(uint256)": "cc872b66",
					"maximumFee()": "35390714",
					"name()": "06fdde03",
					"owner()": "8da5cb5b",
					"pause()": "8456cb59",
					"paused()": "5c975abb",
					"redeem(uint256)": "db006a75",
					"removeBlackList(address)": "e4997dc5",
					"setParams(uint256,uint256)": "c0324c77",
					"symbol()": "95d89b41",
					"totalSupply()": "18160ddd",
					"transfer(address,uint256)": "a9059cbb",
					"transferFrom(address,address,uint256)": "23b872dd",
					"transferOwnership(address)": "f2fde38b",
					"unpause()": "3f4ba83a",
					"upgradedAddress()": "26976e3f"
				}
			},
			"userdoc": {
				"methods": {
					"getBlackListStatus(address)": {
						"notice": "//// Getters to allow the same blacklist to be used also by other contracts (including upgraded Tether) ///////\r"
					}
				}
			}
		}
	}
}